{
  "address": "0xB8E735B3D6733dB8869f405B79885Ed3727754ee",
  "abi": [
    {
      "inputs": [
        {
          "internalType": "address",
          "name": "ensRegistryAddr",
          "type": "address"
        },
        {
          "internalType": "string",
          "name": "baseURI",
          "type": "string"
        },
        {
          "internalType": "address[]",
          "name": "payees",
          "type": "address[]"
        },
        {
          "internalType": "uint256[]",
          "name": "shares",
          "type": "uint256[]"
        }
      ],
      "stateMutability": "nonpayable",
      "type": "constructor"
    },
    {
      "anonymous": false,
      "inputs": [
        {
          "indexed": true,
          "internalType": "address",
          "name": "owner",
          "type": "address"
        },
        {
          "indexed": true,
          "internalType": "address",
          "name": "approved",
          "type": "address"
        },
        {
          "indexed": true,
          "internalType": "uint256",
          "name": "tokenId",
          "type": "uint256"
        }
      ],
      "name": "Approval",
      "type": "event"
    },
    {
      "anonymous": false,
      "inputs": [
        {
          "indexed": true,
          "internalType": "address",
          "name": "owner",
          "type": "address"
        },
        {
          "indexed": true,
          "internalType": "address",
          "name": "operator",
          "type": "address"
        },
        {
          "indexed": false,
          "internalType": "bool",
          "name": "approved",
          "type": "bool"
        }
      ],
      "name": "ApprovalForAll",
      "type": "event"
    },
    {
      "anonymous": false,
      "inputs": [
        {
          "indexed": false,
          "internalType": "address",
          "name": "account",
          "type": "address"
        },
        {
          "indexed": false,
          "internalType": "uint256",
          "name": "shares",
          "type": "uint256"
        }
      ],
      "name": "PayeeAdded",
      "type": "event"
    },
    {
      "anonymous": false,
      "inputs": [
        {
          "indexed": false,
          "internalType": "address",
          "name": "from",
          "type": "address"
        },
        {
          "indexed": false,
          "internalType": "uint256",
          "name": "amount",
          "type": "uint256"
        }
      ],
      "name": "PaymentReceived",
      "type": "event"
    },
    {
      "anonymous": false,
      "inputs": [
        {
          "indexed": false,
          "internalType": "address",
          "name": "to",
          "type": "address"
        },
        {
          "indexed": false,
          "internalType": "uint256",
          "name": "amount",
          "type": "uint256"
        }
      ],
      "name": "PaymentReleased",
      "type": "event"
    },
    {
      "anonymous": false,
      "inputs": [
        {
          "indexed": true,
          "internalType": "address",
          "name": "from",
          "type": "address"
        },
        {
          "indexed": true,
          "internalType": "address",
          "name": "to",
          "type": "address"
        },
        {
          "indexed": true,
          "internalType": "uint256",
          "name": "tokenId",
          "type": "uint256"
        }
      ],
      "name": "Transfer",
      "type": "event"
    },
    {
      "inputs": [
        {
          "internalType": "address",
          "name": "to",
          "type": "address"
        },
        {
          "internalType": "uint256",
          "name": "tokenId",
          "type": "uint256"
        }
      ],
      "name": "approve",
      "outputs": [],
      "stateMutability": "nonpayable",
      "type": "function"
    },
    {
      "inputs": [
        {
          "internalType": "address",
          "name": "owner",
          "type": "address"
        }
      ],
      "name": "balanceOf",
      "outputs": [
        {
          "internalType": "uint256",
          "name": "",
          "type": "uint256"
        }
      ],
      "stateMutability": "view",
      "type": "function"
    },
    {
      "inputs": [],
      "name": "breed",
      "outputs": [
        {
          "internalType": "uint256",
          "name": "",
          "type": "uint256"
        }
      ],
      "stateMutability": "nonpayable",
      "type": "function"
    },
    {
      "inputs": [
        {
          "internalType": "uint256",
          "name": "bullId",
          "type": "uint256"
        }
      ],
      "name": "close",
      "outputs": [],
      "stateMutability": "nonpayable",
      "type": "function"
    },
    {
      "inputs": [],
      "name": "endVote",
      "outputs": [],
      "stateMutability": "nonpayable",
      "type": "function"
    },
    {
      "inputs": [],
      "name": "generation",
      "outputs": [
        {
          "internalType": "uint32",
          "name": "",
          "type": "uint32"
        }
      ],
      "stateMutability": "view",
      "type": "function"
    },
    {
      "inputs": [],
      "name": "getAddrOfBAF",
      "outputs": [
        {
          "internalType": "address",
          "name": "",
          "type": "address"
        }
      ],
      "stateMutability": "view",
      "type": "function"
    },
    {
      "inputs": [],
      "name": "getAllProposals",
      "outputs": [
        {
          "components": [
            {
              "internalType": "address",
              "name": "proposer",
              "type": "address"
            },
            {
              "internalType": "string",
              "name": "baseURI",
              "type": "string"
            },
            {
              "internalType": "uint88",
              "name": "bid",
              "type": "uint88"
            },
            {
              "internalType": "uint8",
              "name": "voteCount",
              "type": "uint8"
            }
          ],
          "internalType": "struct BullosseumGovernance.Proposal[]",
          "name": "",
          "type": "tuple[]"
        }
      ],
      "stateMutability": "view",
      "type": "function"
    },
    {
      "inputs": [
        {
          "internalType": "uint256",
          "name": "tokenId",
          "type": "uint256"
        }
      ],
      "name": "getApproved",
      "outputs": [
        {
          "internalType": "address",
          "name": "",
          "type": "address"
        }
      ],
      "stateMutability": "view",
      "type": "function"
    },
    {
      "inputs": [
        {
          "internalType": "uint256",
          "name": "bullId",
          "type": "uint256"
        }
      ],
      "name": "getBullData",
      "outputs": [
        {
          "components": [
            {
              "internalType": "uint32",
              "name": "generation",
              "type": "uint32"
            },
            {
              "internalType": "bool",
              "name": "closed",
              "type": "bool"
            },
            {
              "internalType": "bool",
              "name": "onField",
              "type": "bool"
            },
            {
              "internalType": "int256",
              "name": "netWorth",
              "type": "int256"
            },
            {
              "internalType": "address",
              "name": "proxy",
              "type": "address"
            },
            {
              "internalType": "int256",
              "name": "openPrice",
              "type": "int256"
            },
            {
              "internalType": "int8",
              "name": "leverage",
              "type": "int8"
            }
          ],
          "internalType": "struct BullosseumFighter.BullData",
          "name": "",
          "type": "tuple"
        }
      ],
      "stateMutability": "view",
      "type": "function"
    },
    {
      "inputs": [
        {
          "internalType": "uint8",
          "name": "fieldId",
          "type": "uint8"
        }
      ],
      "name": "getBullOnField",
      "outputs": [
        {
          "internalType": "uint256",
          "name": "",
          "type": "uint256"
        }
      ],
      "stateMutability": "view",
      "type": "function"
    },
    {
      "inputs": [
        {
          "internalType": "address",
          "name": "owner",
          "type": "address"
        },
        {
          "internalType": "address",
          "name": "operator",
          "type": "address"
        }
      ],
      "name": "isApprovedForAll",
      "outputs": [
        {
          "internalType": "bool",
          "name": "",
          "type": "bool"
        }
      ],
      "stateMutability": "view",
      "type": "function"
    },
    {
      "inputs": [],
      "name": "name",
      "outputs": [
        {
          "internalType": "string",
          "name": "",
          "type": "string"
        }
      ],
      "stateMutability": "view",
      "type": "function"
    },
    {
      "inputs": [
        {
          "internalType": "uint256",
          "name": "bullId",
          "type": "uint256"
        },
        {
          "internalType": "uint8",
          "name": "fieldId",
          "type": "uint8"
        }
      ],
      "name": "occupy",
      "outputs": [],
      "stateMutability": "nonpayable",
      "type": "function"
    },
    {
      "inputs": [
        {
          "internalType": "uint256",
          "name": "bullId",
          "type": "uint256"
        },
        {
          "internalType": "bytes32",
          "name": "namehash",
          "type": "bytes32"
        },
        {
          "internalType": "int8",
          "name": "leverage",
          "type": "int8"
        }
      ],
      "name": "open",
      "outputs": [],
      "stateMutability": "nonpayable",
      "type": "function"
    },
    {
      "inputs": [
        {
          "internalType": "uint256",
          "name": "tokenId",
          "type": "uint256"
        }
      ],
      "name": "ownerOf",
      "outputs": [
        {
          "internalType": "address",
          "name": "",
          "type": "address"
        }
      ],
      "stateMutability": "view",
      "type": "function"
    },
    {
      "inputs": [
        {
          "internalType": "uint256",
          "name": "index",
          "type": "uint256"
        }
      ],
      "name": "payee",
      "outputs": [
        {
          "internalType": "address",
          "name": "",
          "type": "address"
        }
      ],
      "stateMutability": "view",
      "type": "function"
    },
    {
      "inputs": [
        {
          "internalType": "string",
          "name": "newBaseURI",
          "type": "string"
        },
        {
          "internalType": "uint8",
          "name": "slotId",
          "type": "uint8"
        }
      ],
      "name": "propose",
      "outputs": [],
      "stateMutability": "payable",
      "type": "function"
    },
    {
      "inputs": [
        {
          "internalType": "address payable",
          "name": "account",
          "type": "address"
        }
      ],
      "name": "release",
      "outputs": [],
      "stateMutability": "nonpayable",
      "type": "function"
    },
    {
      "inputs": [
        {
          "internalType": "address",
          "name": "account",
          "type": "address"
        }
      ],
      "name": "released",
      "outputs": [
        {
          "internalType": "uint256",
          "name": "",
          "type": "uint256"
        }
      ],
      "stateMutability": "view",
      "type": "function"
    },
    {
      "inputs": [
        {
          "internalType": "uint256",
          "name": "bullId",
          "type": "uint256"
        }
      ],
      "name": "report",
      "outputs": [],
      "stateMutability": "nonpayable",
      "type": "function"
    },
    {
      "inputs": [
        {
          "internalType": "address",
          "name": "from",
          "type": "address"
        },
        {
          "internalType": "address",
          "name": "to",
          "type": "address"
        },
        {
          "internalType": "uint256",
          "name": "tokenId",
          "type": "uint256"
        }
      ],
      "name": "safeTransferFrom",
      "outputs": [],
      "stateMutability": "nonpayable",
      "type": "function"
    },
    {
      "inputs": [
        {
          "internalType": "address",
          "name": "from",
          "type": "address"
        },
        {
          "internalType": "address",
          "name": "to",
          "type": "address"
        },
        {
          "internalType": "uint256",
          "name": "tokenId",
          "type": "uint256"
        },
        {
          "internalType": "bytes",
          "name": "_data",
          "type": "bytes"
        }
      ],
      "name": "safeTransferFrom",
      "outputs": [],
      "stateMutability": "nonpayable",
      "type": "function"
    },
    {
      "inputs": [
        {
          "internalType": "address",
          "name": "operator",
          "type": "address"
        },
        {
          "internalType": "bool",
          "name": "approved",
          "type": "bool"
        }
      ],
      "name": "setApprovalForAll",
      "outputs": [],
      "stateMutability": "nonpayable",
      "type": "function"
    },
    {
      "inputs": [
        {
          "internalType": "address",
          "name": "account",
          "type": "address"
        }
      ],
      "name": "shares",
      "outputs": [
        {
          "internalType": "uint256",
          "name": "",
          "type": "uint256"
        }
      ],
      "stateMutability": "view",
      "type": "function"
    },
    {
      "inputs": [],
      "name": "stage",
      "outputs": [
        {
          "internalType": "enum BullosseumFields.Stage",
          "name": "",
          "type": "uint8"
        }
      ],
      "stateMutability": "view",
      "type": "function"
    },
    {
      "inputs": [],
      "name": "startVote",
      "outputs": [],
      "stateMutability": "nonpayable",
      "type": "function"
    },
    {
      "inputs": [
        {
          "internalType": "bytes4",
          "name": "interfaceId",
          "type": "bytes4"
        }
      ],
      "name": "supportsInterface",
      "outputs": [
        {
          "internalType": "bool",
          "name": "",
          "type": "bool"
        }
      ],
      "stateMutability": "view",
      "type": "function"
    },
    {
      "inputs": [],
      "name": "symbol",
      "outputs": [
        {
          "internalType": "string",
          "name": "",
          "type": "string"
        }
      ],
      "stateMutability": "view",
      "type": "function"
    },
    {
      "inputs": [
        {
          "internalType": "uint256",
          "name": "index",
          "type": "uint256"
        }
      ],
      "name": "tokenByIndex",
      "outputs": [
        {
          "internalType": "uint256",
          "name": "",
          "type": "uint256"
        }
      ],
      "stateMutability": "view",
      "type": "function"
    },
    {
      "inputs": [
        {
          "internalType": "address",
          "name": "owner",
          "type": "address"
        },
        {
          "internalType": "uint256",
          "name": "index",
          "type": "uint256"
        }
      ],
      "name": "tokenOfOwnerByIndex",
      "outputs": [
        {
          "internalType": "uint256",
          "name": "",
          "type": "uint256"
        }
      ],
      "stateMutability": "view",
      "type": "function"
    },
    {
      "inputs": [
        {
          "internalType": "uint256",
          "name": "tokenId",
          "type": "uint256"
        }
      ],
      "name": "tokenURI",
      "outputs": [
        {
          "internalType": "string",
          "name": "",
          "type": "string"
        }
      ],
      "stateMutability": "view",
      "type": "function"
    },
    {
      "inputs": [],
      "name": "totalReleased",
      "outputs": [
        {
          "internalType": "uint256",
          "name": "",
          "type": "uint256"
        }
      ],
      "stateMutability": "view",
      "type": "function"
    },
    {
      "inputs": [],
      "name": "totalShares",
      "outputs": [
        {
          "internalType": "uint256",
          "name": "",
          "type": "uint256"
        }
      ],
      "stateMutability": "view",
      "type": "function"
    },
    {
      "inputs": [],
      "name": "totalSupply",
      "outputs": [
        {
          "internalType": "uint256",
          "name": "",
          "type": "uint256"
        }
      ],
      "stateMutability": "view",
      "type": "function"
    },
    {
      "inputs": [
        {
          "internalType": "address",
          "name": "from",
          "type": "address"
        },
        {
          "internalType": "address",
          "name": "to",
          "type": "address"
        },
        {
          "internalType": "uint256",
          "name": "tokenId",
          "type": "uint256"
        }
      ],
      "name": "transferFrom",
      "outputs": [],
      "stateMutability": "nonpayable",
      "type": "function"
    },
    {
      "inputs": [
        {
          "internalType": "uint256",
          "name": "proposalId",
          "type": "uint256"
        },
        {
          "internalType": "uint8[]",
          "name": "fieldIdList",
          "type": "uint8[]"
        }
      ],
      "name": "vote",
      "outputs": [],
      "stateMutability": "nonpayable",
      "type": "function"
    },
    {
      "stateMutability": "payable",
      "type": "receive"
    }
  ],
  "transactionHash": "0x0b30a9ec9f4063094904d4b03eb17b026ab595d78c4171e1f01adde4fa89e4d1",
  "args": [
    "0x00000000000C2E074eC69A0dFb2997BA6C7d2e1e",
    "ipfs://QmeSjSinHpPnmXmspMjwiXyN6zS4E9zccariGR3jxcaWtq/",
    [
      "0x586EbeC665DEa9B5B459cB9e5562DBCA3Cf2CE13"
    ],
    [
      1
    ]
  ],
  "solcInputHash": "3aeb1d1e0048c05f663fabb30b0e9b28",
  "bytecode": "0x60806040523480156200001157600080fd5b50604051620055de380380620055de833981016040819052620000349162000543565b818184866040518060400160405280601081526020016f213ab63637b9b9b2bab6a334b3b432b960811b815250604051806040016040528060038152602001622137a360e91b81525081600090805190602001906200009592919062000394565b508051620000ab90600190602084019062000394565b5050600a8054600163ffffffff1990911617600160201b600160c01b0319166401000000006001600160a01b0385160217905550620000e96200025e565b604051620000f79062000423565b6200010391906200065d565b604051809103906000f08015801562000120573d6000803e3d6000fd5b50600b80546001600160a01b0319166001600160a01b039290921691909117905550600e805460ff1916905542601055600a5463ffffffff16600090815260126020908152604090912082516200017a9284019062000394565b50508051825114620001a95760405162461bcd60e51b8152600401620001a090620006d6565b60405180910390fd5b6000825111620001cd5760405162461bcd60e51b8152600401620001a09062000773565b60005b825181101562000251576200023c838281518110620001ff57634e487b7160e01b600052603260045260246000fd5b60200260200101518383815181106200022857634e487b7160e01b600052603260045260246000fd5b60200260200101516200026260201b60201c565b8062000248816200088b565b915050620001d0565b50505050505050620008d5565b3390565b6001600160a01b0382166200028b5760405162461bcd60e51b8152600401620001a0906200068a565b60008111620002ae5760405162461bcd60e51b8152600401620001a090620007aa565b6001600160a01b03821660009081526015602052604090205415620002e75760405162461bcd60e51b8152600401620001a09062000728565b60178054600181019091557fc624b66cc0138b8fabc209247f72d758e1cf3343756d543badbf24212bed8c150180546001600160a01b0319166001600160a01b03841690811790915560009081526015602052604090208190556013546200035190829062000833565b6013556040517f40c340f65e17194d14ddddb073d3c9f888e3cb52b5aae0c6c7706b4fbc905fac9062000388908490849062000671565b60405180910390a15050565b828054620003a2906200084e565b90600052602060002090601f016020900481019282620003c6576000855562000411565b82601f10620003e157805160ff191683800117855562000411565b8280016001018555821562000411579182015b8281111562000411578251825591602001919060010190620003f4565b506200041f92915062000431565b5090565b610d1d80620048c183390190565b5b808211156200041f576000815560010162000432565b80516001600160a01b03811681146200046057600080fd5b919050565b600082601f83011262000476578081fd5b815160206200048f62000489836200080d565b620007e1565b8281528181019085830183850287018401881015620004ac578586fd5b855b85811015620004d557620004c28262000448565b84529284019290840190600101620004ae565b5090979650505050505050565b600082601f830112620004f3578081fd5b815160206200050662000489836200080d565b828152818101908583018385028701840188101562000523578586fd5b855b85811015620004d55781518452928401929084019060010162000525565b6000806000806080858703121562000559578384fd5b620005648562000448565b602086810151919550906001600160401b038082111562000583578586fd5b818801915088601f83011262000597578586fd5b815181811115620005ac57620005ac620008bf565b620005c0601f8201601f19168501620007e1565b8181528a85838601011115620005d4578788fd5b875b82811015620005f3578481018601518282018701528501620005d6565b828111156200060457888684840101525b5060408a0151909750935050808311156200061d578485fd5b6200062b89848a0162000465565b9450606088015192508083111562000641578384fd5b50506200065187828801620004e2565b91505092959194509250565b6001600160a01b0391909116815260200190565b6001600160a01b03929092168252602082015260400190565b6020808252602c908201527f5061796d656e7453706c69747465723a206163636f756e74206973207468652060408201526b7a65726f206164647265737360a01b606082015260800190565b60208082526032908201527f5061796d656e7453706c69747465723a2070617965657320616e6420736861726040820152710cae640d8cadccee8d040dad2e6dac2e8c6d60731b606082015260800190565b6020808252602b908201527f5061796d656e7453706c69747465723a206163636f756e7420616c726561647960408201526a206861732073686172657360a81b606082015260800190565b6020808252601a908201527f5061796d656e7453706c69747465723a206e6f20706179656573000000000000604082015260600190565b6020808252601d908201527f5061796d656e7453706c69747465723a20736861726573206172652030000000604082015260600190565b6040518181016001600160401b0381118282101715620008055762000805620008bf565b604052919050565b60006001600160401b03821115620008295762000829620008bf565b5060209081020190565b60008219821115620008495762000849620008a9565b500190565b6002810460018216806200086357607f821691505b602082108114156200088557634e487b7160e01b600052602260045260246000fd5b50919050565b6000600019821415620008a257620008a2620008a9565b5060010190565b634e487b7160e01b600052601160045260246000fd5b634e487b7160e01b600052604160045260246000fd5b613fdc80620008e56000396000f3fe6080604052600436106101de5760003560e01c80635c8a067611610103578063a22cb4651161009b578063a22cb4651461057e578063b88d4fde1461059e578063b9223946146105be578063c040e6b8146105d3578063c87b56dd146105f5578063cceb68f514610615578063ce7c2ac214610637578063dbc2fde314610657578063e33b7de314610677578063e985e9c51461068c57610225565b80635c8a0676146104675780636352211e1461048757806368b85fb1146104a757806370a08231146104bc57806371a853cf146104dc5780638b83209b1461050957806395d89b4114610529578063969b1cdb1461053e5780639852595c1461055e57610225565b80631916558711610176578063191655871461037557806319395e7a1461039557806323b872dd146103aa5780632f745c59146103ca578063313dc99a146103ea5780633a98ef39146103fd57806342842e0e146104125780634c0a6af0146104325780634f6ccce71461044757610225565b806301ffc9a71461022a57806306fdde0314610260578063081812fc14610282578063095ea7b3146102af5780630aebeb4e146102d1578063117fe0e5146102f15780631300cc381461031e578063172195221461033e57806318160ddd1461036057610225565b36610225577f6ef95f06320e7a25a04a175ca677b7052bdd97131872c2192525a629f51be77061020c6106ac565b3460405161021b9291906131c9565b60405180910390a1005b600080fd5b34801561023657600080fd5b5061024a610245366004612f44565b6106b0565b60405161025791906132e2565b60405180910390f35b34801561026c57600080fd5b506102756106dd565b604051610257919061331e565b34801561028e57600080fd5b506102a261029d366004612ff7565b61076f565b60405161025791906131b5565b3480156102bb57600080fd5b506102cf6102ca366004612efd565b6107bb565b005b3480156102dd57600080fd5b506102cf6102ec366004612ff7565b610853565b3480156102fd57600080fd5b5061031161030c3660046130ee565b6109ea565b60405161025791906132ed565b34801561032a57600080fd5b506102cf61033936600461300f565b610a25565b34801561034a57600080fd5b50610353610c3e565b6040516102579190613c63565b34801561036c57600080fd5b50610311610c4a565b34801561038157600080fd5b506102cf610390366004612d51565b610c50565b3480156103a157600080fd5b506102a2610d95565b3480156103b657600080fd5b506102cf6103c5366004612dc1565b610da4565b3480156103d657600080fd5b506103116103e5366004612efd565b610ddc565b6102cf6103f8366004612f7c565b610e2e565b34801561040957600080fd5b50610311611201565b34801561041e57600080fd5b506102cf61042d366004612dc1565b611207565b34801561043e57600080fd5b506102cf611222565b34801561045357600080fd5b50610311610462366004612ff7565b6112c8565b34801561047357600080fd5b506102cf610482366004613087565b611323565b34801561049357600080fd5b506102a26104a2366004612ff7565b6114b9565b3480156104b357600080fd5b506103116114ee565b3480156104c857600080fd5b506103116104d7366004612d51565b611699565b3480156104e857600080fd5b506104fc6104f7366004612ff7565b6116dd565b6040516102579190613c04565b34801561051557600080fd5b506102a2610524366004612ff7565b611790565b34801561053557600080fd5b506102756117ce565b34801561054a57600080fd5b506102cf610559366004612ff7565b6117dd565b34801561056a57600080fd5b50610311610579366004612d51565b61196e565b34801561058a57600080fd5b506102cf610599366004612ed0565b611989565b3480156105aa57600080fd5b506102cf6105b9366004612e01565b611a57565b3480156105ca57600080fd5b506102cf611a96565b3480156105df57600080fd5b506105e8611dda565b60405161025791906132f6565b34801561060157600080fd5b50610275610610366004612ff7565b611de3565b34801561062157600080fd5b5061062a611ed3565b6040516102579190613243565b34801561064357600080fd5b50610311610652366004612d51565b612008565b34801561066357600080fd5b506102cf6106723660046130c3565b612023565b34801561068357600080fd5b506103116121b5565b34801561069857600080fd5b5061024a6106a7366004612d89565b6121bb565b3390565b60006001600160e01b0319821663780e9d6360e01b14806106d557506106d5826121e9565b90505b919050565b6060600080546106ec90613e7a565b80601f016020809104026020016040519081016040528092919081815260200182805461071890613e7a565b80156107655780601f1061073a57610100808354040283529160200191610765565b820191906000526020600020905b81548152906001019060200180831161074857829003601f168201915b5050505050905090565b600061077a82612229565b61079f5760405162461bcd60e51b81526004016107969061385e565b60405180910390fd5b506000908152600460205260409020546001600160a01b031690565b60006107c6826114b9565b9050806001600160a01b0316836001600160a01b031614156107fa5760405162461bcd60e51b8152600401610796906139d5565b806001600160a01b031661080c6106ac565b6001600160a01b031614806108285750610828816106a76106ac565b6108445760405162461bcd60e51b8152600401610796906136bf565b61084e8383612246565b505050565b8061085e33826122b4565b61087a5760405162461bcd60e51b815260040161079690613bb7565b6000828152600c602052604090208054600160201b900460ff16156108b15760405162461bcd60e51b815260040161079690613b8f565b600281015460408051633fabe5a360e21b815290516001600160a01b0390921691600091839163feaf968c9160048082019260a092909190829003018186803b1580156108fd57600080fd5b505afa158015610911573d6000803e3d6000fd5b505050506040513d601f19601f820116820180604052508101906109359190613108565b5050855460ff60201b1916600160201b178655506003850154600186015460048701549294506103e893509091600090810b900b6109738386613df8565b61097d9190613d56565b610988906064613d56565b6109929190613d56565b61099c9190613d14565b6109a69190613d14565b8360010160008282546109b99190613c74565b90915550506001830154600013156109e35760405162461bcd60e51b815260040161079690613485565b5050505050565b6000606460ff831610610a0f5760405162461bcd60e51b81526004016107969061390b565b5060ff166000908152600d602052604090205490565b60118054829160009186908110610a4c57634e487b7160e01b600052603260045260246000fd5b9060005260206000209060030201905060005b8260ff168160ff161015610b36576000610a78826109ea565b9050610a826106ac565b6001600160a01b0316610a94826114b9565b6001600160a01b031614610aba5760405162461bcd60e51b815260040161079690613bb7565b600a5460ff83166000908152600f602052604090205463ffffffff918216911610610af75760405162461bcd60e51b815260040161079690613434565b50600a5460ff82166000908152600f60205260409020805463ffffffff191663ffffffff90921691909117905580610b2e81613ef4565b915050610a5f565b508181600201600b8282829054906101000a900460ff16610b579190613ccd565b825460ff9182166101009390930a928302919092021990911617905550600b546001600160a01b031663a9059cbb610b8d6106ac565b6064600a60ff8716610b9e30611699565b610ba89190613dd9565b610bb3906008613dd9565b610bbd9190613d42565b610bc79190613d42565b6040518363ffffffff1660e01b8152600401610be49291906131c9565b602060405180830381600087803b158015610bfe57600080fd5b505af1158015610c12573d6000803e3d6000fd5b505050506040513d601f19601f82011682018060405250810190610c369190612f28565b505050505050565b600a5463ffffffff1681565b60085490565b6001600160a01b038116600090815260156020526040902054610c855760405162461bcd60e51b8152600401610796906134b0565b600060145447610c959190613cb5565b6001600160a01b0383166000908152601660209081526040808320546013546015909352908320549394509192610ccc9085613dd9565b610cd69190613d42565b610ce09190613e37565b905080610cff5760405162461bcd60e51b815260040161079690613674565b6001600160a01b038316600090815260166020526040902054610d23908290613cb5565b6001600160a01b038416600090815260166020526040902055601454610d4a908290613cb5565b601455610d578382612339565b7fdf20fd1e76bc69d672e4814fafb2c449bba3a5369d8359adf9e05e6fde87b0568382604051610d889291906131c9565b60405180910390a1505050565b600b546001600160a01b031690565b610db5610daf6106ac565b826122b4565b610dd15760405162461bcd60e51b815260040161079690613a96565b61084e8383836123d5565b6000610de783611699565b8210610e055760405162461bcd60e51b815260040161079690613360565b506001600160a01b03919091166000908152600660209081526040808320938352929052205490565b601154600a1115610f4c5760116040518060800160405280610e4e6106ac565b6001600160a01b0316815260200185858080601f0160208091040260200160405190810160405280939291908181526020018383808284376000920182905250938552505050346001600160581b0316602080840191909152604090920181905283546001808201865594825290829020835160039092020180546001600160a01b0319166001600160a01b0390921691909117815582820151805193949193610f0093928501929190910190612c51565b5060408201516002909101805460609093015160ff16600160581b0260ff60581b196001600160581b039093166001600160581b0319909416939093179190911691909117905561084e565b600a60ff821610610f6f5760405162461bcd60e51b815260040161079690613717565b600060118260ff1681548110610f9557634e487b7160e01b600052603260045260246000fd5b6000918252602091829020604080516080810190915260039092020180546001600160a01b031682526001810180549293919291840191610fd590613e7a565b80601f016020809104026020016040519081016040528092919081815260200182805461100190613e7a565b801561104e5780601f106110235761010080835404028352916020019161104e565b820191906000526020600020905b81548152906001019060200180831161103157829003601f168201915b5050509183525050600291909101546001600160581b0381166020830152600160581b900460ff1660409182015281015190915061109390662386f26fc10000613cf2565b6001600160581b03163410156110bb5760405162461bcd60e51b815260040161079690613a6e565b6110d6816000015182604001516001600160581b0316612339565b60405180608001604052806110e96106ac565b6001600160a01b0316815260200185858080601f01602080910402602001604051908101604052809392919081815260200183838082843760009201829052509385525050506001600160581b03341660208301526040909101526011805460ff851690811061116957634e487b7160e01b600052603260045260246000fd5b600091825260209182902083516003929092020180546001600160a01b0319166001600160a01b0390921691909117815582820151805191926111b492600185019290910190612c51565b5060408201516002909101805460609093015160ff16600160581b0260ff60581b196001600160581b039093166001600160581b0319909416939093179190911691909117905550505050565b60135490565b61084e83838360405180602001604052806000815250611a57565b6000600e5460ff16600181111561124957634e487b7160e01b600052602160045260246000fd5b146112665760405162461bcd60e51b8152600401610796906138db565b6220f5806010546112779190613cb5565b4210156112965760405162461bcd60e51b815260040161079690613331565b6011546112b55760405162461bcd60e51b8152600401610796906139a8565b600e805460ff1916600117905542601055565b60006112d2610c4a565b82106112f05760405162461bcd60e51b815260040161079690613b1b565b6008828154811061131157634e487b7160e01b600052603260045260246000fd5b90600052602060002001549050919050565b8261132e33826122b4565b61134a5760405162461bcd60e51b815260040161079690613bb7565b6000848152600c602052604090208054600160201b900460ff166113805760405162461bcd60e51b815260040161079690613b67565b600a8360000b12158015611398575060648360000b13155b6113b45760405162461bcd60e51b81526004016107969061345b565b60006113bf85612502565b90506001600160a01b0381166113e75760405162461bcd60e51b81526004016107969061356d565b60008190506000816001600160a01b031663feaf968c6040518163ffffffff1660e01b815260040160a06040518083038186803b15801561142757600080fd5b505afa15801561143b573d6000803e3d6000fd5b505050506040513d601f19601f8201168201806040525081019061145f9190613108565b5050865460ff60201b19168755506002860180546001600160a01b039096166001600160a01b0319909616959095179094555050506003820155600401805460009390930b60ff1660ff1990931692909217909155505050565b6000818152600260205260408120546001600160a01b0316806106d55760405162461bcd60e51b81526004016107969061378d565b600b546000906001600160a01b03166323b872dd61150a6106ac565b30683635c9adc5dea000006040518463ffffffff1660e01b8152600401611533939291906131e2565b602060405180830381600087803b15801561154d57600080fd5b505af1158015611561573d6000803e3d6000fd5b505050506040513d601f19601f820116820180604052508101906115859190612f28565b506000611590610c4a565b61159b906001613cb5565b90506115ae6115a86106ac565b82612613565b6040805160e081018252600a5463ffffffff90811682526001602080840182815260008587018181526103e8606088019081526080880183815260a0890184815260c08a018581528c8652600c90975299842098518954955193511515600160281b0260ff60281b19941515600160201b0260ff60201b1992909a1663ffffffff199097169690961716979097179190911692909217865590519285019290925591516002840180546001600160a01b03929092166001600160a01b03199092169190911790559251600383015551600490910180549190920b60ff1660ff19909116179055905090565b60006001600160a01b0382166116c15760405162461bcd60e51b815260040161079690613743565b506001600160a01b031660009081526003602052604090205490565b6116e5612cd5565b6116ee82612229565b61170a5760405162461bcd60e51b815260040161079690613ae7565b506000908152600c60209081526040808320815160e081018352815463ffffffff8116825260ff600160201b82048116151595830195909552600160281b90049093161515918301919091526001810154606083015260028101546001600160a01b03166080830152600381015460a083015260040154820b820b90910b60c082015290565b6000601782815481106117b357634e487b7160e01b600052603260045260246000fd5b6000918252602090912001546001600160a01b031692915050565b6060600180546106ec90613e7a565b6000818152600c602052604090208054600160201b900460ff16156118145760405162461bcd60e51b815260040161079690613935565b600281015460408051633fabe5a360e21b815290516001600160a01b0390921691600091839163feaf968c9160048082019260a092909190829003018186803b15801561186057600080fd5b505afa158015611874573d6000803e3d6000fd5b505050506040513d601f19601f820116820180604052508101906118989190613108565b505050600385015460018601546004870154929450600093506103e892840b840b6118c38387613df8565b6118cd9190613d56565b6118d8906064613d56565b6118e29190613d56565b6118ec9190613d14565b6118f69190613d14565b84600101546119059190613c74565b9050600081126119275760405162461bcd60e51b815260040161079690613a16565b60006001850155600b546001600160a01b031663a9059cbb6119476106ac565b68056bc75e2d631000006040518363ffffffff1660e01b8152600401610be49291906131c9565b6001600160a01b031660009081526016602052604090205490565b6119916106ac565b6001600160a01b0316826001600160a01b031614156119c25760405162461bcd60e51b81526004016107969061353a565b80600560006119cf6106ac565b6001600160a01b03908116825260208083019390935260409182016000908120918716808252919093529120805460ff191692151592909217909155611a136106ac565b6001600160a01b03167f17307eab39ab6107e8899845ad3d59bd9653f200f220920489ca2b5937696c3183604051611a4b91906132e2565b60405180910390a35050565b611a68611a626106ac565b836122b4565b611a845760405162461bcd60e51b815260040161079690613a96565b611a9084848484612631565b50505050565b6001600e5460ff166001811115611abd57634e487b7160e01b600052602160045260246000fd5b14611ada5760405162461bcd60e51b815260040161079690613a41565b6203f480601054611aeb9190613cb5565b421015611b0a5760405162461bcd60e51b8152600401610796906137fc565b600e805460ff1916905542601055600080805b60115460ff82161015611bd1578260ff1660118260ff1681548110611b5257634e487b7160e01b600052603260045260246000fd5b6000918252602090912060039091020160020154600160581b900460ff161115611bbf5760118160ff1681548110611b9a57634e487b7160e01b600052603260045260246000fd5b9060005260206000209060030201600201600b9054906101000a900460ff1692508091505b80611bc981613ef4565b915050611b1d565b50600060118260ff1681548110611bf857634e487b7160e01b600052603260045260246000fd5b6000918252602091829020604080516080810190915260039092020180546001600160a01b031682526001810180549293919291840191611c3890613e7a565b80601f0160208091040260200160405190810160405280929190818152602001828054611c6490613e7a565b8015611cb15780601f10611c8657610100808354040283529160200191611cb1565b820191906000526020600020905b815481529060010190602001808311611c9457829003601f168201915b5050509183525050600291909101546001600160581b0381166020830152600160581b900460ff16604090910152600b5481519192506001600160a01b03169063a9059cbb90600a611d0230611699565b611d0c9190613d42565b6040518363ffffffff1660e01b8152600401611d299291906131c9565b602060405180830381600087803b158015611d4357600080fd5b505af1158015611d57573d6000803e3d6000fd5b505050506040513d601f19601f82011682018060405250810190611d7b9190612f28565b50600a805463ffffffff16906000611d9283613ed0565b82546101009290920a63ffffffff818102199093169183160217909155602083810151600a54909216600090815260128252604090208251611a909450909290910190612c51565b600e5460ff1681565b6000818152600c60209081526040808320805460019091015463ffffffff909116808552601290935290832080546060949190611e1f90613e7a565b80601f0160208091040260200160405190810160405280929190818152602001828054611e4b90613e7a565b8015611e985780601f10611e6d57610100808354040283529160200191611e98565b820191906000526020600020905b815481529060010190602001808311611e7b57829003601f168201915b5050505050905080611ea983612664565b604051602001611eba929190613183565b6040516020818303038152906040529350505050919050565b60606011805480602002602001604051908101604052809291908181526020016000905b82821015611fff57600084815260209081902060408051608081019091526003850290910180546001600160a01b031682526001810180549293919291840191611f4090613e7a565b80601f0160208091040260200160405190810160405280929190818152602001828054611f6c90613e7a565b8015611fb95780601f10611f8e57610100808354040283529160200191611fb9565b820191906000526020600020905b815481529060010190602001808311611f9c57829003601f168201915b5050509183525050600291909101546001600160581b038116602080840191909152600160581b90910460ff166040909201919091529082526001929092019101611ef7565b50505050905090565b6001600160a01b031660009081526015602052604090205490565b8161202e33826122b4565b61204a5760405162461bcd60e51b815260040161079690613bb7565b6000600e5460ff16600181111561207157634e487b7160e01b600052602160045260246000fd5b1461208e5760405162461bcd60e51b8152600401610796906138db565b606460ff8316106120b15760405162461bcd60e51b81526004016107969061390b565b6000838152600c602052604090208054600160281b900460ff16156120e85760405162461bcd60e51b815260040161079690613bda565b60ff83166000908152600d6020908152604080832054808452600c909252909120600a54835463ffffffff9081169116146121355760405162461bcd60e51b8152600401610796906137d6565b8054600160201b900460ff1680156121595750600a54815463ffffffff9081169116145b156121855780600101548360010154136121855760405162461bcd60e51b8152600401610796906138aa565b805460ff60281b19908116909155825416600160281b17909155505060ff166000908152600d6020526040902055565b60145490565b6001600160a01b03918216600090815260056020908152604080832093909416825291909152205460ff1690565b60006001600160e01b031982166380ac58cd60e01b148061221a57506001600160e01b03198216635b5e139f60e01b145b806106d557506106d58261277e565b6000908152600260205260409020546001600160a01b0316151590565b600081815260046020526040902080546001600160a01b0319166001600160a01b038416908117909155819061227b826114b9565b6001600160a01b03167f8c5be1e5ebec7d5bd14f71427d1e84f3dd0314c0f7b2291e5b200ac8c7c3b92560405160405180910390a45050565b60006122bf82612229565b6122db5760405162461bcd60e51b815260040161079690613628565b60006122e6836114b9565b9050806001600160a01b0316846001600160a01b031614806123215750836001600160a01b03166123168461076f565b6001600160a01b0316145b80612331575061233181856121bb565b949350505050565b804710156123595760405162461bcd60e51b8152600401610796906135f1565b6000826001600160a01b031682604051612372906131b2565b60006040518083038185875af1925050503d80600081146123af576040519150601f19603f3d011682016040523d82523d6000602084013e6123b4565b606091505b505090508061084e5760405162461bcd60e51b815260040161079690613597565b826001600160a01b03166123e8826114b9565b6001600160a01b03161461240e5760405162461bcd60e51b81526004016107969061395f565b6001600160a01b0382166124345760405162461bcd60e51b8152600401610796906134f6565b61243f838383612797565b61244a600082612246565b6001600160a01b0383166000908152600360205260408120805460019290612473908490613e37565b90915550506001600160a01b03821660009081526003602052604081208054600192906124a1908490613cb5565b909155505060008181526002602052604080822080546001600160a01b0319166001600160a01b0386811691821790925591518493918716917fddf252ad1be2c89b69c2b068fc378daa952ba7f163c4a11628f55a4df523b3ef91a4505050565b600a54604051630178b8bf60e01b81526000918291600160201b9091046001600160a01b031690630178b8bf9061253d9086906004016132ed565b60206040518083038186803b15801561255557600080fd5b505afa158015612569573d6000803e3d6000fd5b505050506040513d601f19601f8201168201806040525081019061258d9190612d6d565b604051631d9dabef60e11b81529091506001600160a01b03821690633b3b57de906125bc9086906004016132ed565b60206040518083038186803b1580156125d457600080fd5b505afa1580156125e8573d6000803e3d6000fd5b505050506040513d601f19601f8201168201806040525081019061260c9190612d6d565b9392505050565b61262d828260405180602001604052806000815250612820565b5050565b61263c8484846123d5565b61264884848484612853565b611a905760405162461bcd60e51b8152600401610796906133ab565b60608161268957506040805180820190915260018152600360fc1b60208201526106d8565b8160005b81156126b3578061269d81613eb5565b91506126ac9050600a83613d42565b915061268d565b6000816001600160401b038111156126db57634e487b7160e01b600052604160045260246000fd5b6040519080825280601f01601f191660200182016040528015612705576020820181803683370190505b5090505b84156123315761271a600183613e37565b9150612727600a86613f14565b612732906030613cb5565b60f81b81838151811061275557634e487b7160e01b600052603260045260246000fd5b60200101906001600160f81b031916908160001a905350612777600a86613d42565b9450612709565b6001600160e01b031981166301ffc9a760e01b14919050565b6127a283838361084e565b6001600160a01b0383166127be576127b98161296e565b6127e1565b816001600160a01b0316836001600160a01b0316146127e1576127e183826129b2565b6001600160a01b0382166127fd576127f881612a4f565b61084e565b826001600160a01b0316826001600160a01b03161461084e5761084e8282612b28565b61282a8383612b6c565b6128376000848484612853565b61084e5760405162461bcd60e51b8152600401610796906133ab565b6000612867846001600160a01b0316612c4b565b1561296357836001600160a01b031663150b7a026128836106ac565b8786866040518563ffffffff1660e01b81526004016128a59493929190613206565b602060405180830381600087803b1580156128bf57600080fd5b505af19250505080156128ef575060408051601f3d908101601f191682019092526128ec91810190612f60565b60015b612949573d80801561291d576040519150601f19603f3d011682016040523d82523d6000602084013e612922565b606091505b5080516129415760405162461bcd60e51b8152600401610796906133ab565b805181602001fd5b6001600160e01b031916630a85bd0160e11b149050612331565b506001949350505050565b600880546000838152600960205260408120829055600182018355919091527ff3f7a9fe364faab93b216da50a3214154f22a0a2b415b23a84c8169e8b636ee30155565b600060016129bf84611699565b6129c99190613e37565b600083815260076020526040902054909150808214612a1c576001600160a01b03841660009081526006602090815260408083208584528252808320548484528184208190558352600790915290208190555b5060009182526007602090815260408084208490556001600160a01b039094168352600681528383209183525290812055565b600854600090612a6190600190613e37565b60008381526009602052604081205460088054939450909284908110612a9757634e487b7160e01b600052603260045260246000fd5b906000526020600020015490508060088381548110612ac657634e487b7160e01b600052603260045260246000fd5b6000918252602080832090910192909255828152600990915260408082208490558582528120556008805480612b0c57634e487b7160e01b600052603160045260246000fd5b6001900381819060005260206000200160009055905550505050565b6000612b3383611699565b6001600160a01b039093166000908152600660209081526040808320868452825280832085905593825260079052919091209190915550565b6001600160a01b038216612b925760405162461bcd60e51b815260040161079690613829565b612b9b81612229565b15612bb85760405162461bcd60e51b8152600401610796906133fd565b612bc460008383612797565b6001600160a01b0382166000908152600360205260408120805460019290612bed908490613cb5565b909155505060008181526002602052604080822080546001600160a01b0319166001600160a01b03861690811790915590518392907fddf252ad1be2c89b69c2b068fc378daa952ba7f163c4a11628f55a4df523b3ef908290a45050565b3b151590565b828054612c5d90613e7a565b90600052602060002090601f016020900481019282612c7f5760008555612cc5565b82601f10612c9857805160ff1916838001178555612cc5565b82800160010185558215612cc5579182015b82811115612cc5578251825591602001919060010190612caa565b50612cd1929150612d11565b5090565b6040805160e081018252600080825260208201819052918101829052606081018290526080810182905260a0810182905260c081019190915290565b5b80821115612cd15760008155600101612d12565b803560ff811681146106d857600080fd5b805169ffffffffffffffffffff811681146106d857600080fd5b600060208284031215612d62578081fd5b813561260c81613f6a565b600060208284031215612d7e578081fd5b815161260c81613f6a565b60008060408385031215612d9b578081fd5b8235612da681613f6a565b91506020830135612db681613f6a565b809150509250929050565b600080600060608486031215612dd5578081fd5b8335612de081613f6a565b92506020840135612df081613f6a565b929592945050506040919091013590565b60008060008060808587031215612e16578081fd5b8435612e2181613f6a565b9350602085810135612e3281613f6a565b93506040860135925060608601356001600160401b0380821115612e54578384fd5b818801915088601f830112612e67578384fd5b813581811115612e7957612e79613f54565b604051601f8201601f1916810185018381118282101715612e9c57612e9c613f54565b60405281815283820185018b1015612eb2578586fd5b81858501868301379081019093019390935250939692955090935050565b60008060408385031215612ee2578182fd5b8235612eed81613f6a565b91506020830135612db681613f82565b60008060408385031215612f0f578182fd5b8235612f1a81613f6a565b946020939093013593505050565b600060208284031215612f39578081fd5b815161260c81613f82565b600060208284031215612f55578081fd5b813561260c81613f90565b600060208284031215612f71578081fd5b815161260c81613f90565b600080600060408486031215612f90578081fd5b83356001600160401b0380821115612fa6578283fd5b818601915086601f830112612fb9578283fd5b813581811115612fc7578384fd5b876020828501011115612fd8578384fd5b602092830195509350612fee9186019050612d26565b90509250925092565b600060208284031215613008578081fd5b5035919050565b600080600060408486031215613023578081fd5b8335925060208401356001600160401b0380821115613040578283fd5b818601915086601f830112613053578283fd5b813581811115613061578384fd5b8760208083028501011115613074578384fd5b6020830194508093505050509250925092565b60008060006060848603121561309b578081fd5b8335925060208401359150604084013580820b81146130b8578182fd5b809150509250925092565b600080604083850312156130d5578182fd5b823591506130e560208401612d26565b90509250929050565b6000602082840312156130ff578081fd5b61260c82612d26565b600080600080600060a0868803121561311f578283fd5b61312886612d37565b945060208601519350604086015192506060860151915061314b60808701612d37565b90509295509295909350565b6000815180845261316f816020860160208601613e4e565b601f01601f19169290920160200192915050565b60008351613195818460208801613e4e565b8351908301906131a9818360208801613e4e565b01949350505050565b90565b6001600160a01b0391909116815260200190565b6001600160a01b03929092168252602082015260400190565b6001600160a01b039384168152919092166020820152604081019190915260600190565b6001600160a01b038581168252841660208201526040810183905260806060820181905260009061323990830184613157565b9695505050505050565b60208082528251828201819052600091906040908185019080840286018301878501865b838110156132d457888303603f19018552815180516001600160a01b03168452878101516080898601819052906132a082870182613157565b838a01516001600160581b0316878b015260609384015160ff16939096019290925250509386019390860190600101613267565b509098975050505050505050565b901515815260200190565b90815260200190565b602081016002831061331857634e487b7160e01b600052602160045260246000fd5b91905290565b60006020825261260c6020830184613157565b6020808252601590820152746e6f742079657420746f20737461727420766f746560581b604082015260600190565b6020808252602b908201527f455243373231456e756d657261626c653a206f776e657220696e646578206f7560408201526a74206f6620626f756e647360a81b606082015260800190565b60208082526032908201527f4552433732313a207472616e7366657220746f206e6f6e20455243373231526560408201527131b2b4bb32b91034b6b83632b6b2b73a32b960711b606082015260800190565b6020808252601c908201527f4552433732313a20746f6b656e20616c7265616479206d696e74656400000000604082015260600190565b6020808252600d908201526c185b1c9958591e481d9bdd1959609a1b604082015260600190565b60208082526010908201526f696e76616c6964206c6576657261676560801b604082015260600190565b602080825260119082015270393ab71037baba1037b31036b0b933b4b760791b604082015260600190565b60208082526026908201527f5061796d656e7453706c69747465723a206163636f756e7420686173206e6f2060408201526573686172657360d01b606082015260800190565b60208082526024908201527f4552433732313a207472616e7366657220746f20746865207a65726f206164646040820152637265737360e01b606082015260800190565b60208082526019908201527822a9219b99189d1030b8383937bb32903a379031b0b63632b960391b604082015260600190565b60208082526010908201526f0d2dcecc2d8d2c840dcc2dacad0c2e6d60831b604082015260600190565b6020808252603a908201527f416464726573733a20756e61626c6520746f2073656e642076616c75652c20726040820152791958da5c1a595b9d081b585e481a185d99481c995d995c9d195960321b606082015260800190565b6020808252601d908201527f416464726573733a20696e73756666696369656e742062616c616e6365000000604082015260600190565b6020808252602c908201527f4552433732313a206f70657261746f7220717565727920666f72206e6f6e657860408201526b34b9ba32b73a103a37b5b2b760a11b606082015260800190565b6020808252602b908201527f5061796d656e7453706c69747465723a206163636f756e74206973206e6f742060408201526a191d59481c185e5b595b9d60aa1b606082015260800190565b60208082526038908201527f4552433732313a20617070726f76652063616c6c6572206973206e6f74206f776040820152771b995c881b9bdc88185c1c1c9bdd995908199bdc88185b1b60421b606082015260800190565b602080825260129082015271696e646578206f7574206f662072616e676560701b604082015260600190565b6020808252602a908201527f4552433732313a2062616c616e636520717565727920666f7220746865207a65604082015269726f206164647265737360b01b606082015260800190565b60208082526029908201527f4552433732313a206f776e657220717565727920666f72206e6f6e657869737460408201526832b73a103a37b5b2b760b91b606082015260800190565b6020808252600c908201526b189d5b1b081d1bdbc81bdb1960a21b604082015260600190565b6020808252601390820152726e6f742079657420746f20656e6420766f746560681b604082015260600190565b6020808252818101527f4552433732313a206d696e7420746f20746865207a65726f2061646472657373604082015260600190565b6020808252602c908201527f4552433732313a20617070726f76656420717565727920666f72206e6f6e657860408201526b34b9ba32b73a103a37b5b2b760a11b606082015260800190565b60208082526017908201527661747461636b65722063616e2774206f76657274616b6560481b604082015260600190565b6020808252601690820152756e6f7420696e2070726f706f73696e6720737461676560501b604082015260600190565b60208082526010908201526f1bdd5d081bd98819dc985cdcdb185b9960821b604082015260600190565b60208082526010908201526f1cda1bdd5b19081899481bdc195b995960821b604082015260600190565b60208082526029908201527f4552433732313a207472616e73666572206f6620746f6b656e2074686174206960408201526839903737ba1037bbb760b91b606082015260800190565b6020808252601390820152726e6f2070726f706f73616c20746f20766f746560681b604082015260600190565b60208082526021908201527f4552433732313a20617070726f76616c20746f2063757272656e74206f776e656040820152603960f91b606082015260800190565b6020808252601190820152703737ba1037baba1037b31036b0b933b4b760791b604082015260600190565b6020808252601390820152726e6f7420696e20766f74696e6720737461676560681b604082015260600190565b6020808252600e908201526d1b9bdd08195b9bdd59da08189a5960921b604082015260600190565b60208082526031908201527f4552433732313a207472616e736665722063616c6c6572206973206e6f74206f6040820152701ddb995c881b9bdc88185c1c1c9bdd9959607a1b606082015260800190565b6020808252601a90820152791c5d595c9e48199bdc881b9bdb995e1a5cdd195b9d08189d5b1b60321b604082015260600190565b6020808252602c908201527f455243373231456e756d657261626c653a20676c6f62616c20696e646578206f60408201526b7574206f6620626f756e647360a01b606082015260800190565b6020808252600e908201526d185b1c9958591e481bdc195b995960921b604082015260600190565b6020808252600e908201526d185b1c9958591e4818db1bdcd95960921b604082015260600190565b6020808252600990820152683737ba1037bbb732b960b91b604082015260600190565b60208082526010908201526f185b1c9958591e481bdb88199a595b1960821b604082015260600190565b815163ffffffff168152602080830151151590820152604080830151151590820152606080830151908201526080808301516001600160a01b03169082015260a0808301519082015260c09182015160000b9181019190915260e00190565b63ffffffff91909116815260200190565b600080821280156001600160ff1b0384900385131615613c9657613c96613f28565b600160ff1b8390038412811615613caf57613caf613f28565b50500190565b60008219821115613cc857613cc8613f28565b500190565b600060ff821660ff84168060ff03821115613cea57613cea613f28565b019392505050565b60006001600160581b038281168482168083038211156131a9576131a9613f28565b600082613d2357613d23613f3e565b600160ff1b821460001984141615613d3d57613d3d613f28565b500590565b600082613d5157613d51613f3e565b500490565b60006001600160ff1b0381841382841380821686840486111615613d7c57613d7c613f28565b600160ff1b84871282811687830589121615613d9a57613d9a613f28565b858712925087820587128484161615613db557613db5613f28565b87850587128184161615613dcb57613dcb613f28565b505050929093029392505050565b6000816000190483118215151615613df357613df3613f28565b500290565b60008083128015600160ff1b850184121615613e1657613e16613f28565b6001600160ff1b0384018313811615613e3157613e31613f28565b50500390565b600082821015613e4957613e49613f28565b500390565b60005b83811015613e69578181015183820152602001613e51565b83811115611a905750506000910152565b600281046001821680613e8e57607f821691505b60208210811415613eaf57634e487b7160e01b600052602260045260246000fd5b50919050565b6000600019821415613ec957613ec9613f28565b5060010190565b600063ffffffff80831681811415613eea57613eea613f28565b6001019392505050565b600060ff821660ff811415613f0b57613f0b613f28565b60010192915050565b600082613f2357613f23613f3e565b500690565b634e487b7160e01b600052601160045260246000fd5b634e487b7160e01b600052601260045260246000fd5b634e487b7160e01b600052604160045260246000fd5b6001600160a01b0381168114613f7f57600080fd5b50565b8015158114613f7f57600080fd5b6001600160e01b031981168114613f7f57600080fdfea264697066735822122059f69bace850f8e3076b66c0afabda9011b26a51b3305f3c18e4ec255330a42064736f6c6343000800003360806040523480156200001157600080fd5b5060405162000d1d38038062000d1d83398101604081905262000034916200028e565b6040518060400160405280601581526020017f42756c6c6f737365756d416d697373696f6e4665650000000000000000000000815250604051806040016040528060038152602001622120a360e91b81525081600390805190602001906200009e929190620001e8565b508051620000b4906004906020840190620001e8565b505050620000de620000cb620000fd60201b60201c565b6b1027e72f1f1281308800000062000101565b620000f6816b1027e72f1f1281308800000062000101565b5062000360565b3390565b6001600160a01b038216620001335760405162461bcd60e51b81526004016200012a90620002be565b60405180910390fd5b6200014160008383620001e3565b8060026000828254620001559190620002fe565b90915550506001600160a01b0382166000908152602081905260408120805483929062000184908490620002fe565b90915550506040516001600160a01b038316906000907fddf252ad1be2c89b69c2b068fc378daa952ba7f163c4a11628f55a4df523b3ef90620001c9908590620002f5565b60405180910390a3620001df60008383620001e3565b5050565b505050565b828054620001f69062000323565b90600052602060002090601f0160209004810192826200021a576000855562000265565b82601f106200023557805160ff191683800117855562000265565b8280016001018555821562000265579182015b828111156200026557825182559160200191906001019062000248565b506200027392915062000277565b5090565b5b8082111562000273576000815560010162000278565b600060208284031215620002a0578081fd5b81516001600160a01b0381168114620002b7578182fd5b9392505050565b6020808252601f908201527f45524332303a206d696e7420746f20746865207a65726f206164647265737300604082015260600190565b90815260200190565b600082198211156200031e57634e487b7160e01b81526011600452602481fd5b500190565b6002810460018216806200033857607f821691505b602082108114156200035a57634e487b7160e01b600052602260045260246000fd5b50919050565b6109ad80620003706000396000f3fe608060405234801561001057600080fd5b50600436106100995760003560e01c806306fdde031461009e578063095ea7b3146100bc57806318160ddd146100dc57806323b872dd146100f1578063313ce56714610104578063395093511461011957806370a082311461012c57806395d89b411461013f578063a457c2d714610147578063a9059cbb1461015a578063dd62ed3e1461016d575b600080fd5b6100a6610180565b6040516100b391906106cd565b60405180910390f35b6100cf6100ca366004610699565b610212565b6040516100b391906106c2565b6100e461022f565b6040516100b39190610901565b6100cf6100ff36600461065e565b610235565b61010c6102ce565b6040516100b3919061090a565b6100cf610127366004610699565b6102d3565b6100e461013a36600461060b565b610327565b6100a6610346565b6100cf610155366004610699565b610355565b6100cf610168366004610699565b6103ce565b6100e461017b36600461062c565b6103e2565b60606003805461018f9061093c565b80601f01602080910402602001604051908101604052809291908181526020018280546101bb9061093c565b80156102085780601f106101dd57610100808354040283529160200191610208565b820191906000526020600020905b8154815290600101906020018083116101eb57829003601f168201915b5050505050905090565b600061022661021f61040d565b8484610411565b50600192915050565b60025490565b60006102428484846104c5565b6001600160a01b03841660009081526001602052604081208161026361040d565b6001600160a01b03166001600160a01b03168152602001908152602001600020549050828110156102af5760405162461bcd60e51b81526004016102a6906107eb565b60405180910390fd5b6102c3856102bb61040d565b858403610411565b506001949350505050565b601290565b60006102266102e061040d565b8484600160006102ee61040d565b6001600160a01b03908116825260208083019390935260409182016000908120918b16815292529020546103229190610918565b610411565b6001600160a01b0381166000908152602081905260409020545b919050565b60606004805461018f9061093c565b6000806001600061036461040d565b6001600160a01b03908116825260208083019390935260409182016000908120918816815292529020549050828110156103b05760405162461bcd60e51b81526004016102a6906108bc565b6103c46103bb61040d565b85858403610411565b5060019392505050565b60006102266103db61040d565b84846104c5565b6001600160a01b03918216600090815260016020908152604080832093909416825291909152205490565b3390565b6001600160a01b0383166104375760405162461bcd60e51b81526004016102a690610878565b6001600160a01b03821661045d5760405162461bcd60e51b81526004016102a690610763565b6001600160a01b0380841660008181526001602090815260408083209487168084529490915290819020849055517f8c5be1e5ebec7d5bd14f71427d1e84f3dd0314c0f7b2291e5b200ac8c7c3b925906104b8908590610901565b60405180910390a3505050565b6001600160a01b0383166104eb5760405162461bcd60e51b81526004016102a690610833565b6001600160a01b0382166105115760405162461bcd60e51b81526004016102a690610720565b61051c8383836105ef565b6001600160a01b038316600090815260208190526040902054818110156105555760405162461bcd60e51b81526004016102a6906107a5565b6001600160a01b0380851660009081526020819052604080822085850390559185168152908120805484929061058c908490610918565b92505081905550826001600160a01b0316846001600160a01b03167fddf252ad1be2c89b69c2b068fc378daa952ba7f163c4a11628f55a4df523b3ef846040516105d69190610901565b60405180910390a36105e98484846105ef565b50505050565b505050565b80356001600160a01b038116811461034157600080fd5b60006020828403121561061c578081fd5b610625826105f4565b9392505050565b6000806040838503121561063e578081fd5b610647836105f4565b9150610655602084016105f4565b90509250929050565b600080600060608486031215610672578081fd5b61067b846105f4565b9250610689602085016105f4565b9150604084013590509250925092565b600080604083850312156106ab578182fd5b6106b4836105f4565b946020939093013593505050565b901515815260200190565b6000602080835283518082850152825b818110156106f9578581018301518582016040015282016106dd565b8181111561070a5783604083870101525b50601f01601f1916929092016040019392505050565b60208082526023908201527f45524332303a207472616e7366657220746f20746865207a65726f206164647260408201526265737360e81b606082015260800190565b60208082526022908201527f45524332303a20617070726f766520746f20746865207a65726f206164647265604082015261737360f01b606082015260800190565b60208082526026908201527f45524332303a207472616e7366657220616d6f756e7420657863656564732062604082015265616c616e636560d01b606082015260800190565b60208082526028908201527f45524332303a207472616e7366657220616d6f756e74206578636565647320616040820152676c6c6f77616e636560c01b606082015260800190565b60208082526025908201527f45524332303a207472616e736665722066726f6d20746865207a65726f206164604082015264647265737360d81b606082015260800190565b60208082526024908201527f45524332303a20617070726f76652066726f6d20746865207a65726f206164646040820152637265737360e01b606082015260800190565b60208082526025908201527f45524332303a2064656372656173656420616c6c6f77616e63652062656c6f77604082015264207a65726f60d81b606082015260800190565b90815260200190565b60ff91909116815260200190565b6000821982111561093757634e487b7160e01b81526011600452602481fd5b500190565b60028104600182168061095057607f821691505b6020821081141561097157634e487b7160e01b600052602260045260246000fd5b5091905056fea2646970667358221220bff2d50fb5887067d1285fea5ac8f6d002d431ee4f230531efcb33d3e962f29464736f6c63430008000033",
  "devdoc": {
    "kind": "dev",
    "methods": {
      "approve(address,uint256)": {
        "details": "See {IERC721-approve}."
      },
      "balanceOf(address)": {
        "details": "See {IERC721-balanceOf}."
      },
      "constructor": {
        "details": "Setup PaymentSplitter"
      },
      "getApproved(uint256)": {
        "details": "See {IERC721-getApproved}."
      },
      "isApprovedForAll(address,address)": {
        "details": "See {IERC721-isApprovedForAll}."
      },
      "name()": {
        "details": "See {IERC721Metadata-name}."
      },
      "ownerOf(uint256)": {
        "details": "See {IERC721-ownerOf}."
      },
      "payee(uint256)": {
        "details": "Getter for the address of the payee number `index`."
      },
      "release(address)": {
        "details": "Triggers a transfer to `account` of the amount of Ether they are owed, according to their percentage of the total shares and their previous withdrawals."
      },
      "released(address)": {
        "details": "Getter for the amount of Ether already released to a payee."
      },
      "safeTransferFrom(address,address,uint256)": {
        "details": "See {IERC721-safeTransferFrom}."
      },
      "safeTransferFrom(address,address,uint256,bytes)": {
        "details": "See {IERC721-safeTransferFrom}."
      },
      "setApprovalForAll(address,bool)": {
        "details": "See {IERC721-setApprovalForAll}."
      },
      "shares(address)": {
        "details": "Getter for the amount of shares held by an account."
      },
      "supportsInterface(bytes4)": {
        "details": "See {IERC165-supportsInterface}."
      },
      "symbol()": {
        "details": "See {IERC721Metadata-symbol}."
      },
      "tokenByIndex(uint256)": {
        "details": "See {IERC721Enumerable-tokenByIndex}."
      },
      "tokenOfOwnerByIndex(address,uint256)": {
        "details": "See {IERC721Enumerable-tokenOfOwnerByIndex}."
      },
      "totalReleased()": {
        "details": "Getter for the total amount of Ether already released."
      },
      "totalShares()": {
        "details": "Getter for the total shares held by payees."
      },
      "totalSupply()": {
        "details": "See {IERC721Enumerable-totalSupply}."
      },
      "transferFrom(address,address,uint256)": {
        "details": "See {IERC721-transferFrom}."
      }
    },
    "version": 1
  },
  "userdoc": {
    "kind": "user",
    "methods": {
      "breed()": {
        "notice": "see {BullosseumInterface-breed}"
      },
      "close(uint256)": {
        "notice": "See {BullosseumInterface-close}."
      },
      "endVote()": {
        "notice": "See {BullosseumInterface-endVote}"
      },
      "generation()": {
        "notice": "Generation of bulls"
      },
      "getAddrOfBAF()": {
        "notice": "Return address of BAF contract"
      },
      "getAllProposals()": {
        "notice": "Return all proposals' contents"
      },
      "getBullData(uint256)": {
        "notice": "Return bull data given bull ID"
      },
      "getBullOnField(uint8)": {
        "notice": "Return bull ID given field ID"
      },
      "occupy(uint256,uint8)": {
        "notice": "See {BullosseumInterface-occupy}"
      },
      "open(uint256,bytes32,int8)": {
        "notice": "See {BullosseumInterface-open}."
      },
      "propose(string,uint8)": {
        "notice": "See {BullosseumInterface-propose}"
      },
      "report(uint256)": {
        "notice": "See {BullosseumInterface-report}."
      },
      "stage()": {
        "notice": "Stage of proposing or voting"
      },
      "startVote()": {
        "notice": "See {BullosseumInterface-startVote}"
      },
      "tokenURI(uint256)": {
        "notice": "Customized {ERC721-tokenURI}"
      },
      "vote(uint256,uint8[])": {
        "notice": "See {BullosseumInterface-vote}"
      }
    },
    "version": 1
  },
  "storageLayout": {
    "storage": [
      {
        "astId": 1072,
        "contract": "contracts/Bullosseum.sol:Bullosseum",
        "label": "_name",
        "offset": 0,
        "slot": "0",
        "type": "t_string_storage"
      },
      {
        "astId": 1074,
        "contract": "contracts/Bullosseum.sol:Bullosseum",
        "label": "_symbol",
        "offset": 0,
        "slot": "1",
        "type": "t_string_storage"
      },
      {
        "astId": 1078,
        "contract": "contracts/Bullosseum.sol:Bullosseum",
        "label": "_owners",
        "offset": 0,
        "slot": "2",
        "type": "t_mapping(t_uint256,t_address)"
      },
      {
        "astId": 1082,
        "contract": "contracts/Bullosseum.sol:Bullosseum",
        "label": "_balances",
        "offset": 0,
        "slot": "3",
        "type": "t_mapping(t_address,t_uint256)"
      },
      {
        "astId": 1086,
        "contract": "contracts/Bullosseum.sol:Bullosseum",
        "label": "_tokenApprovals",
        "offset": 0,
        "slot": "4",
        "type": "t_mapping(t_uint256,t_address)"
      },
      {
        "astId": 1092,
        "contract": "contracts/Bullosseum.sol:Bullosseum",
        "label": "_operatorApprovals",
        "offset": 0,
        "slot": "5",
        "type": "t_mapping(t_address,t_mapping(t_address,t_bool))"
      },
      {
        "astId": 2011,
        "contract": "contracts/Bullosseum.sol:Bullosseum",
        "label": "_ownedTokens",
        "offset": 0,
        "slot": "6",
        "type": "t_mapping(t_address,t_mapping(t_uint256,t_uint256))"
      },
      {
        "astId": 2015,
        "contract": "contracts/Bullosseum.sol:Bullosseum",
        "label": "_ownedTokensIndex",
        "offset": 0,
        "slot": "7",
        "type": "t_mapping(t_uint256,t_uint256)"
      },
      {
        "astId": 2018,
        "contract": "contracts/Bullosseum.sol:Bullosseum",
        "label": "_allTokens",
        "offset": 0,
        "slot": "8",
        "type": "t_array(t_uint256)dyn_storage"
      },
      {
        "astId": 2022,
        "contract": "contracts/Bullosseum.sol:Bullosseum",
        "label": "_allTokensIndex",
        "offset": 0,
        "slot": "9",
        "type": "t_mapping(t_uint256,t_uint256)"
      },
      {
        "astId": 3597,
        "contract": "contracts/Bullosseum.sol:Bullosseum",
        "label": "generation",
        "offset": 0,
        "slot": "10",
        "type": "t_uint32"
      },
      {
        "astId": 3601,
        "contract": "contracts/Bullosseum.sol:Bullosseum",
        "label": "_ens",
        "offset": 4,
        "slot": "10",
        "type": "t_contract(ENS)3580"
      },
      {
        "astId": 3605,
        "contract": "contracts/Bullosseum.sol:Bullosseum",
        "label": "_bafContract",
        "offset": 0,
        "slot": "11",
        "type": "t_contract(IERC20)1021"
      },
      {
        "astId": 3611,
        "contract": "contracts/Bullosseum.sol:Bullosseum",
        "label": "_bullData",
        "offset": 0,
        "slot": "12",
        "type": "t_mapping(t_uint256,t_struct(BullData)3626_storage)"
      },
      {
        "astId": 3406,
        "contract": "contracts/Bullosseum.sol:Bullosseum",
        "label": "_bullIdOnField",
        "offset": 0,
        "slot": "13",
        "type": "t_mapping(t_uint8,t_uint256)"
      },
      {
        "astId": 3410,
        "contract": "contracts/Bullosseum.sol:Bullosseum",
        "label": "stage",
        "offset": 0,
        "slot": "14",
        "type": "t_enum(Stage)3413"
      },
      {
        "astId": 4040,
        "contract": "contracts/Bullosseum.sol:Bullosseum",
        "label": "_fieldGeneration",
        "offset": 0,
        "slot": "15",
        "type": "t_mapping(t_uint8,t_uint32)"
      },
      {
        "astId": 4043,
        "contract": "contracts/Bullosseum.sol:Bullosseum",
        "label": "_latestUpdateTime",
        "offset": 0,
        "slot": "16",
        "type": "t_uint256"
      },
      {
        "astId": 4057,
        "contract": "contracts/Bullosseum.sol:Bullosseum",
        "label": "_proposals",
        "offset": 0,
        "slot": "17",
        "type": "t_array(t_struct(Proposal)4052_storage)dyn_storage"
      },
      {
        "astId": 4062,
        "contract": "contracts/Bullosseum.sol:Bullosseum",
        "label": "_baseURIofGeneration",
        "offset": 0,
        "slot": "18",
        "type": "t_mapping(t_uint32,t_string_storage)"
      },
      {
        "astId": 130,
        "contract": "contracts/Bullosseum.sol:Bullosseum",
        "label": "_totalShares",
        "offset": 0,
        "slot": "19",
        "type": "t_uint256"
      },
      {
        "astId": 132,
        "contract": "contracts/Bullosseum.sol:Bullosseum",
        "label": "_totalReleased",
        "offset": 0,
        "slot": "20",
        "type": "t_uint256"
      },
      {
        "astId": 136,
        "contract": "contracts/Bullosseum.sol:Bullosseum",
        "label": "_shares",
        "offset": 0,
        "slot": "21",
        "type": "t_mapping(t_address,t_uint256)"
      },
      {
        "astId": 140,
        "contract": "contracts/Bullosseum.sol:Bullosseum",
        "label": "_released",
        "offset": 0,
        "slot": "22",
        "type": "t_mapping(t_address,t_uint256)"
      },
      {
        "astId": 143,
        "contract": "contracts/Bullosseum.sol:Bullosseum",
        "label": "_payees",
        "offset": 0,
        "slot": "23",
        "type": "t_array(t_address)dyn_storage"
      }
    ],
    "types": {
      "t_address": {
        "encoding": "inplace",
        "label": "address",
        "numberOfBytes": "20"
      },
      "t_array(t_address)dyn_storage": {
        "base": "t_address",
        "encoding": "dynamic_array",
        "label": "address[]",
        "numberOfBytes": "32"
      },
      "t_array(t_struct(Proposal)4052_storage)dyn_storage": {
        "base": "t_struct(Proposal)4052_storage",
        "encoding": "dynamic_array",
        "label": "struct BullosseumGovernance.Proposal[]",
        "numberOfBytes": "32"
      },
      "t_array(t_uint256)dyn_storage": {
        "base": "t_uint256",
        "encoding": "dynamic_array",
        "label": "uint256[]",
        "numberOfBytes": "32"
      },
      "t_bool": {
        "encoding": "inplace",
        "label": "bool",
        "numberOfBytes": "1"
      },
      "t_contract(ENS)3580": {
        "encoding": "inplace",
        "label": "contract ENS",
        "numberOfBytes": "20"
      },
      "t_contract(IERC20)1021": {
        "encoding": "inplace",
        "label": "contract IERC20",
        "numberOfBytes": "20"
      },
      "t_enum(Stage)3413": {
        "encoding": "inplace",
        "label": "enum BullosseumFields.Stage",
        "numberOfBytes": "1"
      },
      "t_int256": {
        "encoding": "inplace",
        "label": "int256",
        "numberOfBytes": "32"
      },
      "t_int8": {
        "encoding": "inplace",
        "label": "int8",
        "numberOfBytes": "1"
      },
      "t_mapping(t_address,t_bool)": {
        "encoding": "mapping",
        "key": "t_address",
        "label": "mapping(address => bool)",
        "numberOfBytes": "32",
        "value": "t_bool"
      },
      "t_mapping(t_address,t_mapping(t_address,t_bool))": {
        "encoding": "mapping",
        "key": "t_address",
        "label": "mapping(address => mapping(address => bool))",
        "numberOfBytes": "32",
        "value": "t_mapping(t_address,t_bool)"
      },
      "t_mapping(t_address,t_mapping(t_uint256,t_uint256))": {
        "encoding": "mapping",
        "key": "t_address",
        "label": "mapping(address => mapping(uint256 => uint256))",
        "numberOfBytes": "32",
        "value": "t_mapping(t_uint256,t_uint256)"
      },
      "t_mapping(t_address,t_uint256)": {
        "encoding": "mapping",
        "key": "t_address",
        "label": "mapping(address => uint256)",
        "numberOfBytes": "32",
        "value": "t_uint256"
      },
      "t_mapping(t_uint256,t_address)": {
        "encoding": "mapping",
        "key": "t_uint256",
        "label": "mapping(uint256 => address)",
        "numberOfBytes": "32",
        "value": "t_address"
      },
      "t_mapping(t_uint256,t_struct(BullData)3626_storage)": {
        "encoding": "mapping",
        "key": "t_uint256",
        "label": "mapping(uint256 => struct BullosseumFighter.BullData)",
        "numberOfBytes": "32",
        "value": "t_struct(BullData)3626_storage"
      },
      "t_mapping(t_uint256,t_uint256)": {
        "encoding": "mapping",
        "key": "t_uint256",
        "label": "mapping(uint256 => uint256)",
        "numberOfBytes": "32",
        "value": "t_uint256"
      },
      "t_mapping(t_uint32,t_string_storage)": {
        "encoding": "mapping",
        "key": "t_uint32",
        "label": "mapping(uint32 => string)",
        "numberOfBytes": "32",
        "value": "t_string_storage"
      },
      "t_mapping(t_uint8,t_uint256)": {
        "encoding": "mapping",
        "key": "t_uint8",
        "label": "mapping(uint8 => uint256)",
        "numberOfBytes": "32",
        "value": "t_uint256"
      },
      "t_mapping(t_uint8,t_uint32)": {
        "encoding": "mapping",
        "key": "t_uint8",
        "label": "mapping(uint8 => uint32)",
        "numberOfBytes": "32",
        "value": "t_uint32"
      },
      "t_string_storage": {
        "encoding": "bytes",
        "label": "string",
        "numberOfBytes": "32"
      },
      "t_struct(BullData)3626_storage": {
        "encoding": "inplace",
        "label": "struct BullosseumFighter.BullData",
        "members": [
          {
            "astId": 3613,
            "contract": "contracts/Bullosseum.sol:Bullosseum",
            "label": "generation",
            "offset": 0,
            "slot": "0",
            "type": "t_uint32"
          },
          {
            "astId": 3615,
            "contract": "contracts/Bullosseum.sol:Bullosseum",
            "label": "closed",
            "offset": 4,
            "slot": "0",
            "type": "t_bool"
          },
          {
            "astId": 3617,
            "contract": "contracts/Bullosseum.sol:Bullosseum",
            "label": "onField",
            "offset": 5,
            "slot": "0",
            "type": "t_bool"
          },
          {
            "astId": 3619,
            "contract": "contracts/Bullosseum.sol:Bullosseum",
            "label": "netWorth",
            "offset": 0,
            "slot": "1",
            "type": "t_int256"
          },
          {
            "astId": 3621,
            "contract": "contracts/Bullosseum.sol:Bullosseum",
            "label": "proxy",
            "offset": 0,
            "slot": "2",
            "type": "t_address"
          },
          {
            "astId": 3623,
            "contract": "contracts/Bullosseum.sol:Bullosseum",
            "label": "openPrice",
            "offset": 0,
            "slot": "3",
            "type": "t_int256"
          },
          {
            "astId": 3625,
            "contract": "contracts/Bullosseum.sol:Bullosseum",
            "label": "leverage",
            "offset": 0,
            "slot": "4",
            "type": "t_int8"
          }
        ],
        "numberOfBytes": "160"
      },
      "t_struct(Proposal)4052_storage": {
        "encoding": "inplace",
        "label": "struct BullosseumGovernance.Proposal",
        "members": [
          {
            "astId": 4045,
            "contract": "contracts/Bullosseum.sol:Bullosseum",
            "label": "proposer",
            "offset": 0,
            "slot": "0",
            "type": "t_address"
          },
          {
            "astId": 4047,
            "contract": "contracts/Bullosseum.sol:Bullosseum",
            "label": "baseURI",
            "offset": 0,
            "slot": "1",
            "type": "t_string_storage"
          },
          {
            "astId": 4049,
            "contract": "contracts/Bullosseum.sol:Bullosseum",
            "label": "bid",
            "offset": 0,
            "slot": "2",
            "type": "t_uint88"
          },
          {
            "astId": 4051,
            "contract": "contracts/Bullosseum.sol:Bullosseum",
            "label": "voteCount",
            "offset": 11,
            "slot": "2",
            "type": "t_uint8"
          }
        ],
        "numberOfBytes": "96"
      },
      "t_uint256": {
        "encoding": "inplace",
        "label": "uint256",
        "numberOfBytes": "32"
      },
      "t_uint32": {
        "encoding": "inplace",
        "label": "uint32",
        "numberOfBytes": "4"
      },
      "t_uint8": {
        "encoding": "inplace",
        "label": "uint8",
        "numberOfBytes": "1"
      },
      "t_uint88": {
        "encoding": "inplace",
        "label": "uint88",
        "numberOfBytes": "11"
      }
    }
  }
}