{
  "address": "0xC5C1aaaF49210A7A280a9ebF38E74F0F20aC2FDB",
  "abi": [
    {
      "inputs": [
        {
          "internalType": "address",
          "name": "ensRegistryAddr",
          "type": "address"
        },
        {
          "internalType": "string",
          "name": "baseURI",
          "type": "string"
        },
        {
          "internalType": "address[]",
          "name": "payees",
          "type": "address[]"
        },
        {
          "internalType": "uint256[]",
          "name": "shares",
          "type": "uint256[]"
        }
      ],
      "stateMutability": "nonpayable",
      "type": "constructor"
    },
    {
      "anonymous": false,
      "inputs": [
        {
          "indexed": true,
          "internalType": "address",
          "name": "owner",
          "type": "address"
        },
        {
          "indexed": true,
          "internalType": "address",
          "name": "approved",
          "type": "address"
        },
        {
          "indexed": true,
          "internalType": "uint256",
          "name": "tokenId",
          "type": "uint256"
        }
      ],
      "name": "Approval",
      "type": "event"
    },
    {
      "anonymous": false,
      "inputs": [
        {
          "indexed": true,
          "internalType": "address",
          "name": "owner",
          "type": "address"
        },
        {
          "indexed": true,
          "internalType": "address",
          "name": "operator",
          "type": "address"
        },
        {
          "indexed": false,
          "internalType": "bool",
          "name": "approved",
          "type": "bool"
        }
      ],
      "name": "ApprovalForAll",
      "type": "event"
    },
    {
      "anonymous": false,
      "inputs": [
        {
          "indexed": true,
          "internalType": "uint256",
          "name": "id",
          "type": "uint256"
        },
        {
          "components": [
            {
              "internalType": "uint32",
              "name": "generation",
              "type": "uint32"
            },
            {
              "internalType": "bool",
              "name": "isOpen",
              "type": "bool"
            },
            {
              "internalType": "bool",
              "name": "isCampping",
              "type": "bool"
            },
            {
              "internalType": "int40",
              "name": "power",
              "type": "int40"
            },
            {
              "internalType": "address",
              "name": "proxy",
              "type": "address"
            },
            {
              "internalType": "int256",
              "name": "openPrice",
              "type": "int256"
            },
            {
              "internalType": "int8",
              "name": "leverage",
              "type": "int8"
            }
          ],
          "indexed": false,
          "internalType": "struct Jungler.JunglerData",
          "name": "data",
          "type": "tuple"
        }
      ],
      "name": "CurrentJunglerState",
      "type": "event"
    },
    {
      "anonymous": false,
      "inputs": [
        {
          "indexed": false,
          "internalType": "address",
          "name": "account",
          "type": "address"
        },
        {
          "indexed": false,
          "internalType": "uint256",
          "name": "shares",
          "type": "uint256"
        }
      ],
      "name": "PayeeAdded",
      "type": "event"
    },
    {
      "anonymous": false,
      "inputs": [
        {
          "indexed": false,
          "internalType": "address",
          "name": "from",
          "type": "address"
        },
        {
          "indexed": false,
          "internalType": "uint256",
          "name": "amount",
          "type": "uint256"
        }
      ],
      "name": "PaymentReceived",
      "type": "event"
    },
    {
      "anonymous": false,
      "inputs": [
        {
          "indexed": false,
          "internalType": "address",
          "name": "to",
          "type": "address"
        },
        {
          "indexed": false,
          "internalType": "uint256",
          "name": "amount",
          "type": "uint256"
        }
      ],
      "name": "PaymentReleased",
      "type": "event"
    },
    {
      "anonymous": false,
      "inputs": [
        {
          "indexed": true,
          "internalType": "address",
          "name": "from",
          "type": "address"
        },
        {
          "indexed": true,
          "internalType": "address",
          "name": "to",
          "type": "address"
        },
        {
          "indexed": true,
          "internalType": "uint256",
          "name": "tokenId",
          "type": "uint256"
        }
      ],
      "name": "Transfer",
      "type": "event"
    },
    {
      "inputs": [
        {
          "internalType": "address",
          "name": "to",
          "type": "address"
        },
        {
          "internalType": "uint256",
          "name": "tokenId",
          "type": "uint256"
        }
      ],
      "name": "approve",
      "outputs": [],
      "stateMutability": "nonpayable",
      "type": "function"
    },
    {
      "inputs": [
        {
          "internalType": "address",
          "name": "owner",
          "type": "address"
        }
      ],
      "name": "balanceOf",
      "outputs": [
        {
          "internalType": "uint256",
          "name": "",
          "type": "uint256"
        }
      ],
      "stateMutability": "view",
      "type": "function"
    },
    {
      "inputs": [
        {
          "internalType": "uint256",
          "name": "junglerId",
          "type": "uint256"
        },
        {
          "internalType": "uint8",
          "name": "bushId",
          "type": "uint8"
        }
      ],
      "name": "camp",
      "outputs": [],
      "stateMutability": "nonpayable",
      "type": "function"
    },
    {
      "inputs": [
        {
          "internalType": "uint256",
          "name": "junglerId",
          "type": "uint256"
        }
      ],
      "name": "close",
      "outputs": [],
      "stateMutability": "nonpayable",
      "type": "function"
    },
    {
      "inputs": [],
      "name": "endVote",
      "outputs": [],
      "stateMutability": "nonpayable",
      "type": "function"
    },
    {
      "inputs": [
        {
          "internalType": "uint256",
          "name": "junglerId",
          "type": "uint256"
        }
      ],
      "name": "gank",
      "outputs": [],
      "stateMutability": "nonpayable",
      "type": "function"
    },
    {
      "inputs": [],
      "name": "generation",
      "outputs": [
        {
          "internalType": "uint32",
          "name": "",
          "type": "uint32"
        }
      ],
      "stateMutability": "view",
      "type": "function"
    },
    {
      "inputs": [],
      "name": "getAddrOfJGR",
      "outputs": [
        {
          "internalType": "address",
          "name": "",
          "type": "address"
        }
      ],
      "stateMutability": "view",
      "type": "function"
    },
    {
      "inputs": [],
      "name": "getAllProposals",
      "outputs": [
        {
          "components": [
            {
              "internalType": "address",
              "name": "proposer",
              "type": "address"
            },
            {
              "internalType": "string",
              "name": "baseURI",
              "type": "string"
            },
            {
              "internalType": "uint88",
              "name": "bid",
              "type": "uint88"
            },
            {
              "internalType": "uint8",
              "name": "voteCount",
              "type": "uint8"
            }
          ],
          "internalType": "struct JungleGovernance.Proposal[]",
          "name": "",
          "type": "tuple[]"
        }
      ],
      "stateMutability": "view",
      "type": "function"
    },
    {
      "inputs": [
        {
          "internalType": "uint256",
          "name": "tokenId",
          "type": "uint256"
        }
      ],
      "name": "getApproved",
      "outputs": [
        {
          "internalType": "address",
          "name": "",
          "type": "address"
        }
      ],
      "stateMutability": "view",
      "type": "function"
    },
    {
      "inputs": [
        {
          "internalType": "uint256",
          "name": "junglerId",
          "type": "uint256"
        }
      ],
      "name": "getJunglerData",
      "outputs": [
        {
          "components": [
            {
              "internalType": "uint32",
              "name": "generation",
              "type": "uint32"
            },
            {
              "internalType": "bool",
              "name": "isOpen",
              "type": "bool"
            },
            {
              "internalType": "bool",
              "name": "isCampping",
              "type": "bool"
            },
            {
              "internalType": "int40",
              "name": "power",
              "type": "int40"
            },
            {
              "internalType": "address",
              "name": "proxy",
              "type": "address"
            },
            {
              "internalType": "int256",
              "name": "openPrice",
              "type": "int256"
            },
            {
              "internalType": "int8",
              "name": "leverage",
              "type": "int8"
            }
          ],
          "internalType": "struct Jungler.JunglerData",
          "name": "",
          "type": "tuple"
        }
      ],
      "stateMutability": "view",
      "type": "function"
    },
    {
      "inputs": [
        {
          "internalType": "uint8",
          "name": "bushId",
          "type": "uint8"
        }
      ],
      "name": "getJunglerOnBush",
      "outputs": [
        {
          "components": [
            {
              "internalType": "uint32",
              "name": "generation",
              "type": "uint32"
            },
            {
              "internalType": "bool",
              "name": "isOpen",
              "type": "bool"
            },
            {
              "internalType": "bool",
              "name": "isCampping",
              "type": "bool"
            },
            {
              "internalType": "int40",
              "name": "power",
              "type": "int40"
            },
            {
              "internalType": "address",
              "name": "proxy",
              "type": "address"
            },
            {
              "internalType": "int256",
              "name": "openPrice",
              "type": "int256"
            },
            {
              "internalType": "int8",
              "name": "leverage",
              "type": "int8"
            }
          ],
          "internalType": "struct Jungler.JunglerData",
          "name": "",
          "type": "tuple"
        }
      ],
      "stateMutability": "view",
      "type": "function"
    },
    {
      "inputs": [
        {
          "internalType": "uint256",
          "name": "junglerId",
          "type": "uint256"
        }
      ],
      "name": "getJunglerProfile",
      "outputs": [
        {
          "components": [
            {
              "internalType": "uint256",
              "name": "id",
              "type": "uint256"
            },
            {
              "internalType": "uint32",
              "name": "generation",
              "type": "uint32"
            },
            {
              "internalType": "bool",
              "name": "isOpen",
              "type": "bool"
            },
            {
              "internalType": "bool",
              "name": "isCampping",
              "type": "bool"
            },
            {
              "internalType": "int40",
              "name": "power",
              "type": "int40"
            },
            {
              "internalType": "address",
              "name": "proxy",
              "type": "address"
            },
            {
              "internalType": "int256",
              "name": "openPrice",
              "type": "int256"
            },
            {
              "internalType": "int8",
              "name": "leverage",
              "type": "int8"
            },
            {
              "internalType": "string",
              "name": "tokenURI",
              "type": "string"
            }
          ],
          "internalType": "struct MetaJungle.JunglerProfile",
          "name": "",
          "type": "tuple"
        }
      ],
      "stateMutability": "view",
      "type": "function"
    },
    {
      "inputs": [
        {
          "internalType": "address",
          "name": "owner",
          "type": "address"
        }
      ],
      "name": "getOwnerJunglerList",
      "outputs": [
        {
          "components": [
            {
              "internalType": "uint256",
              "name": "id",
              "type": "uint256"
            },
            {
              "internalType": "uint32",
              "name": "generation",
              "type": "uint32"
            },
            {
              "internalType": "bool",
              "name": "isOpen",
              "type": "bool"
            },
            {
              "internalType": "bool",
              "name": "isCampping",
              "type": "bool"
            },
            {
              "internalType": "int40",
              "name": "power",
              "type": "int40"
            },
            {
              "internalType": "address",
              "name": "proxy",
              "type": "address"
            },
            {
              "internalType": "int256",
              "name": "openPrice",
              "type": "int256"
            },
            {
              "internalType": "int8",
              "name": "leverage",
              "type": "int8"
            },
            {
              "internalType": "string",
              "name": "tokenURI",
              "type": "string"
            }
          ],
          "internalType": "struct MetaJungle.JunglerProfile[]",
          "name": "junglerList",
          "type": "tuple[]"
        }
      ],
      "stateMutability": "view",
      "type": "function"
    },
    {
      "inputs": [
        {
          "internalType": "address",
          "name": "owner",
          "type": "address"
        }
      ],
      "name": "getVotableBushesByOwner",
      "outputs": [
        {
          "internalType": "uint8[]",
          "name": "bushIdList",
          "type": "uint8[]"
        }
      ],
      "stateMutability": "view",
      "type": "function"
    },
    {
      "inputs": [
        {
          "internalType": "address",
          "name": "owner",
          "type": "address"
        },
        {
          "internalType": "address",
          "name": "operator",
          "type": "address"
        }
      ],
      "name": "isApprovedForAll",
      "outputs": [
        {
          "internalType": "bool",
          "name": "",
          "type": "bool"
        }
      ],
      "stateMutability": "view",
      "type": "function"
    },
    {
      "inputs": [],
      "name": "name",
      "outputs": [
        {
          "internalType": "string",
          "name": "",
          "type": "string"
        }
      ],
      "stateMutability": "view",
      "type": "function"
    },
    {
      "inputs": [
        {
          "internalType": "uint256",
          "name": "junglerId",
          "type": "uint256"
        },
        {
          "internalType": "bytes32",
          "name": "namehash",
          "type": "bytes32"
        },
        {
          "internalType": "int8",
          "name": "leverage",
          "type": "int8"
        }
      ],
      "name": "open",
      "outputs": [],
      "stateMutability": "nonpayable",
      "type": "function"
    },
    {
      "inputs": [
        {
          "internalType": "uint256",
          "name": "tokenId",
          "type": "uint256"
        }
      ],
      "name": "ownerOf",
      "outputs": [
        {
          "internalType": "address",
          "name": "",
          "type": "address"
        }
      ],
      "stateMutability": "view",
      "type": "function"
    },
    {
      "inputs": [
        {
          "internalType": "uint256",
          "name": "index",
          "type": "uint256"
        }
      ],
      "name": "payee",
      "outputs": [
        {
          "internalType": "address",
          "name": "",
          "type": "address"
        }
      ],
      "stateMutability": "view",
      "type": "function"
    },
    {
      "inputs": [
        {
          "internalType": "string",
          "name": "newBaseURI",
          "type": "string"
        },
        {
          "internalType": "uint8",
          "name": "slotId",
          "type": "uint8"
        }
      ],
      "name": "propose",
      "outputs": [],
      "stateMutability": "payable",
      "type": "function"
    },
    {
      "inputs": [
        {
          "internalType": "address payable",
          "name": "account",
          "type": "address"
        }
      ],
      "name": "release",
      "outputs": [],
      "stateMutability": "nonpayable",
      "type": "function"
    },
    {
      "inputs": [
        {
          "internalType": "address",
          "name": "account",
          "type": "address"
        }
      ],
      "name": "released",
      "outputs": [
        {
          "internalType": "uint256",
          "name": "",
          "type": "uint256"
        }
      ],
      "stateMutability": "view",
      "type": "function"
    },
    {
      "inputs": [
        {
          "internalType": "address",
          "name": "from",
          "type": "address"
        },
        {
          "internalType": "address",
          "name": "to",
          "type": "address"
        },
        {
          "internalType": "uint256",
          "name": "tokenId",
          "type": "uint256"
        }
      ],
      "name": "safeTransferFrom",
      "outputs": [],
      "stateMutability": "nonpayable",
      "type": "function"
    },
    {
      "inputs": [
        {
          "internalType": "address",
          "name": "from",
          "type": "address"
        },
        {
          "internalType": "address",
          "name": "to",
          "type": "address"
        },
        {
          "internalType": "uint256",
          "name": "tokenId",
          "type": "uint256"
        },
        {
          "internalType": "bytes",
          "name": "_data",
          "type": "bytes"
        }
      ],
      "name": "safeTransferFrom",
      "outputs": [],
      "stateMutability": "nonpayable",
      "type": "function"
    },
    {
      "inputs": [
        {
          "internalType": "address",
          "name": "operator",
          "type": "address"
        },
        {
          "internalType": "bool",
          "name": "approved",
          "type": "bool"
        }
      ],
      "name": "setApprovalForAll",
      "outputs": [],
      "stateMutability": "nonpayable",
      "type": "function"
    },
    {
      "inputs": [
        {
          "internalType": "address",
          "name": "account",
          "type": "address"
        }
      ],
      "name": "shares",
      "outputs": [
        {
          "internalType": "uint256",
          "name": "",
          "type": "uint256"
        }
      ],
      "stateMutability": "view",
      "type": "function"
    },
    {
      "inputs": [],
      "name": "stage",
      "outputs": [
        {
          "internalType": "enum JungleBush.Stage",
          "name": "",
          "type": "uint8"
        }
      ],
      "stateMutability": "view",
      "type": "function"
    },
    {
      "inputs": [],
      "name": "startVote",
      "outputs": [],
      "stateMutability": "nonpayable",
      "type": "function"
    },
    {
      "inputs": [],
      "name": "summon",
      "outputs": [],
      "stateMutability": "nonpayable",
      "type": "function"
    },
    {
      "inputs": [
        {
          "internalType": "bytes4",
          "name": "interfaceId",
          "type": "bytes4"
        }
      ],
      "name": "supportsInterface",
      "outputs": [
        {
          "internalType": "bool",
          "name": "",
          "type": "bool"
        }
      ],
      "stateMutability": "view",
      "type": "function"
    },
    {
      "inputs": [],
      "name": "symbol",
      "outputs": [
        {
          "internalType": "string",
          "name": "",
          "type": "string"
        }
      ],
      "stateMutability": "view",
      "type": "function"
    },
    {
      "inputs": [
        {
          "internalType": "uint256",
          "name": "index",
          "type": "uint256"
        }
      ],
      "name": "tokenByIndex",
      "outputs": [
        {
          "internalType": "uint256",
          "name": "",
          "type": "uint256"
        }
      ],
      "stateMutability": "view",
      "type": "function"
    },
    {
      "inputs": [
        {
          "internalType": "address",
          "name": "owner",
          "type": "address"
        },
        {
          "internalType": "uint256",
          "name": "index",
          "type": "uint256"
        }
      ],
      "name": "tokenOfOwnerByIndex",
      "outputs": [
        {
          "internalType": "uint256",
          "name": "",
          "type": "uint256"
        }
      ],
      "stateMutability": "view",
      "type": "function"
    },
    {
      "inputs": [
        {
          "internalType": "uint256",
          "name": "tokenId",
          "type": "uint256"
        }
      ],
      "name": "tokenURI",
      "outputs": [
        {
          "internalType": "string",
          "name": "",
          "type": "string"
        }
      ],
      "stateMutability": "view",
      "type": "function"
    },
    {
      "inputs": [],
      "name": "totalReleased",
      "outputs": [
        {
          "internalType": "uint256",
          "name": "",
          "type": "uint256"
        }
      ],
      "stateMutability": "view",
      "type": "function"
    },
    {
      "inputs": [],
      "name": "totalShares",
      "outputs": [
        {
          "internalType": "uint256",
          "name": "",
          "type": "uint256"
        }
      ],
      "stateMutability": "view",
      "type": "function"
    },
    {
      "inputs": [],
      "name": "totalSupply",
      "outputs": [
        {
          "internalType": "uint256",
          "name": "",
          "type": "uint256"
        }
      ],
      "stateMutability": "view",
      "type": "function"
    },
    {
      "inputs": [
        {
          "internalType": "address",
          "name": "from",
          "type": "address"
        },
        {
          "internalType": "address",
          "name": "to",
          "type": "address"
        },
        {
          "internalType": "uint256",
          "name": "tokenId",
          "type": "uint256"
        }
      ],
      "name": "transferFrom",
      "outputs": [],
      "stateMutability": "nonpayable",
      "type": "function"
    },
    {
      "inputs": [
        {
          "internalType": "uint256",
          "name": "proposalId",
          "type": "uint256"
        },
        {
          "internalType": "uint8[]",
          "name": "bushIdList",
          "type": "uint8[]"
        }
      ],
      "name": "vote",
      "outputs": [],
      "stateMutability": "nonpayable",
      "type": "function"
    },
    {
      "stateMutability": "payable",
      "type": "receive"
    }
  ],
  "transactionHash": "0x08bb2d04adcc7e2d2aad9ae194ed9ee0b46df0ff97326617c4262ad473c22bbe",
  "args": [
    "0x00000000000C2E074eC69A0dFb2997BA6C7d2e1e",
    "ipfs://QmRTLzaoAYSuiMVENbRpxSbrY7sgFz9K5WE5g8yvtxL485/",
    [
      "0x586EbeC665DEa9B5B459cB9e5562DBCA3Cf2CE13"
    ],
    [
      1
    ]
  ],
  "solcInputHash": "b61fb9d2ac14c3da53fcfe5aa64f546d",
  "bytecode": "0x60806040523480156200001157600080fd5b50604051620060073803806200600783398101604081905262000034916200053e565b818184866040518060400160405280600b81526020016a26b2ba30a53ab733b632b960a91b815250604051806040016040528060038152602001624d4a4760e81b8152508160009080519060200190620000909291906200038f565b508051620000a69060019060208401906200038f565b5050600a8054600163ffffffff1990911617600160201b600160c01b0319166401000000006001600160a01b0385160217905550620000e462000259565b604051620000f2906200041e565b620000fe919062000658565b604051809103906000f0801580156200011b573d6000803e3d6000fd5b50600b80546001600160a01b0319166001600160a01b0392909216919091179055506010805460ff1916905542601155600a5463ffffffff166000908152601360209081526040909120825162000175928401906200038f565b50508051825114620001a45760405162461bcd60e51b81526004016200019b90620006d1565b60405180910390fd5b6000825111620001c85760405162461bcd60e51b81526004016200019b906200076e565b60005b82518110156200024c5762000237838281518110620001fa57634e487b7160e01b600052603260045260246000fd5b60200260200101518383815181106200022357634e487b7160e01b600052603260045260246000fd5b60200260200101516200025d60201b60201c565b80620002438162000886565b915050620001cb565b50505050505050620008d0565b3390565b6001600160a01b038216620002865760405162461bcd60e51b81526004016200019b9062000685565b60008111620002a95760405162461bcd60e51b81526004016200019b90620007a5565b6001600160a01b03821660009081526016602052604090205415620002e25760405162461bcd60e51b81526004016200019b9062000723565b60188054600181019091557fb13d2d76d1f4b7be834882e410b3e3a8afaf69f83600ae24db354391d2378d2e0180546001600160a01b0319166001600160a01b03841690811790915560009081526016602052604090208190556014546200034c9082906200082e565b6014556040517f40c340f65e17194d14ddddb073d3c9f888e3cb52b5aae0c6c7706b4fbc905fac906200038390849084906200066c565b60405180910390a15050565b8280546200039d9062000849565b90600052602060002090601f016020900481019282620003c157600085556200040c565b82601f10620003dc57805160ff19168380011785556200040c565b828001600101855582156200040c579182015b828111156200040c578251825591602001919060010190620003ef565b506200041a9291506200042c565b5090565b610d0a80620052fd83390190565b5b808211156200041a57600081556001016200042d565b80516001600160a01b03811681146200045b57600080fd5b919050565b600082601f83011262000471578081fd5b815160206200048a620004848362000808565b620007dc565b8281528181019085830183850287018401881015620004a7578586fd5b855b85811015620004d057620004bd8262000443565b84529284019290840190600101620004a9565b5090979650505050505050565b600082601f830112620004ee578081fd5b8151602062000501620004848362000808565b82815281810190858301838502870184018810156200051e578586fd5b855b85811015620004d05781518452928401929084019060010162000520565b6000806000806080858703121562000554578384fd5b6200055f8562000443565b602086810151919550906001600160401b03808211156200057e578586fd5b818801915088601f83011262000592578586fd5b815181811115620005a757620005a7620008ba565b620005bb601f8201601f19168501620007dc565b8181528a85838601011115620005cf578788fd5b875b82811015620005ee578481018601518282018701528501620005d1565b82811115620005ff57888684840101525b5060408a01519097509350508083111562000618578485fd5b6200062689848a0162000460565b945060608801519250808311156200063c578384fd5b50506200064c87828801620004dd565b91505092959194509250565b6001600160a01b0391909116815260200190565b6001600160a01b03929092168252602082015260400190565b6020808252602c908201527f5061796d656e7453706c69747465723a206163636f756e74206973207468652060408201526b7a65726f206164647265737360a01b606082015260800190565b60208082526032908201527f5061796d656e7453706c69747465723a2070617965657320616e6420736861726040820152710cae640d8cadccee8d040dad2e6dac2e8c6d60731b606082015260800190565b6020808252602b908201527f5061796d656e7453706c69747465723a206163636f756e7420616c726561647960408201526a206861732073686172657360a81b606082015260800190565b6020808252601a908201527f5061796d656e7453706c69747465723a206e6f20706179656573000000000000604082015260600190565b6020808252601d908201527f5061796d656e7453706c69747465723a20736861726573206172652030000000604082015260600190565b6040518181016001600160401b0381118282101715620008005762000800620008ba565b604052919050565b60006001600160401b03821115620008245762000824620008ba565b5060209081020190565b60008219821115620008445762000844620008a4565b500190565b6002810460018216806200085e57607f821691505b602082108114156200088057634e487b7160e01b600052602260045260246000fd5b50919050565b60006000198214156200089d576200089d620008a4565b5060010190565b634e487b7160e01b600052601160045260246000fd5b634e487b7160e01b600052604160045260246000fd5b614a1d80620008e06000396000f3fe6080604052600436106101ff5760003560e01c80636352211e1161010e578063b92239461161009b578063b922394614610624578063c040e6b814610639578063c87b56dd1461065b578063cceb68f51461067b578063cd355bff1461069d578063ce7c2ac2146106b2578063e2c73cb7146106d2578063e33b7de3146106ff578063e985e9c514610714578063fa4c20871461073457610246565b80636352211e146104d557806370a08231146104f55780638b83209b1461051557806395d89b41146105355780639852595c1461054a578063a22cb4651461056a578063a706bb101461058a578063aac27d23146105b7578063ac1ac96b146105e4578063b88d4fde1461060457610246565b80632570eb7d1161018c5780632570eb7d146103b65780632f745c59146103d6578063313dc99a146103f6578063363dd19e146104095780633a98ef391461041e57806342842e0e146104335780634c0a6af0146104535780634f6ccce71461046857806352ef8a7f146104885780635c8a0676146104b557610246565b806301ffc9a71461024b57806306fdde0314610281578063081812fc146102a3578063095ea7b3146102d05780630aebeb4e146102f25780631300cc3814610312578063172195221461033257806318160ddd14610354578063191655871461037657806323b872dd1461039657610246565b36610246577f6ef95f06320e7a25a04a175ca677b7052bdd97131872c2192525a629f51be77061022d610754565b3460405161023c929190613ac2565b60405180910390a1005b600080fd5b34801561025757600080fd5b5061026b6102663660046136ff565b610758565b6040516102789190613c78565b60405180910390f35b34801561028d57600080fd5b50610296610785565b6040516102789190613cb4565b3480156102af57600080fd5b506102c36102be3660046137b2565b610817565b6040516102789190613aae565b3480156102dc57600080fd5b506102f06102eb3660046136b8565b610863565b005b3480156102fe57600080fd5b506102f061030d3660046137b2565b6108fb565b34801561031e57600080fd5b506102f061032d3660046137ca565b610af7565b34801561033e57600080fd5b50610347610d16565b6040516102789190614619565b34801561036057600080fd5b50610369610d22565b6040516102789190613c83565b34801561038257600080fd5b506102f061039136600461350c565b610d28565b3480156103a257600080fd5b506102f06103b136600461357c565b610e6d565b3480156103c257600080fd5b506102f06103d13660046137b2565b610ea5565b3480156103e257600080fd5b506103696103f13660046136b8565b611082565b6102f0610404366004613737565b6110d7565b34801561041557600080fd5b506102f06114aa565b34801561042a57600080fd5b50610369611692565b34801561043f57600080fd5b506102f061044e36600461357c565b611698565b34801561045f57600080fd5b506102f06116b3565b34801561047457600080fd5b506103696104833660046137b2565b611759565b34801561049457600080fd5b506104a86104a33660046137b2565b6117b4565b6040516102789190614606565b3480156104c157600080fd5b506102f06104d0366004613842565b611930565b3480156104e157600080fd5b506102c36104f03660046137b2565b611aeb565b34801561050157600080fd5b5061036961051036600461350c565b611b20565b34801561052157600080fd5b506102c36105303660046137b2565b611b64565b34801561054157600080fd5b50610296611ba2565b34801561055657600080fd5b5061036961056536600461350c565b611bb1565b34801561057657600080fd5b506102f061058536600461368b565b611bcc565b34801561059657600080fd5b506105aa6105a536600461350c565b611c9a565b6040516102789190613b32565b3480156105c357600080fd5b506105d76105d236600461350c565b611d72565b6040516102789190613c31565b3480156105f057600080fd5b506102f06105ff36600461387e565b611f4e565b34801561061057600080fd5b506102f061061f3660046135bc565b61215c565b34801561063057600080fd5b506102f061219b565b34801561064557600080fd5b5061064e6124eb565b6040516102789190613c8c565b34801561066757600080fd5b506102966106763660046137b2565b6124f4565b34801561068757600080fd5b50610690612618565b6040516102789190613b92565b3480156106a957600080fd5b506102c361274d565b3480156106be57600080fd5b506103696106cd36600461350c565b61275c565b3480156106de57600080fd5b506106f26106ed3660046137b2565b612777565b6040516102789190614596565b34801561070b57600080fd5b5061036961283b565b34801561072057600080fd5b5061026b61072f366004613544565b612841565b34801561074057600080fd5b506106f261074f3660046138a9565b61286f565b3390565b60006001600160e01b0319821663780e9d6360e01b148061077d575061077d826128b6565b90505b919050565b6060600080546107949061489e565b80601f01602080910402602001604051908101604052809291908181526020018280546107c09061489e565b801561080d5780601f106107e25761010080835404028352916020019161080d565b820191906000526020600020905b8154815290600101906020018083116107f057829003601f168201915b5050505050905090565b6000610822826128f6565b6108475760405162461bcd60e51b815260040161083e90614242565b60405180910390fd5b506000908152600460205260409020546001600160a01b031690565b600061086e82611aeb565b9050806001600160a01b0316836001600160a01b031614156108a25760405162461bcd60e51b815260040161083e9061438f565b806001600160a01b03166108b4610754565b6001600160a01b031614806108d057506108d08161072f610754565b6108ec5760405162461bcd60e51b815260040161083e906140a0565b6108f68383612913565b505050565b806109063382612981565b6109225760405162461bcd60e51b815260040161083e90614573565b6000828152600c602052604090208054600160201b900460ff166109585760405162461bcd60e51b815260040161083e9061454b565b600081600001600b9054906101000a90046001600160a01b031690506000816001600160a01b031663feaf968c6040518163ffffffff1660e01b815260040160a06040518083038186803b1580156109af57600080fd5b505afa1580156109c3573d6000803e3d6000fd5b505050506040513d601f19601f820116820180604052508101906109e791906138c3565b5050855460ff60201b19168655506001850154909250610a099150600a61477a565b835460028501546001860154600160301b909204600490810b900b91600091820b90910b90610a38908561481c565b610a42919061477a565b610a4c919061477a565b610a569190614714565b83548490600690610a72908490600160301b900460040b61466b565b92506101000a81548164ffffffffff021916908360040b64ffffffffff16021790555060008360000160069054906101000a900460040b60040b1215610aca5760405162461bcd60e51b815260040161083e906144ed565b846000805160206149c883398151915284604051610ae891906145f8565b60405180910390a25050505050565b60128054829160009186908110610b1e57634e487b7160e01b600052603260045260246000fd5b9060005260206000209060030201905060005b8260ff168160ff161015610c0e5760ff81166000908152600d6020526040902054610b5a610754565b6001600160a01b0316610b6c82611aeb565b6001600160a01b031614610b925760405162461bcd60e51b815260040161083e90614573565b600a5460ff83166000908152600f602052604090205463ffffffff918216911610610bcf5760405162461bcd60e51b815260040161083e90613dca565b50600a5460ff82166000908152600f60205260409020805463ffffffff191663ffffffff90921691909117905580610c0681614918565b915050610b31565b508181600201600b8282829054906101000a900460ff16610c2f91906146cd565b825460ff9182166101009390930a928302919092021990911617905550600b546001600160a01b031663a9059cbb610c65610754565b6064600a60ff8716610c7630611b20565b610c8091906147fd565b610c8b9060086147fd565b610c959190614742565b610c9f9190614742565b6040518363ffffffff1660e01b8152600401610cbc929190613ac2565b602060405180830381600087803b158015610cd657600080fd5b505af1158015610cea573d6000803e3d6000fd5b505050506040513d601f19601f82011682018060405250810190610d0e91906136e3565b505050505050565b600a5463ffffffff1681565b60085490565b6001600160a01b038116600090815260166020526040902054610d5d5760405162461bcd60e51b815260040161083e90613e42565b600060155447610d6d91906146b5565b6001600160a01b0383166000908152601760209081526040808320546014546016909352908320549394509192610da490856147fd565b610dae9190614742565b610db8919061485b565b905080610dd75760405162461bcd60e51b815260040161083e90614006565b6001600160a01b038316600090815260176020526040902054610dfb9082906146b5565b6001600160a01b038416600090815260176020526040902055601554610e229082906146b5565b601555610e2f8382612a06565b7fdf20fd1e76bc69d672e4814fafb2c449bba3a5369d8359adf9e05e6fde87b0568382604051610e60929190613ac2565b60405180910390a1505050565b610e7e610e78610754565b82612981565b610e9a5760405162461bcd60e51b815260040161083e90614450565b6108f6838383612aa2565b6000818152600c602052604090208054600160201b900460ff16610edb5760405162461bcd60e51b815260040161083e90613e1a565b600081600001600b9054906101000a90046001600160a01b031690506000816001600160a01b031663feaf968c6040518163ffffffff1660e01b815260040160a06040518083038186803b158015610f3257600080fd5b505afa158015610f46573d6000803e3d6000fd5b505050506040513d601f19601f82011682018060405250810190610f6a91906138c3565b50505091505060008360010154600a610f83919061477a565b845460028601546001870154600160301b909204600490810b900b91600091820b90910b90610fb2908661481c565b610fbc919061477a565b610fc6919061477a565b610fd09190614714565b8454610fea9190600160301b9004600490810b900b61462a565b90506000811261100c5760405162461bcd60e51b815260040161083e906143d0565b835464ffffffffff60301b1916845560405185906000805160206149c88339815191529061103b9087906145f8565b60405180910390a2600b546001600160a01b031663a9059cbb61105c610754565b67016345785d8a00006040518363ffffffff1660e01b8152600401610cbc929190613ac2565b600061108d83611b20565b82106110ab5760405162461bcd60e51b815260040161083e90613cf6565b506001600160a01b03821660009081526006602090815260408083208484529091529020545b92915050565b601254600a11156111f557601260405180608001604052806110f7610754565b6001600160a01b0316815260200185858080601f0160208091040260200160405190810160405280939291908181526020018383808284376000920182905250938552505050346001600160581b0316602080840191909152604090920181905283546001808201865594825290829020835160039092020180546001600160a01b0319166001600160a01b03909216919091178155828201518051939491936111a99392850192919091019061331e565b5060408201516002909101805460609093015160ff16600160581b0260ff60581b196001600160581b039093166001600160581b031990941693909317919091169190911790556108f6565b600a60ff8216106112185760405162461bcd60e51b815260040161083e906140f8565b600060128260ff168154811061123e57634e487b7160e01b600052603260045260246000fd5b6000918252602091829020604080516080810190915260039092020180546001600160a01b03168252600181018054929391929184019161127e9061489e565b80601f01602080910402602001604051908101604052809291908181526020018280546112aa9061489e565b80156112f75780601f106112cc576101008083540402835291602001916112f7565b820191906000526020600020905b8154815290600101906020018083116112da57829003601f168201915b5050509183525050600291909101546001600160581b0381166020830152600160581b900460ff1660409182015281015190915061133c90662386f26fc100006146f2565b6001600160581b03163410156113645760405162461bcd60e51b815260040161083e90614428565b61137f816000015182604001516001600160581b0316612a06565b6040518060800160405280611392610754565b6001600160a01b0316815260200185858080601f01602080910402602001604051908101604052809392919081815260200183838082843760009201829052509385525050506001600160581b03341660208301526040909101526012805460ff851690811061141257634e487b7160e01b600052603260045260246000fd5b600091825260209182902083516003929092020180546001600160a01b0319166001600160a01b03909216919091178155828201518051919261145d9260018501929091019061331e565b5060408201516002909101805460609093015160ff16600160581b0260ff60581b196001600160581b039093166001600160581b0319909416939093179190911691909117905550505050565b600b546001600160a01b03166323b872dd6114c3610754565b30670de0b6b3a76400006040518463ffffffff1660e01b81526004016114eb93929190613adb565b602060405180830381600087803b15801561150557600080fd5b505af1158015611519573d6000803e3d6000fd5b505050506040513d601f19601f8201168201806040525081019061153d91906136e3565b506000611548610d22565b6115539060016146b5565b9050611566611560610754565b82612bcf565b6040805160e081018252600a5463ffffffff908116825260006020808401828152848601838152620f4240606087019081526080870185815260a0880186815260c089018781528b8852600c9096528987209851895495519451935192516001600160a01b0316600160581b02600160581b600160f81b031960049490940b64ffffffffff16600160301b0264ffffffffff60301b19951515600160281b0260ff60281b19971515600160201b0260ff60201b1994909c1663ffffffff1990991698909817929092169990991794909416949094179190911691909117169390931784559151600184015590516002830180549190920b60ff1660ff19909116179055905182916000805160206149c88339815191529161168791906145f8565b60405180910390a250565b60145490565b6108f68383836040518060200160405280600081525061215c565b600060105460ff1660018111156116da57634e487b7160e01b600052602160045260246000fd5b146116f75760405162461bcd60e51b815260040161083e906142e9565b6220f58060115461170891906146b5565b4210156117275760405162461bcd60e51b815260040161083e90613cc7565b6012546117465760405162461bcd60e51b815260040161083e90614362565b6010805460ff1916600117905542601155565b6000611763610d22565b82106117815760405162461bcd60e51b815260040161083e906144a1565b600882815481106117a257634e487b7160e01b600052603260045260246000fd5b90600052602060002001549050919050565b6117bc6133a2565b6000600c60008481526020019081526020016000206040518060e00160405290816000820160009054906101000a900463ffffffff1663ffffffff1663ffffffff1681526020016000820160049054906101000a900460ff161515151581526020016000820160059054906101000a900460ff161515151581526020016000820160069054906101000a900460040b60040b60040b815260200160008201600b9054906101000a90046001600160a01b03166001600160a01b03166001600160a01b03168152602001600182015481526020016002820160009054906101000a900460000b60000b60000b815250509050604051806101200160405280848152602001826000015163ffffffff168152602001826020015115158152602001826040015115158152602001826060015160040b815260200182608001516001600160a01b031681526020018260a0015181526020018260c0015160000b8152602001611927856124f4565b90529392505050565b8261193b3382612981565b6119575760405162461bcd60e51b815260040161083e90614573565b6000848152600c60205260409020600a54815463ffffffff9081169116146119915760405162461bcd60e51b815260040161083e906142bf565b8054600160201b900460ff16156119ba5760405162461bcd60e51b815260040161083e9061407a565b60006119c585612bed565b90506001600160a01b0381166119ed5760405162461bcd60e51b815260040161083e90613eff565b60008190506000816001600160a01b031663feaf968c6040518163ffffffff1660e01b815260040160a06040518083038186803b158015611a2d57600080fd5b505afa158015611a41573d6000803e3d6000fd5b505050506040513d601f19601f82011682018060405250810190611a6591906138c3565b50508654600160201b60ff60201b1990911617600160581b600160f81b031916600160581b6001600160a01b03881602178755506001860181905560028601805460ff191660ff60008b900b161790556040519092508991506000805160206149c883398151915290611ad99087906145f8565b60405180910390a25050505050505050565b6000818152600260205260408120546001600160a01b03168061077d5760405162461bcd60e51b815260040161083e9061416e565b60006001600160a01b038216611b485760405162461bcd60e51b815260040161083e90614124565b506001600160a01b031660009081526003602052604090205490565b600060188281548110611b8757634e487b7160e01b600052603260045260246000fd5b6000918252602090912001546001600160a01b031692915050565b6060600180546107949061489e565b6001600160a01b031660009081526017602052604090205490565b611bd4610754565b6001600160a01b0316826001600160a01b03161415611c055760405162461bcd60e51b815260040161083e90613ecc565b8060056000611c12610754565b6001600160a01b03908116825260208083019390935260409182016000908120918716808252919093529120805460ff191692151592909217909155611c56610754565b6001600160a01b03167f17307eab39ab6107e8899845ad3d59bd9653f200f220920489ca2b5937696c3183604051611c8e9190613c78565b60405180910390a35050565b60606000611ca783611b20565b9050806001600160401b03811115611ccf57634e487b7160e01b600052604160045260246000fd5b604051908082528060200260200182016040528015611d0857816020015b611cf56133a2565b815260200190600190039081611ced5790505b5091506000805b82811015611d6a57611d218582611082565b9150611d2c826117b4565b848281518110611d4c57634e487b7160e01b600052603260045260246000fd5b60200260200101819052508080611d62906148d9565b915050611d0f565b505050919050565b6060600080805b606460ff82161015611e175760ff81166000908152600d60205260409020549150611da3826128f6565b8015611dc85750846001600160a01b0316611dbd83611aeb565b6001600160a01b0316145b8015611df25750600a5460ff82166000908152600f602052604090205463ffffffff908116911614155b15611e055782611e0181614918565b9350505b80611e0f81614918565b915050611d79565b508160ff166001600160401b03811115611e4157634e487b7160e01b600052604160045260246000fd5b604051908082528060200260200182016040528015611e6a578160200160208202803683370190505b5092506000805b606460ff82161015611f455760ff81166000908152600d60205260409020549250611e9b836128f6565b8015611ec05750856001600160a01b0316611eb584611aeb565b6001600160a01b0316145b8015611eea5750600a5460ff82166000908152600f602052604090205463ffffffff908116911614155b15611f335780858360ff1681518110611f1357634e487b7160e01b600052603260045260246000fd5b60ff9092166020928302919091019091015281611f2f81614918565b9250505b80611f3d81614918565b915050611e71565b50505050919050565b81611f593382612981565b611f755760405162461bcd60e51b815260040161083e90614573565b600060105460ff166001811115611f9c57634e487b7160e01b600052602160045260246000fd5b14611fb95760405162461bcd60e51b815260040161083e906142e9565b606460ff831610611fdc5760405162461bcd60e51b815260040161083e90614219565b6000838152600c602052604090208054600160281b900460ff16156120135760405162461bcd60e51b815260040161083e90614051565b60ff83166000908152600d6020908152604080832054808452600c909252909120600a54835463ffffffff9081169116146120605760405162461bcd60e51b815260040161083e90613df1565b8054600160201b900460ff161580156120855750600a54815463ffffffff9081169116145b156120c35780548354600160301b91829004600490810b810b92909104810b900b136120c35760405162461bcd60e51b815260040161083e9061428e565b805460ff60281b199081168255835416600160281b17835560ff85166000908152600d602052604090208690558115610d0e5760ff85166000908152600e6020526040812054645d21dba0009061211a904261485b565b61212491906147fd565b9050600061213130611b20565b90508082111561213f578091505b6121523061214c86611aeb565b84610e6d565b5050505050505050565b61216d612167610754565b83612981565b6121895760405162461bcd60e51b815260040161083e90614450565b61219584848484612cfe565b50505050565b600160105460ff1660018111156121c257634e487b7160e01b600052602160045260246000fd5b146121df5760405162461bcd60e51b815260040161083e906143fb565b6203f4806011546121f091906146b5565b42101561220f5760405162461bcd60e51b815260040161083e906141b7565b6010805460ff1916905542601155600080805b60125460ff821610156122d6578260ff1660128260ff168154811061225757634e487b7160e01b600052603260045260246000fd5b6000918252602090912060039091020160020154600160581b900460ff1611156122c45760128160ff168154811061229f57634e487b7160e01b600052603260045260246000fd5b9060005260206000209060030201600201600b9054906101000a900460ff1692508091505b806122ce81614918565b915050612222565b50600060128260ff16815481106122fd57634e487b7160e01b600052603260045260246000fd5b6000918252602091829020604080516080810190915260039092020180546001600160a01b03168252600181018054929391929184019161233d9061489e565b80601f01602080910402602001604051908101604052809291908181526020018280546123699061489e565b80156123b65780601f1061238b576101008083540402835291602001916123b6565b820191906000526020600020905b81548152906001019060200180831161239957829003601f168201915b5050509183525050600291909101546001600160581b0381166020830152600160581b900460ff16604090910152600b5481519192506001600160a01b03169063a9059cbb90600a61240730611b20565b6124119190614742565b6040518363ffffffff1660e01b815260040161242e929190613ac2565b602060405180830381600087803b15801561244857600080fd5b505af115801561245c573d6000803e3d6000fd5b505050506040513d601f19601f8201168201806040525081019061248091906136e3565b5061248d601260006133f0565b600a805463ffffffff169060006124a3836148f4565b82546101009290920a63ffffffff818102199093169183160217909155602083810151600a54909216600090815260138252604090208251612195945090929091019061331e565b60105460ff1681565b6000818152600c602052604081205460609163ffffffff821691612525906103e890600160301b900460040b614756565b9050611c4b64ffffffffff8216111561253d5750611c4b5b63ffffffff82166000908152601360205260408120805461255d9061489e565b80601f01602080910402602001604051908101604052809291908181526020018280546125899061489e565b80156125d65780601f106125ab576101008083540402835291602001916125d6565b820191906000526020600020905b8154815290600101906020018083116125b957829003601f168201915b50505050509050806125ee8364ffffffffff16612d31565b6040516020016125ff929190613a7c565b6040516020818303038152906040529350505050919050565b60606012805480602002602001604051908101604052809291908181526020016000905b8282101561274457600084815260209081902060408051608081019091526003850290910180546001600160a01b0316825260018101805492939192918401916126859061489e565b80601f01602080910402602001604051908101604052809291908181526020018280546126b19061489e565b80156126fe5780601f106126d3576101008083540402835291602001916126fe565b820191906000526020600020905b8154815290600101906020018083116126e157829003601f168201915b5050509183525050600291909101546001600160581b038116602080840191909152600160581b90910460ff16604090920191909152908252600192909201910161263c565b50505050905090565b600b546001600160a01b031690565b6001600160a01b031660009081526016602052604090205490565b61277f613414565b612788826128f6565b6127a45760405162461bcd60e51b815260040161083e90614514565b506000908152600c60209081526040808320815160e081018352815463ffffffff81168252600160201b810460ff908116151595830195909552600160281b8104909416151592810192909252600160301b8304600490810b810b900b6060830152600160581b9092046001600160a01b03166080820152600182015460a0820152600290910154820b820b90910b60c082015290565b60155490565b6001600160a01b03918216600090815260056020908152604080832093909416825291909152205460ff1690565b612877613414565b606460ff83161061289a5760405162461bcd60e51b815260040161083e90614219565b60ff82166000908152600d602052604090205461077d90612777565b60006001600160e01b031982166380ac58cd60e01b14806128e757506001600160e01b03198216635b5e139f60e01b145b8061077d575061077d82612e4b565b6000908152600260205260409020546001600160a01b0316151590565b600081815260046020526040902080546001600160a01b0319166001600160a01b038416908117909155819061294882611aeb565b6001600160a01b03167f8c5be1e5ebec7d5bd14f71427d1e84f3dd0314c0f7b2291e5b200ac8c7c3b92560405160405180910390a45050565b600061298c826128f6565b6129a85760405162461bcd60e51b815260040161083e90613fba565b60006129b383611aeb565b9050806001600160a01b0316846001600160a01b031614806129ee5750836001600160a01b03166129e384610817565b6001600160a01b0316145b806129fe57506129fe8185612841565b949350505050565b80471015612a265760405162461bcd60e51b815260040161083e90613f83565b6000826001600160a01b031682604051612a3f90613aab565b60006040518083038185875af1925050503d8060008114612a7c576040519150601f19603f3d011682016040523d82523d6000602084013e612a81565b606091505b50509050806108f65760405162461bcd60e51b815260040161083e90613f29565b826001600160a01b0316612ab582611aeb565b6001600160a01b031614612adb5760405162461bcd60e51b815260040161083e90614319565b6001600160a01b038216612b015760405162461bcd60e51b815260040161083e90613e88565b612b0c838383612e64565b612b17600082612913565b6001600160a01b0383166000908152600360205260408120805460019290612b4090849061485b565b90915550506001600160a01b0382166000908152600360205260408120805460019290612b6e9084906146b5565b909155505060008181526002602052604080822080546001600160a01b0319166001600160a01b0386811691821790925591518493918716917fddf252ad1be2c89b69c2b068fc378daa952ba7f163c4a11628f55a4df523b3ef91a4505050565b612be9828260405180602001604052806000815250612eed565b5050565b600a54604051630178b8bf60e01b81526000918291600160201b9091046001600160a01b031690630178b8bf90612c28908690600401613c83565b60206040518083038186803b158015612c4057600080fd5b505afa158015612c54573d6000803e3d6000fd5b505050506040513d601f19601f82011682018060405250810190612c789190613528565b604051631d9dabef60e11b81529091506001600160a01b03821690633b3b57de90612ca7908690600401613c83565b60206040518083038186803b158015612cbf57600080fd5b505afa158015612cd3573d6000803e3d6000fd5b505050506040513d601f19601f82011682018060405250810190612cf79190613528565b9392505050565b612d09848484612aa2565b612d1584848484612f20565b6121955760405162461bcd60e51b815260040161083e90613d41565b606081612d5657506040805180820190915260018152600360fc1b6020820152610780565b8160005b8115612d805780612d6a816148d9565b9150612d799050600a83614742565b9150612d5a565b6000816001600160401b03811115612da857634e487b7160e01b600052604160045260246000fd5b6040519080825280601f01601f191660200182016040528015612dd2576020820181803683370190505b5090505b84156129fe57612de760018361485b565b9150612df4600a86614938565b612dff9060306146b5565b60f81b818381518110612e2257634e487b7160e01b600052603260045260246000fd5b60200101906001600160f81b031916908160001a905350612e44600a86614742565b9450612dd6565b6001600160e01b031981166301ffc9a760e01b14919050565b612e6f8383836108f6565b6001600160a01b038316612e8b57612e868161303b565b612eae565b816001600160a01b0316836001600160a01b031614612eae57612eae838261307f565b6001600160a01b038216612eca57612ec58161311c565b6108f6565b826001600160a01b0316826001600160a01b0316146108f6576108f682826131f5565b612ef78383613239565b612f046000848484612f20565b6108f65760405162461bcd60e51b815260040161083e90613d41565b6000612f34846001600160a01b0316613318565b1561303057836001600160a01b031663150b7a02612f50610754565b8786866040518563ffffffff1660e01b8152600401612f729493929190613aff565b602060405180830381600087803b158015612f8c57600080fd5b505af1925050508015612fbc575060408051601f3d908101601f19168201909252612fb99181019061371b565b60015b613016573d808015612fea576040519150601f19603f3d011682016040523d82523d6000602084013e612fef565b606091505b50805161300e5760405162461bcd60e51b815260040161083e90613d41565b805181602001fd5b6001600160e01b031916630a85bd0160e11b1490506129fe565b506001949350505050565b600880546000838152600960205260408120829055600182018355919091527ff3f7a9fe364faab93b216da50a3214154f22a0a2b415b23a84c8169e8b636ee30155565b6000600161308c84611b20565b613096919061485b565b6000838152600760205260409020549091508082146130e9576001600160a01b03841660009081526006602090815260408083208584528252808320548484528184208190558352600790915290208190555b5060009182526007602090815260408084208490556001600160a01b039094168352600681528383209183525290812055565b60085460009061312e9060019061485b565b6000838152600960205260408120546008805493945090928490811061316457634e487b7160e01b600052603260045260246000fd5b90600052602060002001549050806008838154811061319357634e487b7160e01b600052603260045260246000fd5b60009182526020808320909101929092558281526009909152604080822084905585825281205560088054806131d957634e487b7160e01b600052603160045260246000fd5b6001900381819060005260206000200160009055905550505050565b600061320083611b20565b6001600160a01b039093166000908152600660209081526040808320868452825280832085905593825260079052919091209190915550565b6001600160a01b03821661325f5760405162461bcd60e51b815260040161083e906141e4565b613268816128f6565b156132855760405162461bcd60e51b815260040161083e90613d93565b61329160008383612e64565b6001600160a01b03821660009081526003602052604081208054600192906132ba9084906146b5565b909155505060008181526002602052604080822080546001600160a01b0319166001600160a01b03861690811790915590518392907fddf252ad1be2c89b69c2b068fc378daa952ba7f163c4a11628f55a4df523b3ef908290a45050565b3b151590565b82805461332a9061489e565b90600052602060002090601f01602090048101928261334c5760008555613392565b82601f1061336557805160ff1916838001178555613392565b82800160010185558215613392579182015b82811115613392578251825591602001919060010190613377565b5061339e929150613450565b5090565b604080516101208101825260008082526020820181905291810182905260608082018390526080820183905260a0820183905260c0820183905260e082019290925261010081019190915290565b50805460008255600302906000526020600020908101906134119190613465565b50565b6040805160e081018252600080825260208201819052918101829052606081018290526080810182905260a0810182905260c081019190915290565b5b8082111561339e5760008155600101613451565b8082111561339e5780546001600160a01b0319168155600061348a60018301826134a5565b506002810180546001600160601b0319169055600301613465565b5080546134b19061489e565b6000825580601f106134c35750613411565b601f0160209004906000526020600020908101906134119190613450565b803560ff8116811461078057600080fd5b805169ffffffffffffffffffff8116811461078057600080fd5b60006020828403121561351d578081fd5b8135612cf78161498e565b600060208284031215613539578081fd5b8151612cf78161498e565b60008060408385031215613556578081fd5b82356135618161498e565b915060208301356135718161498e565b809150509250929050565b600080600060608486031215613590578081fd5b833561359b8161498e565b925060208401356135ab8161498e565b929592945050506040919091013590565b600080600080608085870312156135d1578081fd5b84356135dc8161498e565b93506020858101356135ed8161498e565b93506040860135925060608601356001600160401b038082111561360f578384fd5b818801915088601f830112613622578384fd5b81358181111561363457613634614978565b604051601f8201601f191681018501838111828210171561365757613657614978565b60405281815283820185018b101561366d578586fd5b81858501868301379081019093019390935250939692955090935050565b6000806040838503121561369d578182fd5b82356136a88161498e565b91506020830135613571816149a3565b600080604083850312156136ca578182fd5b82356136d58161498e565b946020939093013593505050565b6000602082840312156136f4578081fd5b8151612cf7816149a3565b600060208284031215613710578081fd5b8135612cf7816149b1565b60006020828403121561372c578081fd5b8151612cf7816149b1565b60008060006040848603121561374b578081fd5b83356001600160401b0380821115613761578283fd5b818601915086601f830112613774578283fd5b813581811115613782578384fd5b876020828501011115613793578384fd5b6020928301955093506137a991860190506134e1565b90509250925092565b6000602082840312156137c3578081fd5b5035919050565b6000806000604084860312156137de578081fd5b8335925060208401356001600160401b03808211156137fb578283fd5b818601915086601f83011261380e578283fd5b81358181111561381c578384fd5b876020808302850101111561382f578384fd5b6020830194508093505050509250925092565b600080600060608486031215613856578081fd5b8335925060208401359150604084013580820b8114613873578182fd5b809150509250925092565b60008060408385031215613890578182fd5b823591506138a0602084016134e1565b90509250929050565b6000602082840312156138ba578081fd5b612cf7826134e1565b600080600080600060a086880312156138da578283fd5b6138e3866134f2565b9450602086015193506040860151925060608601519150613906608087016134f2565b90509295509295909350565b6001600160a01b03169052565b15159052565b6000815180845261393d816020860160208601614872565b601f01601f19169290920160200192915050565b60040b9052565b60000b9052565b805463ffffffff8116835260ff8160201c161515602084015261398b6040840160ff8360281c1661391f565b61399e606084018260301c60040b613951565b6139b860808401605883901c6001600160a01b0316613912565b50600181015460a0830152600281015460000b6108f660c0840182613958565b60006101208251845263ffffffff60208401511660208501526040830151613a03604086018261391f565b506060830151613a16606086018261391f565b506080830151613a296080860182613951565b5060a0830151613a3c60a0860182613912565b5060c083015160c085015260e0830151613a5960e0860182613958565b50610100808401518282870152613a7283870182613925565b9695505050505050565b60008351613a8e818460208801614872565b835190830190613aa2818360208801614872565b01949350505050565b90565b6001600160a01b0391909116815260200190565b6001600160a01b03929092168252602082015260400190565b6001600160a01b039384168152919092166020820152604081019190915260600190565b6001600160a01b0385811682528416602082015260408101839052608060608201819052600090613a7290830184613925565b6000602080830181845280855180835260408601915060408482028701019250838701855b82811015613b8557603f19888603018452613b738583516139d8565b94509285019290850190600101613b57565b5092979650505050505050565b60208082528251828201819052600091906040908185019080840286018301878501865b83811015613c2357888303603f19018552815180516001600160a01b0316845287810151608089860181905290613bef82870182613925565b838a01516001600160581b0316878b015260609384015160ff16939096019290925250509386019390860190600101613bb6565b509098975050505050505050565b6020808252825182820181905260009190848201906040850190845b81811015613c6c57835160ff1683529284019291840191600101613c4d565b50909695505050505050565b901515815260200190565b90815260200190565b6020810160028310613cae57634e487b7160e01b600052602160045260246000fd5b91905290565b600060208252612cf76020830184613925565b6020808252601590820152746e6f742079657420746f20737461727420766f746560581b604082015260600190565b6020808252602b908201527f455243373231456e756d657261626c653a206f776e657220696e646578206f7560408201526a74206f6620626f756e647360a81b606082015260800190565b60208082526032908201527f4552433732313a207472616e7366657220746f206e6f6e20455243373231526560408201527131b2b4bb32b91034b6b83632b6b2b73a32b960711b606082015260800190565b6020808252601c908201527f4552433732313a20746f6b656e20616c7265616479206d696e74656400000000604082015260600190565b6020808252600d908201526c185b1c9958591e481d9bdd1959609a1b604082015260600190565b6020808252600f908201526e1a9d5b99db195c881d1bdbc81bdb19608a1b604082015260600190565b6020808252600e908201526d39b437bab6321031329037b832b760911b604082015260600190565b60208082526026908201527f5061796d656e7453706c69747465723a206163636f756e7420686173206e6f2060408201526573686172657360d01b606082015260800190565b60208082526024908201527f4552433732313a207472616e7366657220746f20746865207a65726f206164646040820152637265737360e01b606082015260800190565b60208082526019908201527822a9219b99189d1030b8383937bb32903a379031b0b63632b960391b604082015260600190565b60208082526010908201526f0d2dcecc2d8d2c840dcc2dacad0c2e6d60831b604082015260600190565b6020808252603a908201527f416464726573733a20756e61626c6520746f2073656e642076616c75652c20726040820152791958da5c1a595b9d081b585e481a185d99481c995d995c9d195960321b606082015260800190565b6020808252601d908201527f416464726573733a20696e73756666696369656e742062616c616e6365000000604082015260600190565b6020808252602c908201527f4552433732313a206f70657261746f7220717565727920666f72206e6f6e657860408201526b34b9ba32b73a103a37b5b2b760a11b606082015260800190565b6020808252602b908201527f5061796d656e7453706c69747465723a206163636f756e74206973206e6f742060408201526a191d59481c185e5b595b9d60aa1b606082015260800190565b6020808252600f908201526e0c2d8e4cac2c8f240dedc40c4eae6d608b1b604082015260600190565b6020808252600c908201526b30b63932b0b23c9037b832b760a11b604082015260600190565b60208082526038908201527f4552433732313a20617070726f76652063616c6c6572206973206e6f74206f776040820152771b995c881b9bdc88185c1c1c9bdd995908199bdc88185b1b60421b606082015260800190565b602080825260129082015271696e646578206f7574206f662072616e676560701b604082015260600190565b6020808252602a908201527f4552433732313a2062616c616e636520717565727920666f7220746865207a65604082015269726f206164647265737360b01b606082015260800190565b60208082526029908201527f4552433732313a206f776e657220717565727920666f72206e6f6e657869737460408201526832b73a103a37b5b2b760b91b606082015260800190565b6020808252601390820152726e6f742079657420746f20656e6420766f746560681b604082015260600190565b6020808252818101527f4552433732313a206d696e7420746f20746865207a65726f2061646472657373604082015260600190565b6020808252600f908201526e1a5b9d985b1a5908189d5cda081251608a1b604082015260600190565b6020808252602c908201527f4552433732313a20617070726f76656420717565727920666f72206e6f6e657860408201526b34b9ba32b73a103a37b5b2b760a11b606082015260800190565b60208082526017908201527661747461636b65722063616e2774206f76657274616b6560481b604082015260600190565b60208082526010908201526f33b2b732b930ba34b7b71032b93937b960811b604082015260600190565b6020808252601690820152756e6f7420696e2070726f706f73696e6720737461676560501b604082015260600190565b60208082526029908201527f4552433732313a207472616e73666572206f6620746f6b656e2074686174206960408201526839903737ba1037bbb760b91b606082015260800190565b6020808252601390820152726e6f2070726f706f73616c20746f20766f746560681b604082015260600190565b60208082526021908201527f4552433732313a20617070726f76616c20746f2063757272656e74206f776e656040820152603960f91b606082015260800190565b6020808252601190820152703737ba1037baba1037b31036b0b933b4b760791b604082015260600190565b6020808252601390820152726e6f7420696e20766f74696e6720737461676560681b604082015260600190565b6020808252600e908201526d1b9bdd08195b9bdd59da08189a5960921b604082015260600190565b60208082526031908201527f4552433732313a207472616e736665722063616c6c6572206973206e6f74206f6040820152701ddb995c881b9bdc88185c1c1c9bdd9959607a1b606082015260800190565b6020808252602c908201527f455243373231456e756d657261626c653a20676c6f62616c20696e646578206f60408201526b7574206f6620626f756e647360a01b606082015260800190565b6020808252600d908201526c37baba1037b31036b0b933b4b760991b604082015260600190565b6020808252601d908201527f717565727920666f72206e6f6e6578697374656e74206a756e676c6572000000604082015260600190565b6020808252600e908201526d185b1c9958591e4818db1bdcd95960921b604082015260600190565b6020808252600990820152683737ba1037bbb732b960b91b604082015260600190565b815163ffffffff16815260208083015115159082015260408083015115159082015260608083015160040b908201526080808301516001600160a01b03169082015260a0808301519082015260c09182015160000b9181019190915260e00190565b60e081016110d1828461395f565b600060208252612cf760208301846139d8565b63ffffffff91909116815260200190565b600080821280156001600160ff1b038490038513161561464c5761464c61494c565b600160ff1b83900384128116156146655761466561494c565b50500190565b60008160040b8360040b82821282647fffffffff038213811516156146925761469261494c565b82647fffffffff190382128116156146ac576146ac61494c565b50019392505050565b600082198211156146c8576146c861494c565b500190565b600060ff821660ff84168060ff038211156146ea576146ea61494c565b019392505050565b60006001600160581b03828116848216808303821115613aa257613aa261494c565b60008261472357614723614962565b600160ff1b82146000198414161561473d5761473d61494c565b500590565b60008261475157614751614962565b500490565b600064ffffffffff8084168061476e5761476e614962565b92169190910492915050565b60006001600160ff1b03818413828413808216868404861116156147a0576147a061494c565b600160ff1b848712828116878305891216156147be576147be61494c565b8587129250878205871284841616156147d9576147d961494c565b878505871281841616156147ef576147ef61494c565b505050929093029392505050565b60008160001904831182151516156148175761481761494c565b500290565b60008083128015600160ff1b85018412161561483a5761483a61494c565b6001600160ff1b03840183138116156148555761485561494c565b50500390565b60008282101561486d5761486d61494c565b500390565b60005b8381101561488d578181015183820152602001614875565b838111156121955750506000910152565b6002810460018216806148b257607f821691505b602082108114156148d357634e487b7160e01b600052602260045260246000fd5b50919050565b60006000198214156148ed576148ed61494c565b5060010190565b600063ffffffff8083168181141561490e5761490e61494c565b6001019392505050565b600060ff821660ff81141561492f5761492f61494c565b60010192915050565b60008261494757614947614962565b500690565b634e487b7160e01b600052601160045260246000fd5b634e487b7160e01b600052601260045260246000fd5b634e487b7160e01b600052604160045260246000fd5b6001600160a01b038116811461341157600080fd5b801515811461341157600080fd5b6001600160e01b03198116811461341157600080fdfefa534782d33171b4fd6bad477513fbf21d9c8d47c60cd6cb4dd49ba52a6b5cb6a2646970667358221220d50345958f7afc807d8c7467f2ffdfeafa9bfc8374e3c6ada64c5fa6956a106864736f6c6343000800003360806040523480156200001157600080fd5b5060405162000d0a38038062000d0a83398101604081905262000034916200027b565b6040518060400160405280600e81526020016d4a756e676c655265736f7572636560901b815250604051806040016040528060038152602001622523a960e91b81525081600390805190602001906200008f929190620001d5565b508051620000a5906004906020840190620001d5565b505050620000cd620000bc620000ea60201b60201c565b6969e10de76676d0800000620000ee565b620000e3816969e10de76676d0800000620000ee565b506200034d565b3390565b6001600160a01b038216620001205760405162461bcd60e51b81526004016200011790620002ab565b60405180910390fd5b6200012e60008383620001d0565b8060026000828254620001429190620002eb565b90915550506001600160a01b0382166000908152602081905260408120805483929062000171908490620002eb565b90915550506040516001600160a01b038316906000907fddf252ad1be2c89b69c2b068fc378daa952ba7f163c4a11628f55a4df523b3ef90620001b6908590620002e2565b60405180910390a3620001cc60008383620001d0565b5050565b505050565b828054620001e39062000310565b90600052602060002090601f01602090048101928262000207576000855562000252565b82601f106200022257805160ff191683800117855562000252565b8280016001018555821562000252579182015b828111156200025257825182559160200191906001019062000235565b506200026092915062000264565b5090565b5b8082111562000260576000815560010162000265565b6000602082840312156200028d578081fd5b81516001600160a01b0381168114620002a4578182fd5b9392505050565b6020808252601f908201527f45524332303a206d696e7420746f20746865207a65726f206164647265737300604082015260600190565b90815260200190565b600082198211156200030b57634e487b7160e01b81526011600452602481fd5b500190565b6002810460018216806200032557607f821691505b602082108114156200034757634e487b7160e01b600052602260045260246000fd5b50919050565b6109ad806200035d6000396000f3fe608060405234801561001057600080fd5b50600436106100995760003560e01c806306fdde031461009e578063095ea7b3146100bc57806318160ddd146100dc57806323b872dd146100f1578063313ce56714610104578063395093511461011957806370a082311461012c57806395d89b411461013f578063a457c2d714610147578063a9059cbb1461015a578063dd62ed3e1461016d575b600080fd5b6100a6610180565b6040516100b391906106cd565b60405180910390f35b6100cf6100ca366004610699565b610212565b6040516100b391906106c2565b6100e461022f565b6040516100b39190610901565b6100cf6100ff36600461065e565b610235565b61010c6102ce565b6040516100b3919061090a565b6100cf610127366004610699565b6102d3565b6100e461013a36600461060b565b610327565b6100a6610346565b6100cf610155366004610699565b610355565b6100cf610168366004610699565b6103ce565b6100e461017b36600461062c565b6103e2565b60606003805461018f9061093c565b80601f01602080910402602001604051908101604052809291908181526020018280546101bb9061093c565b80156102085780601f106101dd57610100808354040283529160200191610208565b820191906000526020600020905b8154815290600101906020018083116101eb57829003601f168201915b5050505050905090565b600061022661021f61040d565b8484610411565b50600192915050565b60025490565b60006102428484846104c5565b6001600160a01b03841660009081526001602052604081208161026361040d565b6001600160a01b03166001600160a01b03168152602001908152602001600020549050828110156102af5760405162461bcd60e51b81526004016102a6906107eb565b60405180910390fd5b6102c3856102bb61040d565b858403610411565b506001949350505050565b601290565b60006102266102e061040d565b8484600160006102ee61040d565b6001600160a01b03908116825260208083019390935260409182016000908120918b16815292529020546103229190610918565b610411565b6001600160a01b0381166000908152602081905260409020545b919050565b60606004805461018f9061093c565b6000806001600061036461040d565b6001600160a01b03908116825260208083019390935260409182016000908120918816815292529020549050828110156103b05760405162461bcd60e51b81526004016102a6906108bc565b6103c46103bb61040d565b85858403610411565b5060019392505050565b60006102266103db61040d565b84846104c5565b6001600160a01b03918216600090815260016020908152604080832093909416825291909152205490565b3390565b6001600160a01b0383166104375760405162461bcd60e51b81526004016102a690610878565b6001600160a01b03821661045d5760405162461bcd60e51b81526004016102a690610763565b6001600160a01b0380841660008181526001602090815260408083209487168084529490915290819020849055517f8c5be1e5ebec7d5bd14f71427d1e84f3dd0314c0f7b2291e5b200ac8c7c3b925906104b8908590610901565b60405180910390a3505050565b6001600160a01b0383166104eb5760405162461bcd60e51b81526004016102a690610833565b6001600160a01b0382166105115760405162461bcd60e51b81526004016102a690610720565b61051c8383836105ef565b6001600160a01b038316600090815260208190526040902054818110156105555760405162461bcd60e51b81526004016102a6906107a5565b6001600160a01b0380851660009081526020819052604080822085850390559185168152908120805484929061058c908490610918565b92505081905550826001600160a01b0316846001600160a01b03167fddf252ad1be2c89b69c2b068fc378daa952ba7f163c4a11628f55a4df523b3ef846040516105d69190610901565b60405180910390a36105e98484846105ef565b50505050565b505050565b80356001600160a01b038116811461034157600080fd5b60006020828403121561061c578081fd5b610625826105f4565b9392505050565b6000806040838503121561063e578081fd5b610647836105f4565b9150610655602084016105f4565b90509250929050565b600080600060608486031215610672578081fd5b61067b846105f4565b9250610689602085016105f4565b9150604084013590509250925092565b600080604083850312156106ab578182fd5b6106b4836105f4565b946020939093013593505050565b901515815260200190565b6000602080835283518082850152825b818110156106f9578581018301518582016040015282016106dd565b8181111561070a5783604083870101525b50601f01601f1916929092016040019392505050565b60208082526023908201527f45524332303a207472616e7366657220746f20746865207a65726f206164647260408201526265737360e81b606082015260800190565b60208082526022908201527f45524332303a20617070726f766520746f20746865207a65726f206164647265604082015261737360f01b606082015260800190565b60208082526026908201527f45524332303a207472616e7366657220616d6f756e7420657863656564732062604082015265616c616e636560d01b606082015260800190565b60208082526028908201527f45524332303a207472616e7366657220616d6f756e74206578636565647320616040820152676c6c6f77616e636560c01b606082015260800190565b60208082526025908201527f45524332303a207472616e736665722066726f6d20746865207a65726f206164604082015264647265737360d81b606082015260800190565b60208082526024908201527f45524332303a20617070726f76652066726f6d20746865207a65726f206164646040820152637265737360e01b606082015260800190565b60208082526025908201527f45524332303a2064656372656173656420616c6c6f77616e63652062656c6f77604082015264207a65726f60d81b606082015260800190565b90815260200190565b60ff91909116815260200190565b6000821982111561093757634e487b7160e01b81526011600452602481fd5b500190565b60028104600182168061095057607f821691505b6020821081141561097157634e487b7160e01b600052602260045260246000fd5b5091905056fea2646970667358221220f17db4d0512a267d750e98075e3946a377dbb7dcc6291c840ade766c8b2c852f64736f6c63430008000033",
  "devdoc": {
    "kind": "dev",
    "methods": {
      "approve(address,uint256)": {
        "details": "See {IERC721-approve}."
      },
      "balanceOf(address)": {
        "details": "See {IERC721-balanceOf}."
      },
      "constructor": {
        "details": "Setup PaymentSplitter"
      },
      "getApproved(uint256)": {
        "details": "See {IERC721-getApproved}."
      },
      "isApprovedForAll(address,address)": {
        "details": "See {IERC721-isApprovedForAll}."
      },
      "name()": {
        "details": "See {IERC721Metadata-name}."
      },
      "ownerOf(uint256)": {
        "details": "See {IERC721-ownerOf}."
      },
      "payee(uint256)": {
        "details": "Getter for the address of the payee number `index`."
      },
      "release(address)": {
        "details": "Triggers a transfer to `account` of the amount of Ether they are owed, according to their percentage of the total shares and their previous withdrawals."
      },
      "released(address)": {
        "details": "Getter for the amount of Ether already released to a payee."
      },
      "safeTransferFrom(address,address,uint256)": {
        "details": "See {IERC721-safeTransferFrom}."
      },
      "safeTransferFrom(address,address,uint256,bytes)": {
        "details": "See {IERC721-safeTransferFrom}."
      },
      "setApprovalForAll(address,bool)": {
        "details": "See {IERC721-setApprovalForAll}."
      },
      "shares(address)": {
        "details": "Getter for the amount of shares held by an account."
      },
      "supportsInterface(bytes4)": {
        "details": "See {IERC165-supportsInterface}."
      },
      "symbol()": {
        "details": "See {IERC721Metadata-symbol}."
      },
      "tokenByIndex(uint256)": {
        "details": "See {IERC721Enumerable-tokenByIndex}."
      },
      "tokenOfOwnerByIndex(address,uint256)": {
        "details": "See {IERC721Enumerable-tokenOfOwnerByIndex}."
      },
      "totalReleased()": {
        "details": "Getter for the total amount of Ether already released."
      },
      "totalShares()": {
        "details": "Getter for the total shares held by payees."
      },
      "totalSupply()": {
        "details": "See {IERC721Enumerable-totalSupply}."
      },
      "transferFrom(address,address,uint256)": {
        "details": "See {IERC721-transferFrom}."
      }
    },
    "version": 1
  },
  "userdoc": {
    "kind": "user",
    "methods": {
      "camp(uint256,uint8)": {
        "notice": "See {JungleInterface-camp}"
      },
      "close(uint256)": {
        "notice": "See {MetaJungleInterface-close}."
      },
      "endVote()": {
        "notice": "See {JungleInterface-endVote}"
      },
      "gank(uint256)": {
        "notice": "See {MetaJungleInterface-gank}."
      },
      "generation()": {
        "notice": "Current generation"
      },
      "getAddrOfJGR()": {
        "notice": "Return address of JGR contract"
      },
      "getAllProposals()": {
        "notice": "Return all proposals' contents"
      },
      "getJunglerData(uint256)": {
        "notice": "Return jungler data given jungler ID"
      },
      "getJunglerOnBush(uint8)": {
        "notice": "Return jungler ID given bush ID"
      },
      "getJunglerProfile(uint256)": {
        "notice": "Get ceratin jungler profile"
      },
      "getOwnerJunglerList(address)": {
        "notice": "Get all profile of junlers of given owner"
      },
      "getVotableBushesByOwner(address)": {
        "notice": "Return votable bushes given owner"
      },
      "open(uint256,bytes32,int8)": {
        "notice": "See {MetaJungleInterface-open}."
      },
      "propose(string,uint8)": {
        "notice": "See {JungleInterface-propose}"
      },
      "stage()": {
        "notice": "Stage of proposing or voting"
      },
      "startVote()": {
        "notice": "See {JungleInterface-startVote}"
      },
      "summon()": {
        "notice": "see {MetaJungleInterface-summon}"
      },
      "tokenURI(uint256)": {
        "notice": "Customized {ERC721-tokenURI}"
      },
      "vote(uint256,uint8[])": {
        "notice": "See {JungleInterface-vote}"
      }
    },
    "version": 1
  },
  "storageLayout": {
    "storage": [
      {
        "astId": 1072,
        "contract": "contracts/MetaJungle.sol:MetaJungle",
        "label": "_name",
        "offset": 0,
        "slot": "0",
        "type": "t_string_storage"
      },
      {
        "astId": 1074,
        "contract": "contracts/MetaJungle.sol:MetaJungle",
        "label": "_symbol",
        "offset": 0,
        "slot": "1",
        "type": "t_string_storage"
      },
      {
        "astId": 1078,
        "contract": "contracts/MetaJungle.sol:MetaJungle",
        "label": "_owners",
        "offset": 0,
        "slot": "2",
        "type": "t_mapping(t_uint256,t_address)"
      },
      {
        "astId": 1082,
        "contract": "contracts/MetaJungle.sol:MetaJungle",
        "label": "_balances",
        "offset": 0,
        "slot": "3",
        "type": "t_mapping(t_address,t_uint256)"
      },
      {
        "astId": 1086,
        "contract": "contracts/MetaJungle.sol:MetaJungle",
        "label": "_tokenApprovals",
        "offset": 0,
        "slot": "4",
        "type": "t_mapping(t_uint256,t_address)"
      },
      {
        "astId": 1092,
        "contract": "contracts/MetaJungle.sol:MetaJungle",
        "label": "_operatorApprovals",
        "offset": 0,
        "slot": "5",
        "type": "t_mapping(t_address,t_mapping(t_address,t_bool))"
      },
      {
        "astId": 2011,
        "contract": "contracts/MetaJungle.sol:MetaJungle",
        "label": "_ownedTokens",
        "offset": 0,
        "slot": "6",
        "type": "t_mapping(t_address,t_mapping(t_uint256,t_uint256))"
      },
      {
        "astId": 2015,
        "contract": "contracts/MetaJungle.sol:MetaJungle",
        "label": "_ownedTokensIndex",
        "offset": 0,
        "slot": "7",
        "type": "t_mapping(t_uint256,t_uint256)"
      },
      {
        "astId": 2018,
        "contract": "contracts/MetaJungle.sol:MetaJungle",
        "label": "_allTokens",
        "offset": 0,
        "slot": "8",
        "type": "t_array(t_uint256)dyn_storage"
      },
      {
        "astId": 2022,
        "contract": "contracts/MetaJungle.sol:MetaJungle",
        "label": "_allTokensIndex",
        "offset": 0,
        "slot": "9",
        "type": "t_mapping(t_uint256,t_uint256)"
      },
      {
        "astId": 4066,
        "contract": "contracts/MetaJungle.sol:MetaJungle",
        "label": "generation",
        "offset": 0,
        "slot": "10",
        "type": "t_uint32"
      },
      {
        "astId": 4070,
        "contract": "contracts/MetaJungle.sol:MetaJungle",
        "label": "_ens",
        "offset": 4,
        "slot": "10",
        "type": "t_contract(ENS)4049"
      },
      {
        "astId": 4074,
        "contract": "contracts/MetaJungle.sol:MetaJungle",
        "label": "_jgrContract",
        "offset": 0,
        "slot": "11",
        "type": "t_contract(IERC20)1021"
      },
      {
        "astId": 4080,
        "contract": "contracts/MetaJungle.sol:MetaJungle",
        "label": "_junglerData",
        "offset": 0,
        "slot": "12",
        "type": "t_mapping(t_uint256,t_struct(JunglerData)4095_storage)"
      },
      {
        "astId": 3281,
        "contract": "contracts/MetaJungle.sol:MetaJungle",
        "label": "_hideOnBush",
        "offset": 0,
        "slot": "13",
        "type": "t_mapping(t_uint8,t_uint256)"
      },
      {
        "astId": 3286,
        "contract": "contracts/MetaJungle.sol:MetaJungle",
        "label": "_bushTimer",
        "offset": 0,
        "slot": "14",
        "type": "t_mapping(t_uint8,t_uint256)"
      },
      {
        "astId": 3291,
        "contract": "contracts/MetaJungle.sol:MetaJungle",
        "label": "_bushGeneration",
        "offset": 0,
        "slot": "15",
        "type": "t_mapping(t_uint8,t_uint32)"
      },
      {
        "astId": 3295,
        "contract": "contracts/MetaJungle.sol:MetaJungle",
        "label": "stage",
        "offset": 0,
        "slot": "16",
        "type": "t_enum(Stage)3298"
      },
      {
        "astId": 3630,
        "contract": "contracts/MetaJungle.sol:MetaJungle",
        "label": "_latestUpdateTime",
        "offset": 0,
        "slot": "17",
        "type": "t_uint256"
      },
      {
        "astId": 3644,
        "contract": "contracts/MetaJungle.sol:MetaJungle",
        "label": "_proposals",
        "offset": 0,
        "slot": "18",
        "type": "t_array(t_struct(Proposal)3639_storage)dyn_storage"
      },
      {
        "astId": 3649,
        "contract": "contracts/MetaJungle.sol:MetaJungle",
        "label": "_baseURIofGeneration",
        "offset": 0,
        "slot": "19",
        "type": "t_mapping(t_uint32,t_string_storage)"
      },
      {
        "astId": 130,
        "contract": "contracts/MetaJungle.sol:MetaJungle",
        "label": "_totalShares",
        "offset": 0,
        "slot": "20",
        "type": "t_uint256"
      },
      {
        "astId": 132,
        "contract": "contracts/MetaJungle.sol:MetaJungle",
        "label": "_totalReleased",
        "offset": 0,
        "slot": "21",
        "type": "t_uint256"
      },
      {
        "astId": 136,
        "contract": "contracts/MetaJungle.sol:MetaJungle",
        "label": "_shares",
        "offset": 0,
        "slot": "22",
        "type": "t_mapping(t_address,t_uint256)"
      },
      {
        "astId": 140,
        "contract": "contracts/MetaJungle.sol:MetaJungle",
        "label": "_released",
        "offset": 0,
        "slot": "23",
        "type": "t_mapping(t_address,t_uint256)"
      },
      {
        "astId": 143,
        "contract": "contracts/MetaJungle.sol:MetaJungle",
        "label": "_payees",
        "offset": 0,
        "slot": "24",
        "type": "t_array(t_address)dyn_storage"
      }
    ],
    "types": {
      "t_address": {
        "encoding": "inplace",
        "label": "address",
        "numberOfBytes": "20"
      },
      "t_array(t_address)dyn_storage": {
        "base": "t_address",
        "encoding": "dynamic_array",
        "label": "address[]",
        "numberOfBytes": "32"
      },
      "t_array(t_struct(Proposal)3639_storage)dyn_storage": {
        "base": "t_struct(Proposal)3639_storage",
        "encoding": "dynamic_array",
        "label": "struct JungleGovernance.Proposal[]",
        "numberOfBytes": "32"
      },
      "t_array(t_uint256)dyn_storage": {
        "base": "t_uint256",
        "encoding": "dynamic_array",
        "label": "uint256[]",
        "numberOfBytes": "32"
      },
      "t_bool": {
        "encoding": "inplace",
        "label": "bool",
        "numberOfBytes": "1"
      },
      "t_contract(ENS)4049": {
        "encoding": "inplace",
        "label": "contract ENS",
        "numberOfBytes": "20"
      },
      "t_contract(IERC20)1021": {
        "encoding": "inplace",
        "label": "contract IERC20",
        "numberOfBytes": "20"
      },
      "t_enum(Stage)3298": {
        "encoding": "inplace",
        "label": "enum JungleBush.Stage",
        "numberOfBytes": "1"
      },
      "t_int256": {
        "encoding": "inplace",
        "label": "int256",
        "numberOfBytes": "32"
      },
      "t_int40": {
        "encoding": "inplace",
        "label": "int40",
        "numberOfBytes": "5"
      },
      "t_int8": {
        "encoding": "inplace",
        "label": "int8",
        "numberOfBytes": "1"
      },
      "t_mapping(t_address,t_bool)": {
        "encoding": "mapping",
        "key": "t_address",
        "label": "mapping(address => bool)",
        "numberOfBytes": "32",
        "value": "t_bool"
      },
      "t_mapping(t_address,t_mapping(t_address,t_bool))": {
        "encoding": "mapping",
        "key": "t_address",
        "label": "mapping(address => mapping(address => bool))",
        "numberOfBytes": "32",
        "value": "t_mapping(t_address,t_bool)"
      },
      "t_mapping(t_address,t_mapping(t_uint256,t_uint256))": {
        "encoding": "mapping",
        "key": "t_address",
        "label": "mapping(address => mapping(uint256 => uint256))",
        "numberOfBytes": "32",
        "value": "t_mapping(t_uint256,t_uint256)"
      },
      "t_mapping(t_address,t_uint256)": {
        "encoding": "mapping",
        "key": "t_address",
        "label": "mapping(address => uint256)",
        "numberOfBytes": "32",
        "value": "t_uint256"
      },
      "t_mapping(t_uint256,t_address)": {
        "encoding": "mapping",
        "key": "t_uint256",
        "label": "mapping(uint256 => address)",
        "numberOfBytes": "32",
        "value": "t_address"
      },
      "t_mapping(t_uint256,t_struct(JunglerData)4095_storage)": {
        "encoding": "mapping",
        "key": "t_uint256",
        "label": "mapping(uint256 => struct Jungler.JunglerData)",
        "numberOfBytes": "32",
        "value": "t_struct(JunglerData)4095_storage"
      },
      "t_mapping(t_uint256,t_uint256)": {
        "encoding": "mapping",
        "key": "t_uint256",
        "label": "mapping(uint256 => uint256)",
        "numberOfBytes": "32",
        "value": "t_uint256"
      },
      "t_mapping(t_uint32,t_string_storage)": {
        "encoding": "mapping",
        "key": "t_uint32",
        "label": "mapping(uint32 => string)",
        "numberOfBytes": "32",
        "value": "t_string_storage"
      },
      "t_mapping(t_uint8,t_uint256)": {
        "encoding": "mapping",
        "key": "t_uint8",
        "label": "mapping(uint8 => uint256)",
        "numberOfBytes": "32",
        "value": "t_uint256"
      },
      "t_mapping(t_uint8,t_uint32)": {
        "encoding": "mapping",
        "key": "t_uint8",
        "label": "mapping(uint8 => uint32)",
        "numberOfBytes": "32",
        "value": "t_uint32"
      },
      "t_string_storage": {
        "encoding": "bytes",
        "label": "string",
        "numberOfBytes": "32"
      },
      "t_struct(JunglerData)4095_storage": {
        "encoding": "inplace",
        "label": "struct Jungler.JunglerData",
        "members": [
          {
            "astId": 4082,
            "contract": "contracts/MetaJungle.sol:MetaJungle",
            "label": "generation",
            "offset": 0,
            "slot": "0",
            "type": "t_uint32"
          },
          {
            "astId": 4084,
            "contract": "contracts/MetaJungle.sol:MetaJungle",
            "label": "isOpen",
            "offset": 4,
            "slot": "0",
            "type": "t_bool"
          },
          {
            "astId": 4086,
            "contract": "contracts/MetaJungle.sol:MetaJungle",
            "label": "isCampping",
            "offset": 5,
            "slot": "0",
            "type": "t_bool"
          },
          {
            "astId": 4088,
            "contract": "contracts/MetaJungle.sol:MetaJungle",
            "label": "power",
            "offset": 6,
            "slot": "0",
            "type": "t_int40"
          },
          {
            "astId": 4090,
            "contract": "contracts/MetaJungle.sol:MetaJungle",
            "label": "proxy",
            "offset": 11,
            "slot": "0",
            "type": "t_address"
          },
          {
            "astId": 4092,
            "contract": "contracts/MetaJungle.sol:MetaJungle",
            "label": "openPrice",
            "offset": 0,
            "slot": "1",
            "type": "t_int256"
          },
          {
            "astId": 4094,
            "contract": "contracts/MetaJungle.sol:MetaJungle",
            "label": "leverage",
            "offset": 0,
            "slot": "2",
            "type": "t_int8"
          }
        ],
        "numberOfBytes": "96"
      },
      "t_struct(Proposal)3639_storage": {
        "encoding": "inplace",
        "label": "struct JungleGovernance.Proposal",
        "members": [
          {
            "astId": 3632,
            "contract": "contracts/MetaJungle.sol:MetaJungle",
            "label": "proposer",
            "offset": 0,
            "slot": "0",
            "type": "t_address"
          },
          {
            "astId": 3634,
            "contract": "contracts/MetaJungle.sol:MetaJungle",
            "label": "baseURI",
            "offset": 0,
            "slot": "1",
            "type": "t_string_storage"
          },
          {
            "astId": 3636,
            "contract": "contracts/MetaJungle.sol:MetaJungle",
            "label": "bid",
            "offset": 0,
            "slot": "2",
            "type": "t_uint88"
          },
          {
            "astId": 3638,
            "contract": "contracts/MetaJungle.sol:MetaJungle",
            "label": "voteCount",
            "offset": 11,
            "slot": "2",
            "type": "t_uint8"
          }
        ],
        "numberOfBytes": "96"
      },
      "t_uint256": {
        "encoding": "inplace",
        "label": "uint256",
        "numberOfBytes": "32"
      },
      "t_uint32": {
        "encoding": "inplace",
        "label": "uint32",
        "numberOfBytes": "4"
      },
      "t_uint8": {
        "encoding": "inplace",
        "label": "uint8",
        "numberOfBytes": "1"
      },
      "t_uint88": {
        "encoding": "inplace",
        "label": "uint88",
        "numberOfBytes": "11"
      }
    }
  }
}