{
  "address": "0x4fabC5BFB8955bbea54478e87Be0D91099704217",
  "abi": [
    {
      "inputs": [
        {
          "internalType": "address",
          "name": "ensRegistryAddr",
          "type": "address"
        },
        {
          "internalType": "string",
          "name": "baseURI",
          "type": "string"
        },
        {
          "internalType": "address[]",
          "name": "payees",
          "type": "address[]"
        },
        {
          "internalType": "uint256[]",
          "name": "shares",
          "type": "uint256[]"
        }
      ],
      "stateMutability": "nonpayable",
      "type": "constructor"
    },
    {
      "anonymous": false,
      "inputs": [
        {
          "indexed": true,
          "internalType": "address",
          "name": "owner",
          "type": "address"
        },
        {
          "indexed": true,
          "internalType": "address",
          "name": "approved",
          "type": "address"
        },
        {
          "indexed": true,
          "internalType": "uint256",
          "name": "tokenId",
          "type": "uint256"
        }
      ],
      "name": "Approval",
      "type": "event"
    },
    {
      "anonymous": false,
      "inputs": [
        {
          "indexed": true,
          "internalType": "address",
          "name": "owner",
          "type": "address"
        },
        {
          "indexed": true,
          "internalType": "address",
          "name": "operator",
          "type": "address"
        },
        {
          "indexed": false,
          "internalType": "bool",
          "name": "approved",
          "type": "bool"
        }
      ],
      "name": "ApprovalForAll",
      "type": "event"
    },
    {
      "anonymous": false,
      "inputs": [
        {
          "indexed": true,
          "internalType": "uint256",
          "name": "id",
          "type": "uint256"
        },
        {
          "components": [
            {
              "internalType": "uint32",
              "name": "generation",
              "type": "uint32"
            },
            {
              "internalType": "bool",
              "name": "isOpen",
              "type": "bool"
            },
            {
              "internalType": "bool",
              "name": "isCampping",
              "type": "bool"
            },
            {
              "internalType": "int40",
              "name": "power",
              "type": "int40"
            },
            {
              "internalType": "address",
              "name": "proxy",
              "type": "address"
            },
            {
              "internalType": "int256",
              "name": "openPrice",
              "type": "int256"
            },
            {
              "internalType": "int8",
              "name": "leverage",
              "type": "int8"
            }
          ],
          "indexed": false,
          "internalType": "struct Jungler.JunglerData",
          "name": "data",
          "type": "tuple"
        }
      ],
      "name": "CurrentJunglerState",
      "type": "event"
    },
    {
      "anonymous": false,
      "inputs": [
        {
          "indexed": false,
          "internalType": "address",
          "name": "account",
          "type": "address"
        },
        {
          "indexed": false,
          "internalType": "uint256",
          "name": "shares",
          "type": "uint256"
        }
      ],
      "name": "PayeeAdded",
      "type": "event"
    },
    {
      "anonymous": false,
      "inputs": [
        {
          "indexed": false,
          "internalType": "address",
          "name": "from",
          "type": "address"
        },
        {
          "indexed": false,
          "internalType": "uint256",
          "name": "amount",
          "type": "uint256"
        }
      ],
      "name": "PaymentReceived",
      "type": "event"
    },
    {
      "anonymous": false,
      "inputs": [
        {
          "indexed": false,
          "internalType": "address",
          "name": "to",
          "type": "address"
        },
        {
          "indexed": false,
          "internalType": "uint256",
          "name": "amount",
          "type": "uint256"
        }
      ],
      "name": "PaymentReleased",
      "type": "event"
    },
    {
      "anonymous": false,
      "inputs": [
        {
          "indexed": true,
          "internalType": "address",
          "name": "from",
          "type": "address"
        },
        {
          "indexed": true,
          "internalType": "address",
          "name": "to",
          "type": "address"
        },
        {
          "indexed": true,
          "internalType": "uint256",
          "name": "tokenId",
          "type": "uint256"
        }
      ],
      "name": "Transfer",
      "type": "event"
    },
    {
      "inputs": [
        {
          "internalType": "address",
          "name": "to",
          "type": "address"
        },
        {
          "internalType": "uint256",
          "name": "tokenId",
          "type": "uint256"
        }
      ],
      "name": "approve",
      "outputs": [],
      "stateMutability": "nonpayable",
      "type": "function"
    },
    {
      "inputs": [
        {
          "internalType": "address",
          "name": "owner",
          "type": "address"
        }
      ],
      "name": "balanceOf",
      "outputs": [
        {
          "internalType": "uint256",
          "name": "",
          "type": "uint256"
        }
      ],
      "stateMutability": "view",
      "type": "function"
    },
    {
      "inputs": [
        {
          "internalType": "uint256",
          "name": "junglerId",
          "type": "uint256"
        },
        {
          "internalType": "uint8",
          "name": "bushId",
          "type": "uint8"
        }
      ],
      "name": "camp",
      "outputs": [],
      "stateMutability": "nonpayable",
      "type": "function"
    },
    {
      "inputs": [
        {
          "internalType": "uint256",
          "name": "junglerId",
          "type": "uint256"
        }
      ],
      "name": "close",
      "outputs": [],
      "stateMutability": "nonpayable",
      "type": "function"
    },
    {
      "inputs": [],
      "name": "endVote",
      "outputs": [],
      "stateMutability": "nonpayable",
      "type": "function"
    },
    {
      "inputs": [
        {
          "internalType": "uint256",
          "name": "junglerId",
          "type": "uint256"
        }
      ],
      "name": "gank",
      "outputs": [],
      "stateMutability": "nonpayable",
      "type": "function"
    },
    {
      "inputs": [],
      "name": "generation",
      "outputs": [
        {
          "internalType": "uint32",
          "name": "",
          "type": "uint32"
        }
      ],
      "stateMutability": "view",
      "type": "function"
    },
    {
      "inputs": [],
      "name": "getAddrOfJGR",
      "outputs": [
        {
          "internalType": "address",
          "name": "",
          "type": "address"
        }
      ],
      "stateMutability": "view",
      "type": "function"
    },
    {
      "inputs": [],
      "name": "getAllProposals",
      "outputs": [
        {
          "components": [
            {
              "internalType": "address",
              "name": "proposer",
              "type": "address"
            },
            {
              "internalType": "string",
              "name": "baseURI",
              "type": "string"
            },
            {
              "internalType": "uint88",
              "name": "bid",
              "type": "uint88"
            },
            {
              "internalType": "uint8",
              "name": "voteCount",
              "type": "uint8"
            }
          ],
          "internalType": "struct JungleGovernance.Proposal[]",
          "name": "",
          "type": "tuple[]"
        }
      ],
      "stateMutability": "view",
      "type": "function"
    },
    {
      "inputs": [
        {
          "internalType": "uint256",
          "name": "tokenId",
          "type": "uint256"
        }
      ],
      "name": "getApproved",
      "outputs": [
        {
          "internalType": "address",
          "name": "",
          "type": "address"
        }
      ],
      "stateMutability": "view",
      "type": "function"
    },
    {
      "inputs": [
        {
          "internalType": "uint256",
          "name": "junglerId",
          "type": "uint256"
        }
      ],
      "name": "getJunglerData",
      "outputs": [
        {
          "components": [
            {
              "internalType": "uint32",
              "name": "generation",
              "type": "uint32"
            },
            {
              "internalType": "bool",
              "name": "isOpen",
              "type": "bool"
            },
            {
              "internalType": "bool",
              "name": "isCampping",
              "type": "bool"
            },
            {
              "internalType": "int40",
              "name": "power",
              "type": "int40"
            },
            {
              "internalType": "address",
              "name": "proxy",
              "type": "address"
            },
            {
              "internalType": "int256",
              "name": "openPrice",
              "type": "int256"
            },
            {
              "internalType": "int8",
              "name": "leverage",
              "type": "int8"
            }
          ],
          "internalType": "struct Jungler.JunglerData",
          "name": "",
          "type": "tuple"
        }
      ],
      "stateMutability": "view",
      "type": "function"
    },
    {
      "inputs": [
        {
          "internalType": "uint8",
          "name": "bushId",
          "type": "uint8"
        }
      ],
      "name": "getJunglerOnBush",
      "outputs": [
        {
          "internalType": "uint256",
          "name": "",
          "type": "uint256"
        }
      ],
      "stateMutability": "view",
      "type": "function"
    },
    {
      "inputs": [
        {
          "internalType": "uint256",
          "name": "junglerId",
          "type": "uint256"
        }
      ],
      "name": "getJunglerProfile",
      "outputs": [
        {
          "components": [
            {
              "internalType": "uint256",
              "name": "id",
              "type": "uint256"
            },
            {
              "internalType": "uint32",
              "name": "generation",
              "type": "uint32"
            },
            {
              "internalType": "bool",
              "name": "isOpen",
              "type": "bool"
            },
            {
              "internalType": "bool",
              "name": "isCampping",
              "type": "bool"
            },
            {
              "internalType": "int40",
              "name": "power",
              "type": "int40"
            },
            {
              "internalType": "address",
              "name": "proxy",
              "type": "address"
            },
            {
              "internalType": "int256",
              "name": "openPrice",
              "type": "int256"
            },
            {
              "internalType": "int8",
              "name": "leverage",
              "type": "int8"
            },
            {
              "internalType": "string",
              "name": "tokenURI",
              "type": "string"
            }
          ],
          "internalType": "struct MetaJungle.JunglerProfile",
          "name": "",
          "type": "tuple"
        }
      ],
      "stateMutability": "view",
      "type": "function"
    },
    {
      "inputs": [
        {
          "internalType": "address",
          "name": "owner",
          "type": "address"
        }
      ],
      "name": "getOwnerJunglerList",
      "outputs": [
        {
          "components": [
            {
              "internalType": "uint256",
              "name": "id",
              "type": "uint256"
            },
            {
              "internalType": "uint32",
              "name": "generation",
              "type": "uint32"
            },
            {
              "internalType": "bool",
              "name": "isOpen",
              "type": "bool"
            },
            {
              "internalType": "bool",
              "name": "isCampping",
              "type": "bool"
            },
            {
              "internalType": "int40",
              "name": "power",
              "type": "int40"
            },
            {
              "internalType": "address",
              "name": "proxy",
              "type": "address"
            },
            {
              "internalType": "int256",
              "name": "openPrice",
              "type": "int256"
            },
            {
              "internalType": "int8",
              "name": "leverage",
              "type": "int8"
            },
            {
              "internalType": "string",
              "name": "tokenURI",
              "type": "string"
            }
          ],
          "internalType": "struct MetaJungle.JunglerProfile[]",
          "name": "junglerList",
          "type": "tuple[]"
        }
      ],
      "stateMutability": "view",
      "type": "function"
    },
    {
      "inputs": [
        {
          "internalType": "address",
          "name": "owner",
          "type": "address"
        },
        {
          "internalType": "address",
          "name": "operator",
          "type": "address"
        }
      ],
      "name": "isApprovedForAll",
      "outputs": [
        {
          "internalType": "bool",
          "name": "",
          "type": "bool"
        }
      ],
      "stateMutability": "view",
      "type": "function"
    },
    {
      "inputs": [],
      "name": "name",
      "outputs": [
        {
          "internalType": "string",
          "name": "",
          "type": "string"
        }
      ],
      "stateMutability": "view",
      "type": "function"
    },
    {
      "inputs": [
        {
          "internalType": "uint256",
          "name": "junglerId",
          "type": "uint256"
        },
        {
          "internalType": "bytes32",
          "name": "namehash",
          "type": "bytes32"
        },
        {
          "internalType": "int8",
          "name": "leverage",
          "type": "int8"
        }
      ],
      "name": "open",
      "outputs": [],
      "stateMutability": "nonpayable",
      "type": "function"
    },
    {
      "inputs": [
        {
          "internalType": "uint256",
          "name": "tokenId",
          "type": "uint256"
        }
      ],
      "name": "ownerOf",
      "outputs": [
        {
          "internalType": "address",
          "name": "",
          "type": "address"
        }
      ],
      "stateMutability": "view",
      "type": "function"
    },
    {
      "inputs": [
        {
          "internalType": "uint256",
          "name": "index",
          "type": "uint256"
        }
      ],
      "name": "payee",
      "outputs": [
        {
          "internalType": "address",
          "name": "",
          "type": "address"
        }
      ],
      "stateMutability": "view",
      "type": "function"
    },
    {
      "inputs": [
        {
          "internalType": "string",
          "name": "newBaseURI",
          "type": "string"
        },
        {
          "internalType": "uint8",
          "name": "slotId",
          "type": "uint8"
        }
      ],
      "name": "propose",
      "outputs": [],
      "stateMutability": "payable",
      "type": "function"
    },
    {
      "inputs": [
        {
          "internalType": "address payable",
          "name": "account",
          "type": "address"
        }
      ],
      "name": "release",
      "outputs": [],
      "stateMutability": "nonpayable",
      "type": "function"
    },
    {
      "inputs": [
        {
          "internalType": "address",
          "name": "account",
          "type": "address"
        }
      ],
      "name": "released",
      "outputs": [
        {
          "internalType": "uint256",
          "name": "",
          "type": "uint256"
        }
      ],
      "stateMutability": "view",
      "type": "function"
    },
    {
      "inputs": [
        {
          "internalType": "address",
          "name": "from",
          "type": "address"
        },
        {
          "internalType": "address",
          "name": "to",
          "type": "address"
        },
        {
          "internalType": "uint256",
          "name": "tokenId",
          "type": "uint256"
        }
      ],
      "name": "safeTransferFrom",
      "outputs": [],
      "stateMutability": "nonpayable",
      "type": "function"
    },
    {
      "inputs": [
        {
          "internalType": "address",
          "name": "from",
          "type": "address"
        },
        {
          "internalType": "address",
          "name": "to",
          "type": "address"
        },
        {
          "internalType": "uint256",
          "name": "tokenId",
          "type": "uint256"
        },
        {
          "internalType": "bytes",
          "name": "_data",
          "type": "bytes"
        }
      ],
      "name": "safeTransferFrom",
      "outputs": [],
      "stateMutability": "nonpayable",
      "type": "function"
    },
    {
      "inputs": [
        {
          "internalType": "address",
          "name": "operator",
          "type": "address"
        },
        {
          "internalType": "bool",
          "name": "approved",
          "type": "bool"
        }
      ],
      "name": "setApprovalForAll",
      "outputs": [],
      "stateMutability": "nonpayable",
      "type": "function"
    },
    {
      "inputs": [
        {
          "internalType": "address",
          "name": "account",
          "type": "address"
        }
      ],
      "name": "shares",
      "outputs": [
        {
          "internalType": "uint256",
          "name": "",
          "type": "uint256"
        }
      ],
      "stateMutability": "view",
      "type": "function"
    },
    {
      "inputs": [],
      "name": "stage",
      "outputs": [
        {
          "internalType": "enum JungleBush.Stage",
          "name": "",
          "type": "uint8"
        }
      ],
      "stateMutability": "view",
      "type": "function"
    },
    {
      "inputs": [],
      "name": "startVote",
      "outputs": [],
      "stateMutability": "nonpayable",
      "type": "function"
    },
    {
      "inputs": [],
      "name": "summon",
      "outputs": [],
      "stateMutability": "nonpayable",
      "type": "function"
    },
    {
      "inputs": [
        {
          "internalType": "bytes4",
          "name": "interfaceId",
          "type": "bytes4"
        }
      ],
      "name": "supportsInterface",
      "outputs": [
        {
          "internalType": "bool",
          "name": "",
          "type": "bool"
        }
      ],
      "stateMutability": "view",
      "type": "function"
    },
    {
      "inputs": [],
      "name": "symbol",
      "outputs": [
        {
          "internalType": "string",
          "name": "",
          "type": "string"
        }
      ],
      "stateMutability": "view",
      "type": "function"
    },
    {
      "inputs": [
        {
          "internalType": "uint256",
          "name": "index",
          "type": "uint256"
        }
      ],
      "name": "tokenByIndex",
      "outputs": [
        {
          "internalType": "uint256",
          "name": "",
          "type": "uint256"
        }
      ],
      "stateMutability": "view",
      "type": "function"
    },
    {
      "inputs": [
        {
          "internalType": "address",
          "name": "owner",
          "type": "address"
        },
        {
          "internalType": "uint256",
          "name": "index",
          "type": "uint256"
        }
      ],
      "name": "tokenOfOwnerByIndex",
      "outputs": [
        {
          "internalType": "uint256",
          "name": "",
          "type": "uint256"
        }
      ],
      "stateMutability": "view",
      "type": "function"
    },
    {
      "inputs": [
        {
          "internalType": "uint256",
          "name": "tokenId",
          "type": "uint256"
        }
      ],
      "name": "tokenURI",
      "outputs": [
        {
          "internalType": "string",
          "name": "",
          "type": "string"
        }
      ],
      "stateMutability": "view",
      "type": "function"
    },
    {
      "inputs": [],
      "name": "totalReleased",
      "outputs": [
        {
          "internalType": "uint256",
          "name": "",
          "type": "uint256"
        }
      ],
      "stateMutability": "view",
      "type": "function"
    },
    {
      "inputs": [],
      "name": "totalShares",
      "outputs": [
        {
          "internalType": "uint256",
          "name": "",
          "type": "uint256"
        }
      ],
      "stateMutability": "view",
      "type": "function"
    },
    {
      "inputs": [],
      "name": "totalSupply",
      "outputs": [
        {
          "internalType": "uint256",
          "name": "",
          "type": "uint256"
        }
      ],
      "stateMutability": "view",
      "type": "function"
    },
    {
      "inputs": [
        {
          "internalType": "address",
          "name": "from",
          "type": "address"
        },
        {
          "internalType": "address",
          "name": "to",
          "type": "address"
        },
        {
          "internalType": "uint256",
          "name": "tokenId",
          "type": "uint256"
        }
      ],
      "name": "transferFrom",
      "outputs": [],
      "stateMutability": "nonpayable",
      "type": "function"
    },
    {
      "inputs": [
        {
          "internalType": "uint256",
          "name": "proposalId",
          "type": "uint256"
        },
        {
          "internalType": "uint8[]",
          "name": "fieldIdList",
          "type": "uint8[]"
        }
      ],
      "name": "vote",
      "outputs": [],
      "stateMutability": "nonpayable",
      "type": "function"
    },
    {
      "stateMutability": "payable",
      "type": "receive"
    }
  ],
  "transactionHash": "0x0b10a94ab07323c81a7fc8424353bad5d8ecff01aa0e00d2fac55dd943230c29",
  "args": [
    "0x00000000000C2E074eC69A0dFb2997BA6C7d2e1e",
    "ipfs://QmeSjSinHpPnmXmspMjwiXyN6zS4E9zccariGR3jxcaWtq/",
    [
      "0x586EbeC665DEa9B5B459cB9e5562DBCA3Cf2CE13"
    ],
    [
      1
    ]
  ],
  "solcInputHash": "f0729a4d88203153c807221d7f2364dd",
  "bytecode": "0x60806040523480156200001157600080fd5b5060405162005c8838038062005c8883398101604081905262000034916200053e565b818184866040518060400160405280600b81526020016a26b2ba30a53ab733b632b960a91b815250604051806040016040528060038152602001624d4a4760e81b8152508160009080519060200190620000909291906200038f565b508051620000a69060019060208401906200038f565b5050600a8054600163ffffffff1990911617600160201b600160c01b0319166401000000006001600160a01b0385160217905550620000e462000259565b604051620000f2906200041e565b620000fe919062000658565b604051809103906000f0801580156200011b573d6000803e3d6000fd5b50600b80546001600160a01b0319166001600160a01b039290921691909117905550600e805460ff1916905542601055600a5463ffffffff166000908152601260209081526040909120825162000175928401906200038f565b50508051825114620001a45760405162461bcd60e51b81526004016200019b90620006d1565b60405180910390fd5b6000825111620001c85760405162461bcd60e51b81526004016200019b906200076e565b60005b82518110156200024c5762000237838281518110620001fa57634e487b7160e01b600052603260045260246000fd5b60200260200101518383815181106200022357634e487b7160e01b600052603260045260246000fd5b60200260200101516200025d60201b60201c565b80620002438162000886565b915050620001cb565b50505050505050620008d0565b3390565b6001600160a01b038216620002865760405162461bcd60e51b81526004016200019b9062000685565b60008111620002a95760405162461bcd60e51b81526004016200019b90620007a5565b6001600160a01b03821660009081526015602052604090205415620002e25760405162461bcd60e51b81526004016200019b9062000723565b60178054600181019091557fc624b66cc0138b8fabc209247f72d758e1cf3343756d543badbf24212bed8c150180546001600160a01b0319166001600160a01b03841690811790915560009081526015602052604090208190556013546200034c9082906200082e565b6013556040517f40c340f65e17194d14ddddb073d3c9f888e3cb52b5aae0c6c7706b4fbc905fac906200038390849084906200066c565b60405180910390a15050565b8280546200039d9062000849565b90600052602060002090601f016020900481019282620003c157600085556200040c565b82601f10620003dc57805160ff19168380011785556200040c565b828001600101855582156200040c579182015b828111156200040c578251825591602001919060010190620003ef565b506200041a9291506200042c565b5090565b610d0a8062004f7e83390190565b5b808211156200041a57600081556001016200042d565b80516001600160a01b03811681146200045b57600080fd5b919050565b600082601f83011262000471578081fd5b815160206200048a620004848362000808565b620007dc565b8281528181019085830183850287018401881015620004a7578586fd5b855b85811015620004d057620004bd8262000443565b84529284019290840190600101620004a9565b5090979650505050505050565b600082601f830112620004ee578081fd5b8151602062000501620004848362000808565b82815281810190858301838502870184018810156200051e578586fd5b855b85811015620004d05781518452928401929084019060010162000520565b6000806000806080858703121562000554578384fd5b6200055f8562000443565b602086810151919550906001600160401b03808211156200057e578586fd5b818801915088601f83011262000592578586fd5b815181811115620005a757620005a7620008ba565b620005bb601f8201601f19168501620007dc565b8181528a85838601011115620005cf578788fd5b875b82811015620005ee578481018601518282018701528501620005d1565b82811115620005ff57888684840101525b5060408a01519097509350508083111562000618578485fd5b6200062689848a0162000460565b945060608801519250808311156200063c578384fd5b50506200064c87828801620004dd565b91505092959194509250565b6001600160a01b0391909116815260200190565b6001600160a01b03929092168252602082015260400190565b6020808252602c908201527f5061796d656e7453706c69747465723a206163636f756e74206973207468652060408201526b7a65726f206164647265737360a01b606082015260800190565b60208082526032908201527f5061796d656e7453706c69747465723a2070617965657320616e6420736861726040820152710cae640d8cadccee8d040dad2e6dac2e8c6d60731b606082015260800190565b6020808252602b908201527f5061796d656e7453706c69747465723a206163636f756e7420616c726561647960408201526a206861732073686172657360a81b606082015260800190565b6020808252601a908201527f5061796d656e7453706c69747465723a206e6f20706179656573000000000000604082015260600190565b6020808252601d908201527f5061796d656e7453706c69747465723a20736861726573206172652030000000604082015260600190565b6040518181016001600160401b0381118282101715620008005762000800620008ba565b604052919050565b60006001600160401b03821115620008245762000824620008ba565b5060209081020190565b60008219821115620008445762000844620008a4565b500190565b6002810460018216806200085e57607f821691505b602082108114156200088057634e487b7160e01b600052602260045260246000fd5b50919050565b60006000198214156200089d576200089d620008a4565b5060010190565b634e487b7160e01b600052601160045260246000fd5b634e487b7160e01b600052604160045260246000fd5b61469e80620008e06000396000f3fe6080604052600436106101f45760003560e01c80635c8a06761161010e578063b92239461161009b578063b9223946146105ec578063c040e6b814610601578063c87b56dd14610623578063cceb68f514610643578063cd355bff14610665578063ce7c2ac21461067a578063e2c73cb71461069a578063e33b7de3146106c7578063e985e9c5146106dc578063fa4c2087146106fc5761023b565b80635c8a0676146104aa5780636352211e146104ca57806370a08231146104ea5780638b83209b1461050a57806395d89b411461052a5780639852595c1461053f578063a22cb4651461055f578063a706bb101461057f578063ac1ac96b146105ac578063b88d4fde146105cc5761023b565b806323b872dd1161018c57806323b872dd1461038b5780632570eb7d146103ab5780632f745c59146103cb578063313dc99a146103eb578063363dd19e146103fe5780633a98ef391461041357806342842e0e146104285780634c0a6af0146104485780634f6ccce71461045d57806352ef8a7f1461047d5761023b565b806301ffc9a71461024057806306fdde0314610276578063081812fc14610298578063095ea7b3146102c55780630aebeb4e146102e75780631300cc3814610307578063172195221461032757806318160ddd14610349578063191655871461036b5761023b565b3661023b577f6ef95f06320e7a25a04a175ca677b7052bdd97131872c2192525a629f51be77061022261071c565b34604051610231929190613786565b60405180910390a1005b600080fd5b34801561024c57600080fd5b5061026061025b3660046133c3565b610720565b60405161026d91906138f5565b60405180910390f35b34801561028257600080fd5b5061028b61074d565b60405161026d9190613931565b3480156102a457600080fd5b506102b86102b3366004613476565b6107df565b60405161026d9190613772565b3480156102d157600080fd5b506102e56102e036600461337c565b61082b565b005b3480156102f357600080fd5b506102e5610302366004613476565b6108c3565b34801561031357600080fd5b506102e561032236600461348e565b610abf565b34801561033357600080fd5b5061033c610cd8565b60405161026d9190614297565b34801561035557600080fd5b5061035e610ce4565b60405161026d9190613900565b34801561037757600080fd5b506102e56103863660046131d0565b610cea565b34801561039757600080fd5b506102e56103a6366004613240565b610e2f565b3480156103b757600080fd5b506102e56103c6366004613476565b610e67565b3480156103d757600080fd5b5061035e6103e636600461337c565b611044565b6102e56103f93660046133fb565b611099565b34801561040a57600080fd5b506102e561146c565b34801561041f57600080fd5b5061035e611654565b34801561043457600080fd5b506102e5610443366004613240565b61165a565b34801561045457600080fd5b506102e5611675565b34801561046957600080fd5b5061035e610478366004613476565b61171b565b34801561048957600080fd5b5061049d610498366004613476565b611776565b60405161026d9190614284565b3480156104b657600080fd5b506102e56104c5366004613506565b6118f2565b3480156104d657600080fd5b506102b86104e5366004613476565b611aad565b3480156104f657600080fd5b5061035e6105053660046131d0565b611ae2565b34801561051657600080fd5b506102b8610525366004613476565b611b26565b34801561053657600080fd5b5061028b611b64565b34801561054b57600080fd5b5061035e61055a3660046131d0565b611b73565b34801561056b57600080fd5b506102e561057a36600461334f565b611b8e565b34801561058b57600080fd5b5061059f61059a3660046131d0565b611c5c565b60405161026d91906137f6565b3480156105b857600080fd5b506102e56105c7366004613542565b611d34565b3480156105d857600080fd5b506102e56105e7366004613280565b611ed9565b3480156105f857600080fd5b506102e5611f18565b34801561060d57600080fd5b5061061661225c565b60405161026d9190613909565b34801561062f57600080fd5b5061028b61063e366004613476565b612265565b34801561064f57600080fd5b50610658612388565b60405161026d9190613856565b34801561067157600080fd5b506102b86124bd565b34801561068657600080fd5b5061035e6106953660046131d0565b6124cc565b3480156106a657600080fd5b506106ba6106b5366004613476565b6124e7565b60405161026d9190614214565b3480156106d357600080fd5b5061035e6125ab565b3480156106e857600080fd5b506102606106f7366004613208565b6125b1565b34801561070857600080fd5b5061035e61071736600461356d565b6125df565b3390565b60006001600160e01b0319821663780e9d6360e01b148061074557506107458261261a565b90505b919050565b60606000805461075c9061451c565b80601f01602080910402602001604051908101604052809291908181526020018280546107889061451c565b80156107d55780601f106107aa576101008083540402835291602001916107d5565b820191906000526020600020905b8154815290600101906020018083116107b857829003601f168201915b5050505050905090565b60006107ea8261265a565b61080f5760405162461bcd60e51b815260040161080690613e96565b60405180910390fd5b506000908152600460205260409020546001600160a01b031690565b600061083682611aad565b9050806001600160a01b0316836001600160a01b0316141561086a5760405162461bcd60e51b81526004016108069061400d565b806001600160a01b031661087c61071c565b6001600160a01b031614806108985750610898816106f761071c565b6108b45760405162461bcd60e51b815260040161080690613d1d565b6108be8383612677565b505050565b806108ce33826126e5565b6108ea5760405162461bcd60e51b8152600401610806906141f1565b6000828152600c602052604090208054600160201b900460ff166109205760405162461bcd60e51b8152600401610806906141c9565b600081600001600b9054906101000a90046001600160a01b031690506000816001600160a01b031663feaf968c6040518163ffffffff1660e01b815260040160a06040518083038186803b15801561097757600080fd5b505afa15801561098b573d6000803e3d6000fd5b505050506040513d601f19601f820116820180604052508101906109af9190613587565b5050855460ff60201b191686555060018501549092506109d19150600a6143f8565b835460028501546001860154600160301b909204600490810b900b91600091820b90910b90610a00908561449a565b610a0a91906143f8565b610a1491906143f8565b610a1e9190614392565b83548490600690610a3a908490600160301b900460040b6142e9565b92506101000a81548164ffffffffff021916908360040b64ffffffffff16021790555060008360000160069054906101000a900460040b60040b1215610a925760405162461bcd60e51b81526004016108069061416b565b8460008051602061464983398151915284604051610ab09190614276565b60405180910390a25050505050565b60118054829160009186908110610ae657634e487b7160e01b600052603260045260246000fd5b9060005260206000209060030201905060005b8260ff168160ff161015610bd0576000610b12826125df565b9050610b1c61071c565b6001600160a01b0316610b2e82611aad565b6001600160a01b031614610b545760405162461bcd60e51b8152600401610806906141f1565b600a5460ff83166000908152600f602052604090205463ffffffff918216911610610b915760405162461bcd60e51b815260040161080690613a47565b50600a5460ff82166000908152600f60205260409020805463ffffffff191663ffffffff90921691909117905580610bc881614596565b915050610af9565b508181600201600b8282829054906101000a900460ff16610bf1919061434b565b825460ff9182166101009390930a928302919092021990911617905550600b546001600160a01b031663a9059cbb610c2761071c565b6064600a60ff8716610c3830611ae2565b610c42919061447b565b610c4d90600861447b565b610c5791906143c0565b610c6191906143c0565b6040518363ffffffff1660e01b8152600401610c7e929190613786565b602060405180830381600087803b158015610c9857600080fd5b505af1158015610cac573d6000803e3d6000fd5b505050506040513d601f19601f82011682018060405250810190610cd091906133a7565b505050505050565b600a5463ffffffff1681565b60085490565b6001600160a01b038116600090815260156020526040902054610d1f5760405162461bcd60e51b815260040161080690613abf565b600060145447610d2f9190614333565b6001600160a01b0383166000908152601660209081526040808320546013546015909352908320549394509192610d66908561447b565b610d7091906143c0565b610d7a91906144d9565b905080610d995760405162461bcd60e51b815260040161080690613c83565b6001600160a01b038316600090815260166020526040902054610dbd908290614333565b6001600160a01b038416600090815260166020526040902055601454610de4908290614333565b601455610df1838261276a565b7fdf20fd1e76bc69d672e4814fafb2c449bba3a5369d8359adf9e05e6fde87b0568382604051610e22929190613786565b60405180910390a1505050565b610e40610e3a61071c565b826126e5565b610e5c5760405162461bcd60e51b8152600401610806906140ce565b6108be838383612806565b6000818152600c602052604090208054600160201b900460ff16610e9d5760405162461bcd60e51b815260040161080690613a97565b600081600001600b9054906101000a90046001600160a01b031690506000816001600160a01b031663feaf968c6040518163ffffffff1660e01b815260040160a06040518083038186803b158015610ef457600080fd5b505afa158015610f08573d6000803e3d6000fd5b505050506040513d601f19601f82011682018060405250810190610f2c9190613587565b50505091505060008360010154600a610f4591906143f8565b845460028601546001870154600160301b909204600490810b900b91600091820b90910b90610f74908661449a565b610f7e91906143f8565b610f8891906143f8565b610f929190614392565b8454610fac9190600160301b9004600490810b900b6142a8565b905060008112610fce5760405162461bcd60e51b81526004016108069061404e565b835464ffffffffff60301b19168455604051859060008051602061464983398151915290610ffd908790614276565b60405180910390a2600b546001600160a01b031663a9059cbb61101e61071c565b67016345785d8a00006040518363ffffffff1660e01b8152600401610c7e929190613786565b600061104f83611ae2565b821061106d5760405162461bcd60e51b815260040161080690613973565b506001600160a01b03821660009081526006602090815260408083208484529091529020545b92915050565b601154600a11156111b757601160405180608001604052806110b961071c565b6001600160a01b0316815260200185858080601f0160208091040260200160405190810160405280939291908181526020018383808284376000920182905250938552505050346001600160581b0316602080840191909152604090920181905283546001808201865594825290829020835160039092020180546001600160a01b0319166001600160a01b039092169190911781558282015180519394919361116b93928501929190910190613082565b5060408201516002909101805460609093015160ff16600160581b0260ff60581b196001600160581b039093166001600160581b031990941693909317919091169190911790556108be565b600a60ff8216106111da5760405162461bcd60e51b815260040161080690613d75565b600060118260ff168154811061120057634e487b7160e01b600052603260045260246000fd5b6000918252602091829020604080516080810190915260039092020180546001600160a01b0316825260018101805492939192918401916112409061451c565b80601f016020809104026020016040519081016040528092919081815260200182805461126c9061451c565b80156112b95780601f1061128e576101008083540402835291602001916112b9565b820191906000526020600020905b81548152906001019060200180831161129c57829003601f168201915b5050509183525050600291909101546001600160581b0381166020830152600160581b900460ff166040918201528101519091506112fe90662386f26fc10000614370565b6001600160581b03163410156113265760405162461bcd60e51b8152600401610806906140a6565b611341816000015182604001516001600160581b031661276a565b604051806080016040528061135461071c565b6001600160a01b0316815260200185858080601f01602080910402602001604051908101604052809392919081815260200183838082843760009201829052509385525050506001600160581b03341660208301526040909101526011805460ff85169081106113d457634e487b7160e01b600052603260045260246000fd5b600091825260209182902083516003929092020180546001600160a01b0319166001600160a01b03909216919091178155828201518051919261141f92600185019290910190613082565b5060408201516002909101805460609093015160ff16600160581b0260ff60581b196001600160581b039093166001600160581b0319909416939093179190911691909117905550505050565b600b546001600160a01b03166323b872dd61148561071c565b30670de0b6b3a76400006040518463ffffffff1660e01b81526004016114ad9392919061379f565b602060405180830381600087803b1580156114c757600080fd5b505af11580156114db573d6000803e3d6000fd5b505050506040513d601f19601f820116820180604052508101906114ff91906133a7565b50600061150a610ce4565b611515906001614333565b905061152861152261071c565b82612933565b6040805160e081018252600a5463ffffffff908116825260006020808401828152848601838152620f4240606087019081526080870185815260a0880186815260c089018781528b8852600c9096528987209851895495519451935192516001600160a01b0316600160581b02600160581b600160f81b031960049490940b64ffffffffff16600160301b0264ffffffffff60301b19951515600160281b0260ff60281b19971515600160201b0260ff60201b1994909c1663ffffffff1990991698909817929092169990991794909416949094179190911691909117169390931784559151600184015590516002830180549190920b60ff1660ff1990911617905590518291600080516020614649833981519152916116499190614276565b60405180910390a250565b60135490565b6108be83838360405180602001604052806000815250611ed9565b6000600e5460ff16600181111561169c57634e487b7160e01b600052602160045260246000fd5b146116b95760405162461bcd60e51b815260040161080690613f3d565b6220f5806010546116ca9190614333565b4210156116e95760405162461bcd60e51b815260040161080690613944565b6011546117085760405162461bcd60e51b815260040161080690613fe0565b600e805460ff1916600117905542601055565b6000611725610ce4565b82106117435760405162461bcd60e51b81526004016108069061411f565b6008828154811061176457634e487b7160e01b600052603260045260246000fd5b90600052602060002001549050919050565b61177e613106565b6000600c60008481526020019081526020016000206040518060e00160405290816000820160009054906101000a900463ffffffff1663ffffffff1663ffffffff1681526020016000820160049054906101000a900460ff161515151581526020016000820160059054906101000a900460ff161515151581526020016000820160069054906101000a900460040b60040b60040b815260200160008201600b9054906101000a90046001600160a01b03166001600160a01b03166001600160a01b03168152602001600182015481526020016002820160009054906101000a900460000b60000b60000b815250509050604051806101200160405280848152602001826000015163ffffffff168152602001826020015115158152602001826040015115158152602001826060015160040b815260200182608001516001600160a01b031681526020018260a0015181526020018260c0015160000b81526020016118e985612265565b90529392505050565b826118fd33826126e5565b6119195760405162461bcd60e51b8152600401610806906141f1565b6000848152600c60205260409020600a54815463ffffffff9081169116146119535760405162461bcd60e51b815260040161080690613f13565b8054600160201b900460ff161561197c5760405162461bcd60e51b815260040161080690613cf7565b600061198785612951565b90506001600160a01b0381166119af5760405162461bcd60e51b815260040161080690613b7c565b60008190506000816001600160a01b031663feaf968c6040518163ffffffff1660e01b815260040160a06040518083038186803b1580156119ef57600080fd5b505afa158015611a03573d6000803e3d6000fd5b505050506040513d601f19601f82011682018060405250810190611a279190613587565b50508654600160201b60ff60201b1990911617600160581b600160f81b031916600160581b6001600160a01b03881602178755506001860181905560028601805460ff191660ff60008b900b1617905560405190925089915060008051602061464983398151915290611a9b908790614276565b60405180910390a25050505050505050565b6000818152600260205260408120546001600160a01b0316806107455760405162461bcd60e51b815260040161080690613deb565b60006001600160a01b038216611b0a5760405162461bcd60e51b815260040161080690613da1565b506001600160a01b031660009081526003602052604090205490565b600060178281548110611b4957634e487b7160e01b600052603260045260246000fd5b6000918252602090912001546001600160a01b031692915050565b60606001805461075c9061451c565b6001600160a01b031660009081526016602052604090205490565b611b9661071c565b6001600160a01b0316826001600160a01b03161415611bc75760405162461bcd60e51b815260040161080690613b49565b8060056000611bd461071c565b6001600160a01b03908116825260208083019390935260409182016000908120918716808252919093529120805460ff191692151592909217909155611c1861071c565b6001600160a01b03167f17307eab39ab6107e8899845ad3d59bd9653f200f220920489ca2b5937696c3183604051611c5091906138f5565b60405180910390a35050565b60606000611c6983611ae2565b9050806001600160401b03811115611c9157634e487b7160e01b600052604160045260246000fd5b604051908082528060200260200182016040528015611cca57816020015b611cb7613106565b815260200190600190039081611caf5790505b5091506000805b82811015611d2c57611ce38582611044565b9150611cee82611776565b848281518110611d0e57634e487b7160e01b600052603260045260246000fd5b60200260200101819052508080611d2490614557565b915050611cd1565b505050919050565b81611d3f33826126e5565b611d5b5760405162461bcd60e51b8152600401610806906141f1565b6000600e5460ff166001811115611d8257634e487b7160e01b600052602160045260246000fd5b14611d9f5760405162461bcd60e51b815260040161080690613f3d565b606460ff831610611dc25760405162461bcd60e51b815260040161080690613f6d565b6000838152600c602052604090208054600160281b900460ff1615611df95760405162461bcd60e51b815260040161080690613cce565b60ff83166000908152600d6020908152604080832054808452600c909252909120600a54835463ffffffff908116911614611e465760405162461bcd60e51b815260040161080690613a6e565b8054600160201b900460ff16158015611e6b5750600a54815463ffffffff9081169116145b15611ea95780548354600160301b91829004600490810b810b92909104810b900b13611ea95760405162461bcd60e51b815260040161080690613ee2565b805460ff60281b19908116909155825416600160281b17909155505060ff166000908152600d6020526040902055565b611eea611ee461071c565b836126e5565b611f065760405162461bcd60e51b8152600401610806906140ce565b611f1284848484612a62565b50505050565b6001600e5460ff166001811115611f3f57634e487b7160e01b600052602160045260246000fd5b14611f5c5760405162461bcd60e51b815260040161080690614079565b6203f480601054611f6d9190614333565b421015611f8c5760405162461bcd60e51b815260040161080690613e34565b600e805460ff1916905542601055600080805b60115460ff82161015612053578260ff1660118260ff1681548110611fd457634e487b7160e01b600052603260045260246000fd5b6000918252602090912060039091020160020154600160581b900460ff1611156120415760118160ff168154811061201c57634e487b7160e01b600052603260045260246000fd5b9060005260206000209060030201600201600b9054906101000a900460ff1692508091505b8061204b81614596565b915050611f9f565b50600060118260ff168154811061207a57634e487b7160e01b600052603260045260246000fd5b6000918252602091829020604080516080810190915260039092020180546001600160a01b0316825260018101805492939192918401916120ba9061451c565b80601f01602080910402602001604051908101604052809291908181526020018280546120e69061451c565b80156121335780601f1061210857610100808354040283529160200191612133565b820191906000526020600020905b81548152906001019060200180831161211657829003601f168201915b5050509183525050600291909101546001600160581b0381166020830152600160581b900460ff16604090910152600b5481519192506001600160a01b03169063a9059cbb90600a61218430611ae2565b61218e91906143c0565b6040518363ffffffff1660e01b81526004016121ab929190613786565b602060405180830381600087803b1580156121c557600080fd5b505af11580156121d9573d6000803e3d6000fd5b505050506040513d601f19601f820116820180604052508101906121fd91906133a7565b50600a805463ffffffff1690600061221483614572565b82546101009290920a63ffffffff818102199093169183160217909155602083810151600a54909216600090815260128252604090208251611f129450909290910190613082565b600e5460ff1681565b6000818152600c602052604081205460609163ffffffff82169161229790620186a090600160301b900460040b6143d4565b9050606464ffffffffff821611156122ad575060645b63ffffffff8216600090815260126020526040812080546122cd9061451c565b80601f01602080910402602001604051908101604052809291908181526020018280546122f99061451c565b80156123465780601f1061231b57610100808354040283529160200191612346565b820191906000526020600020905b81548152906001019060200180831161232957829003601f168201915b505050505090508061235e8364ffffffffff16612a95565b60405160200161236f929190613740565b6040516020818303038152906040529350505050919050565b60606011805480602002602001604051908101604052809291908181526020016000905b828210156124b457600084815260209081902060408051608081019091526003850290910180546001600160a01b0316825260018101805492939192918401916123f59061451c565b80601f01602080910402602001604051908101604052809291908181526020018280546124219061451c565b801561246e5780601f106124435761010080835404028352916020019161246e565b820191906000526020600020905b81548152906001019060200180831161245157829003601f168201915b5050509183525050600291909101546001600160581b038116602080840191909152600160581b90910460ff1660409092019190915290825260019290920191016123ac565b50505050905090565b600b546001600160a01b031690565b6001600160a01b031660009081526015602052604090205490565b6124ef613154565b6124f88261265a565b6125145760405162461bcd60e51b815260040161080690614192565b506000908152600c60209081526040808320815160e081018352815463ffffffff81168252600160201b810460ff908116151595830195909552600160281b8104909416151592810192909252600160301b8304600490810b810b900b6060830152600160581b9092046001600160a01b03166080820152600182015460a0820152600290910154820b820b90910b60c082015290565b60145490565b6001600160a01b03918216600090815260056020908152604080832093909416825291909152205460ff1690565b6000606460ff8316106126045760405162461bcd60e51b815260040161080690613f6d565b5060ff166000908152600d602052604090205490565b60006001600160e01b031982166380ac58cd60e01b148061264b57506001600160e01b03198216635b5e139f60e01b145b80610745575061074582612baf565b6000908152600260205260409020546001600160a01b0316151590565b600081815260046020526040902080546001600160a01b0319166001600160a01b03841690811790915581906126ac82611aad565b6001600160a01b03167f8c5be1e5ebec7d5bd14f71427d1e84f3dd0314c0f7b2291e5b200ac8c7c3b92560405160405180910390a45050565b60006126f08261265a565b61270c5760405162461bcd60e51b815260040161080690613c37565b600061271783611aad565b9050806001600160a01b0316846001600160a01b031614806127525750836001600160a01b0316612747846107df565b6001600160a01b0316145b80612762575061276281856125b1565b949350505050565b8047101561278a5760405162461bcd60e51b815260040161080690613c00565b6000826001600160a01b0316826040516127a39061376f565b60006040518083038185875af1925050503d80600081146127e0576040519150601f19603f3d011682016040523d82523d6000602084013e6127e5565b606091505b50509050806108be5760405162461bcd60e51b815260040161080690613ba6565b826001600160a01b031661281982611aad565b6001600160a01b03161461283f5760405162461bcd60e51b815260040161080690613f97565b6001600160a01b0382166128655760405162461bcd60e51b815260040161080690613b05565b612870838383612bc8565b61287b600082612677565b6001600160a01b03831660009081526003602052604081208054600192906128a49084906144d9565b90915550506001600160a01b03821660009081526003602052604081208054600192906128d2908490614333565b909155505060008181526002602052604080822080546001600160a01b0319166001600160a01b0386811691821790925591518493918716917fddf252ad1be2c89b69c2b068fc378daa952ba7f163c4a11628f55a4df523b3ef91a4505050565b61294d828260405180602001604052806000815250612c51565b5050565b600a54604051630178b8bf60e01b81526000918291600160201b9091046001600160a01b031690630178b8bf9061298c908690600401613900565b60206040518083038186803b1580156129a457600080fd5b505afa1580156129b8573d6000803e3d6000fd5b505050506040513d601f19601f820116820180604052508101906129dc91906131ec565b604051631d9dabef60e11b81529091506001600160a01b03821690633b3b57de90612a0b908690600401613900565b60206040518083038186803b158015612a2357600080fd5b505afa158015612a37573d6000803e3d6000fd5b505050506040513d601f19601f82011682018060405250810190612a5b91906131ec565b9392505050565b612a6d848484612806565b612a7984848484612c84565b611f125760405162461bcd60e51b8152600401610806906139be565b606081612aba57506040805180820190915260018152600360fc1b6020820152610748565b8160005b8115612ae45780612ace81614557565b9150612add9050600a836143c0565b9150612abe565b6000816001600160401b03811115612b0c57634e487b7160e01b600052604160045260246000fd5b6040519080825280601f01601f191660200182016040528015612b36576020820181803683370190505b5090505b841561276257612b4b6001836144d9565b9150612b58600a866145b6565b612b63906030614333565b60f81b818381518110612b8657634e487b7160e01b600052603260045260246000fd5b60200101906001600160f81b031916908160001a905350612ba8600a866143c0565b9450612b3a565b6001600160e01b031981166301ffc9a760e01b14919050565b612bd38383836108be565b6001600160a01b038316612bef57612bea81612d9f565b612c12565b816001600160a01b0316836001600160a01b031614612c1257612c128382612de3565b6001600160a01b038216612c2e57612c2981612e80565b6108be565b826001600160a01b0316826001600160a01b0316146108be576108be8282612f59565b612c5b8383612f9d565b612c686000848484612c84565b6108be5760405162461bcd60e51b8152600401610806906139be565b6000612c98846001600160a01b031661307c565b15612d9457836001600160a01b031663150b7a02612cb461071c565b8786866040518563ffffffff1660e01b8152600401612cd694939291906137c3565b602060405180830381600087803b158015612cf057600080fd5b505af1925050508015612d20575060408051601f3d908101601f19168201909252612d1d918101906133df565b60015b612d7a573d808015612d4e576040519150601f19603f3d011682016040523d82523d6000602084013e612d53565b606091505b508051612d725760405162461bcd60e51b8152600401610806906139be565b805181602001fd5b6001600160e01b031916630a85bd0160e11b149050612762565b506001949350505050565b600880546000838152600960205260408120829055600182018355919091527ff3f7a9fe364faab93b216da50a3214154f22a0a2b415b23a84c8169e8b636ee30155565b60006001612df084611ae2565b612dfa91906144d9565b600083815260076020526040902054909150808214612e4d576001600160a01b03841660009081526006602090815260408083208584528252808320548484528184208190558352600790915290208190555b5060009182526007602090815260408084208490556001600160a01b039094168352600681528383209183525290812055565b600854600090612e92906001906144d9565b60008381526009602052604081205460088054939450909284908110612ec857634e487b7160e01b600052603260045260246000fd5b906000526020600020015490508060088381548110612ef757634e487b7160e01b600052603260045260246000fd5b6000918252602080832090910192909255828152600990915260408082208490558582528120556008805480612f3d57634e487b7160e01b600052603160045260246000fd5b6001900381819060005260206000200160009055905550505050565b6000612f6483611ae2565b6001600160a01b039093166000908152600660209081526040808320868452825280832085905593825260079052919091209190915550565b6001600160a01b038216612fc35760405162461bcd60e51b815260040161080690613e61565b612fcc8161265a565b15612fe95760405162461bcd60e51b815260040161080690613a10565b612ff560008383612bc8565b6001600160a01b038216600090815260036020526040812080546001929061301e908490614333565b909155505060008181526002602052604080822080546001600160a01b0319166001600160a01b03861690811790915590518392907fddf252ad1be2c89b69c2b068fc378daa952ba7f163c4a11628f55a4df523b3ef908290a45050565b3b151590565b82805461308e9061451c565b90600052602060002090601f0160209004810192826130b057600085556130f6565b82601f106130c957805160ff19168380011785556130f6565b828001600101855582156130f6579182015b828111156130f65782518255916020019190600101906130db565b50613102929150613190565b5090565b604080516101208101825260008082526020820181905291810182905260608082018390526080820183905260a0820183905260c0820183905260e082019290925261010081019190915290565b6040805160e081018252600080825260208201819052918101829052606081018290526080810182905260a0810182905260c081019190915290565b5b808211156131025760008155600101613191565b803560ff8116811461074857600080fd5b805169ffffffffffffffffffff8116811461074857600080fd5b6000602082840312156131e1578081fd5b8135612a5b8161460c565b6000602082840312156131fd578081fd5b8151612a5b8161460c565b6000806040838503121561321a578081fd5b82356132258161460c565b915060208301356132358161460c565b809150509250929050565b600080600060608486031215613254578081fd5b833561325f8161460c565b9250602084013561326f8161460c565b929592945050506040919091013590565b60008060008060808587031215613295578081fd5b84356132a08161460c565b93506020858101356132b18161460c565b93506040860135925060608601356001600160401b03808211156132d3578384fd5b818801915088601f8301126132e6578384fd5b8135818111156132f8576132f86145f6565b604051601f8201601f191681018501838111828210171561331b5761331b6145f6565b60405281815283820185018b1015613331578586fd5b81858501868301379081019093019390935250939692955090935050565b60008060408385031215613361578182fd5b823561336c8161460c565b9150602083013561323581614624565b6000806040838503121561338e578182fd5b82356133998161460c565b946020939093013593505050565b6000602082840312156133b8578081fd5b8151612a5b81614624565b6000602082840312156133d4578081fd5b8135612a5b81614632565b6000602082840312156133f0578081fd5b8151612a5b81614632565b60008060006040848603121561340f578081fd5b83356001600160401b0380821115613425578283fd5b818601915086601f830112613438578283fd5b813581811115613446578384fd5b876020828501011115613457578384fd5b60209283019550935061346d91860190506131a5565b90509250925092565b600060208284031215613487578081fd5b5035919050565b6000806000604084860312156134a2578081fd5b8335925060208401356001600160401b03808211156134bf578283fd5b818601915086601f8301126134d2578283fd5b8135818111156134e0578384fd5b87602080830285010111156134f3578384fd5b6020830194508093505050509250925092565b60008060006060848603121561351a578081fd5b8335925060208401359150604084013580820b8114613537578182fd5b809150509250925092565b60008060408385031215613554578182fd5b82359150613564602084016131a5565b90509250929050565b60006020828403121561357e578081fd5b612a5b826131a5565b600080600080600060a0868803121561359e578283fd5b6135a7866131b6565b94506020860151935060408601519250606086015191506135ca608087016131b6565b90509295509295909350565b6001600160a01b03169052565b15159052565b600081518084526136018160208601602086016144f0565b601f01601f19169290920160200192915050565b60040b9052565b60000b9052565b805463ffffffff8116835260ff8160201c161515602084015261364f6040840160ff8360281c166135e3565b613662606084018260301c60040b613615565b61367c60808401605883901c6001600160a01b03166135d6565b50600181015460a0830152600281015460000b6108be60c084018261361c565b60006101208251845263ffffffff602084015116602085015260408301516136c760408601826135e3565b5060608301516136da60608601826135e3565b5060808301516136ed6080860182613615565b5060a083015161370060a08601826135d6565b5060c083015160c085015260e083015161371d60e086018261361c565b50610100808401518282870152613736838701826135e9565b9695505050505050565b600083516137528184602088016144f0565b8351908301906137668183602088016144f0565b01949350505050565b90565b6001600160a01b0391909116815260200190565b6001600160a01b03929092168252602082015260400190565b6001600160a01b039384168152919092166020820152604081019190915260600190565b6001600160a01b0385811682528416602082015260408101839052608060608201819052600090613736908301846135e9565b6000602080830181845280855180835260408601915060408482028701019250838701855b8281101561384957603f1988860301845261383785835161369c565b9450928501929085019060010161381b565b5092979650505050505050565b60208082528251828201819052600091906040908185019080840286018301878501865b838110156138e757888303603f19018552815180516001600160a01b03168452878101516080898601819052906138b3828701826135e9565b838a01516001600160581b0316878b015260609384015160ff1693909601929092525050938601939086019060010161387a565b509098975050505050505050565b901515815260200190565b90815260200190565b602081016002831061392b57634e487b7160e01b600052602160045260246000fd5b91905290565b600060208252612a5b60208301846135e9565b6020808252601590820152746e6f742079657420746f20737461727420766f746560581b604082015260600190565b6020808252602b908201527f455243373231456e756d657261626c653a206f776e657220696e646578206f7560408201526a74206f6620626f756e647360a81b606082015260800190565b60208082526032908201527f4552433732313a207472616e7366657220746f206e6f6e20455243373231526560408201527131b2b4bb32b91034b6b83632b6b2b73a32b960711b606082015260800190565b6020808252601c908201527f4552433732313a20746f6b656e20616c7265616479206d696e74656400000000604082015260600190565b6020808252600d908201526c185b1c9958591e481d9bdd1959609a1b604082015260600190565b6020808252600f908201526e1a9d5b99db195c881d1bdbc81bdb19608a1b604082015260600190565b6020808252600e908201526d39b437bab6321031329037b832b760911b604082015260600190565b60208082526026908201527f5061796d656e7453706c69747465723a206163636f756e7420686173206e6f2060408201526573686172657360d01b606082015260800190565b60208082526024908201527f4552433732313a207472616e7366657220746f20746865207a65726f206164646040820152637265737360e01b606082015260800190565b60208082526019908201527822a9219b99189d1030b8383937bb32903a379031b0b63632b960391b604082015260600190565b60208082526010908201526f0d2dcecc2d8d2c840dcc2dacad0c2e6d60831b604082015260600190565b6020808252603a908201527f416464726573733a20756e61626c6520746f2073656e642076616c75652c20726040820152791958da5c1a595b9d081b585e481a185d99481c995d995c9d195960321b606082015260800190565b6020808252601d908201527f416464726573733a20696e73756666696369656e742062616c616e6365000000604082015260600190565b6020808252602c908201527f4552433732313a206f70657261746f7220717565727920666f72206e6f6e657860408201526b34b9ba32b73a103a37b5b2b760a11b606082015260800190565b6020808252602b908201527f5061796d656e7453706c69747465723a206163636f756e74206973206e6f742060408201526a191d59481c185e5b595b9d60aa1b606082015260800190565b6020808252600f908201526e0c2d8e4cac2c8f240dedc40c4eae6d608b1b604082015260600190565b6020808252600c908201526b30b63932b0b23c9037b832b760a11b604082015260600190565b60208082526038908201527f4552433732313a20617070726f76652063616c6c6572206973206e6f74206f776040820152771b995c881b9bdc88185c1c1c9bdd995908199bdc88185b1b60421b606082015260800190565b602080825260129082015271696e646578206f7574206f662072616e676560701b604082015260600190565b6020808252602a908201527f4552433732313a2062616c616e636520717565727920666f7220746865207a65604082015269726f206164647265737360b01b606082015260800190565b60208082526029908201527f4552433732313a206f776e657220717565727920666f72206e6f6e657869737460408201526832b73a103a37b5b2b760b91b606082015260800190565b6020808252601390820152726e6f742079657420746f20656e6420766f746560681b604082015260600190565b6020808252818101527f4552433732313a206d696e7420746f20746865207a65726f2061646472657373604082015260600190565b6020808252602c908201527f4552433732313a20617070726f76656420717565727920666f72206e6f6e657860408201526b34b9ba32b73a103a37b5b2b760a11b606082015260800190565b60208082526017908201527661747461636b65722063616e2774206f76657274616b6560481b604082015260600190565b60208082526010908201526f33b2b732b930ba34b7b71032b93937b960811b604082015260600190565b6020808252601690820152756e6f7420696e2070726f706f73696e6720737461676560501b604082015260600190565b60208082526010908201526f1bdd5d081bd98819dc985cdcdb185b9960821b604082015260600190565b60208082526029908201527f4552433732313a207472616e73666572206f6620746f6b656e2074686174206960408201526839903737ba1037bbb760b91b606082015260800190565b6020808252601390820152726e6f2070726f706f73616c20746f20766f746560681b604082015260600190565b60208082526021908201527f4552433732313a20617070726f76616c20746f2063757272656e74206f776e656040820152603960f91b606082015260800190565b6020808252601190820152703737ba1037baba1037b31036b0b933b4b760791b604082015260600190565b6020808252601390820152726e6f7420696e20766f74696e6720737461676560681b604082015260600190565b6020808252600e908201526d1b9bdd08195b9bdd59da08189a5960921b604082015260600190565b60208082526031908201527f4552433732313a207472616e736665722063616c6c6572206973206e6f74206f6040820152701ddb995c881b9bdc88185c1c1c9bdd9959607a1b606082015260800190565b6020808252602c908201527f455243373231456e756d657261626c653a20676c6f62616c20696e646578206f60408201526b7574206f6620626f756e647360a01b606082015260800190565b6020808252600d908201526c37baba1037b31036b0b933b4b760991b604082015260600190565b6020808252601d908201527f717565727920666f72206e6f6e6578697374656e74206a756e676c6572000000604082015260600190565b6020808252600e908201526d185b1c9958591e4818db1bdcd95960921b604082015260600190565b6020808252600990820152683737ba1037bbb732b960b91b604082015260600190565b815163ffffffff16815260208083015115159082015260408083015115159082015260608083015160040b908201526080808301516001600160a01b03169082015260a0808301519082015260c09182015160000b9181019190915260e00190565b60e081016110938284613623565b600060208252612a5b602083018461369c565b63ffffffff91909116815260200190565b600080821280156001600160ff1b03849003851316156142ca576142ca6145ca565b600160ff1b83900384128116156142e3576142e36145ca565b50500190565b60008160040b8360040b82821282647fffffffff03821381151615614310576143106145ca565b82647fffffffff1903821281161561432a5761432a6145ca565b50019392505050565b60008219821115614346576143466145ca565b500190565b600060ff821660ff84168060ff03821115614368576143686145ca565b019392505050565b60006001600160581b03828116848216808303821115613766576137666145ca565b6000826143a1576143a16145e0565b600160ff1b8214600019841416156143bb576143bb6145ca565b500590565b6000826143cf576143cf6145e0565b500490565b600064ffffffffff808416806143ec576143ec6145e0565b92169190910492915050565b60006001600160ff1b038184138284138082168684048611161561441e5761441e6145ca565b600160ff1b8487128281168783058912161561443c5761443c6145ca565b858712925087820587128484161615614457576144576145ca565b8785058712818416161561446d5761446d6145ca565b505050929093029392505050565b6000816000190483118215151615614495576144956145ca565b500290565b60008083128015600160ff1b8501841216156144b8576144b86145ca565b6001600160ff1b03840183138116156144d3576144d36145ca565b50500390565b6000828210156144eb576144eb6145ca565b500390565b60005b8381101561450b5781810151838201526020016144f3565b83811115611f125750506000910152565b60028104600182168061453057607f821691505b6020821081141561455157634e487b7160e01b600052602260045260246000fd5b50919050565b600060001982141561456b5761456b6145ca565b5060010190565b600063ffffffff8083168181141561458c5761458c6145ca565b6001019392505050565b600060ff821660ff8114156145ad576145ad6145ca565b60010192915050565b6000826145c5576145c56145e0565b500690565b634e487b7160e01b600052601160045260246000fd5b634e487b7160e01b600052601260045260246000fd5b634e487b7160e01b600052604160045260246000fd5b6001600160a01b038116811461462157600080fd5b50565b801515811461462157600080fd5b6001600160e01b03198116811461462157600080fdfefa534782d33171b4fd6bad477513fbf21d9c8d47c60cd6cb4dd49ba52a6b5cb6a26469706673582212209a33b06d2fa22b5e0d07cbd9861ed1e5bc8f180cbf6fe41b9dfd6e5e0ef1c07364736f6c6343000800003360806040523480156200001157600080fd5b5060405162000d0a38038062000d0a83398101604081905262000034916200027b565b6040518060400160405280600e81526020016d4a756e676c655265736f7572636560901b815250604051806040016040528060038152602001622523a960e91b81525081600390805190602001906200008f929190620001d5565b508051620000a5906004906020840190620001d5565b505050620000cd620000bc620000ea60201b60201c565b6969e10de76676d0800000620000ee565b620000e3816969e10de76676d0800000620000ee565b506200034d565b3390565b6001600160a01b038216620001205760405162461bcd60e51b81526004016200011790620002ab565b60405180910390fd5b6200012e60008383620001d0565b8060026000828254620001429190620002eb565b90915550506001600160a01b0382166000908152602081905260408120805483929062000171908490620002eb565b90915550506040516001600160a01b038316906000907fddf252ad1be2c89b69c2b068fc378daa952ba7f163c4a11628f55a4df523b3ef90620001b6908590620002e2565b60405180910390a3620001cc60008383620001d0565b5050565b505050565b828054620001e39062000310565b90600052602060002090601f01602090048101928262000207576000855562000252565b82601f106200022257805160ff191683800117855562000252565b8280016001018555821562000252579182015b828111156200025257825182559160200191906001019062000235565b506200026092915062000264565b5090565b5b8082111562000260576000815560010162000265565b6000602082840312156200028d578081fd5b81516001600160a01b0381168114620002a4578182fd5b9392505050565b6020808252601f908201527f45524332303a206d696e7420746f20746865207a65726f206164647265737300604082015260600190565b90815260200190565b600082198211156200030b57634e487b7160e01b81526011600452602481fd5b500190565b6002810460018216806200032557607f821691505b602082108114156200034757634e487b7160e01b600052602260045260246000fd5b50919050565b6109ad806200035d6000396000f3fe608060405234801561001057600080fd5b50600436106100995760003560e01c806306fdde031461009e578063095ea7b3146100bc57806318160ddd146100dc57806323b872dd146100f1578063313ce56714610104578063395093511461011957806370a082311461012c57806395d89b411461013f578063a457c2d714610147578063a9059cbb1461015a578063dd62ed3e1461016d575b600080fd5b6100a6610180565b6040516100b391906106cd565b60405180910390f35b6100cf6100ca366004610699565b610212565b6040516100b391906106c2565b6100e461022f565b6040516100b39190610901565b6100cf6100ff36600461065e565b610235565b61010c6102ce565b6040516100b3919061090a565b6100cf610127366004610699565b6102d3565b6100e461013a36600461060b565b610327565b6100a6610346565b6100cf610155366004610699565b610355565b6100cf610168366004610699565b6103ce565b6100e461017b36600461062c565b6103e2565b60606003805461018f9061093c565b80601f01602080910402602001604051908101604052809291908181526020018280546101bb9061093c565b80156102085780601f106101dd57610100808354040283529160200191610208565b820191906000526020600020905b8154815290600101906020018083116101eb57829003601f168201915b5050505050905090565b600061022661021f61040d565b8484610411565b50600192915050565b60025490565b60006102428484846104c5565b6001600160a01b03841660009081526001602052604081208161026361040d565b6001600160a01b03166001600160a01b03168152602001908152602001600020549050828110156102af5760405162461bcd60e51b81526004016102a6906107eb565b60405180910390fd5b6102c3856102bb61040d565b858403610411565b506001949350505050565b601290565b60006102266102e061040d565b8484600160006102ee61040d565b6001600160a01b03908116825260208083019390935260409182016000908120918b16815292529020546103229190610918565b610411565b6001600160a01b0381166000908152602081905260409020545b919050565b60606004805461018f9061093c565b6000806001600061036461040d565b6001600160a01b03908116825260208083019390935260409182016000908120918816815292529020549050828110156103b05760405162461bcd60e51b81526004016102a6906108bc565b6103c46103bb61040d565b85858403610411565b5060019392505050565b60006102266103db61040d565b84846104c5565b6001600160a01b03918216600090815260016020908152604080832093909416825291909152205490565b3390565b6001600160a01b0383166104375760405162461bcd60e51b81526004016102a690610878565b6001600160a01b03821661045d5760405162461bcd60e51b81526004016102a690610763565b6001600160a01b0380841660008181526001602090815260408083209487168084529490915290819020849055517f8c5be1e5ebec7d5bd14f71427d1e84f3dd0314c0f7b2291e5b200ac8c7c3b925906104b8908590610901565b60405180910390a3505050565b6001600160a01b0383166104eb5760405162461bcd60e51b81526004016102a690610833565b6001600160a01b0382166105115760405162461bcd60e51b81526004016102a690610720565b61051c8383836105ef565b6001600160a01b038316600090815260208190526040902054818110156105555760405162461bcd60e51b81526004016102a6906107a5565b6001600160a01b0380851660009081526020819052604080822085850390559185168152908120805484929061058c908490610918565b92505081905550826001600160a01b0316846001600160a01b03167fddf252ad1be2c89b69c2b068fc378daa952ba7f163c4a11628f55a4df523b3ef846040516105d69190610901565b60405180910390a36105e98484846105ef565b50505050565b505050565b80356001600160a01b038116811461034157600080fd5b60006020828403121561061c578081fd5b610625826105f4565b9392505050565b6000806040838503121561063e578081fd5b610647836105f4565b9150610655602084016105f4565b90509250929050565b600080600060608486031215610672578081fd5b61067b846105f4565b9250610689602085016105f4565b9150604084013590509250925092565b600080604083850312156106ab578182fd5b6106b4836105f4565b946020939093013593505050565b901515815260200190565b6000602080835283518082850152825b818110156106f9578581018301518582016040015282016106dd565b8181111561070a5783604083870101525b50601f01601f1916929092016040019392505050565b60208082526023908201527f45524332303a207472616e7366657220746f20746865207a65726f206164647260408201526265737360e81b606082015260800190565b60208082526022908201527f45524332303a20617070726f766520746f20746865207a65726f206164647265604082015261737360f01b606082015260800190565b60208082526026908201527f45524332303a207472616e7366657220616d6f756e7420657863656564732062604082015265616c616e636560d01b606082015260800190565b60208082526028908201527f45524332303a207472616e7366657220616d6f756e74206578636565647320616040820152676c6c6f77616e636560c01b606082015260800190565b60208082526025908201527f45524332303a207472616e736665722066726f6d20746865207a65726f206164604082015264647265737360d81b606082015260800190565b60208082526024908201527f45524332303a20617070726f76652066726f6d20746865207a65726f206164646040820152637265737360e01b606082015260800190565b60208082526025908201527f45524332303a2064656372656173656420616c6c6f77616e63652062656c6f77604082015264207a65726f60d81b606082015260800190565b90815260200190565b60ff91909116815260200190565b6000821982111561093757634e487b7160e01b81526011600452602481fd5b500190565b60028104600182168061095057607f821691505b6020821081141561097157634e487b7160e01b600052602260045260246000fd5b5091905056fea2646970667358221220f17db4d0512a267d750e98075e3946a377dbb7dcc6291c840ade766c8b2c852f64736f6c63430008000033",
  "devdoc": {
    "kind": "dev",
    "methods": {
      "approve(address,uint256)": {
        "details": "See {IERC721-approve}."
      },
      "balanceOf(address)": {
        "details": "See {IERC721-balanceOf}."
      },
      "constructor": {
        "details": "Setup PaymentSplitter"
      },
      "getApproved(uint256)": {
        "details": "See {IERC721-getApproved}."
      },
      "isApprovedForAll(address,address)": {
        "details": "See {IERC721-isApprovedForAll}."
      },
      "name()": {
        "details": "See {IERC721Metadata-name}."
      },
      "ownerOf(uint256)": {
        "details": "See {IERC721-ownerOf}."
      },
      "payee(uint256)": {
        "details": "Getter for the address of the payee number `index`."
      },
      "release(address)": {
        "details": "Triggers a transfer to `account` of the amount of Ether they are owed, according to their percentage of the total shares and their previous withdrawals."
      },
      "released(address)": {
        "details": "Getter for the amount of Ether already released to a payee."
      },
      "safeTransferFrom(address,address,uint256)": {
        "details": "See {IERC721-safeTransferFrom}."
      },
      "safeTransferFrom(address,address,uint256,bytes)": {
        "details": "See {IERC721-safeTransferFrom}."
      },
      "setApprovalForAll(address,bool)": {
        "details": "See {IERC721-setApprovalForAll}."
      },
      "shares(address)": {
        "details": "Getter for the amount of shares held by an account."
      },
      "supportsInterface(bytes4)": {
        "details": "See {IERC165-supportsInterface}."
      },
      "symbol()": {
        "details": "See {IERC721Metadata-symbol}."
      },
      "tokenByIndex(uint256)": {
        "details": "See {IERC721Enumerable-tokenByIndex}."
      },
      "tokenOfOwnerByIndex(address,uint256)": {
        "details": "See {IERC721Enumerable-tokenOfOwnerByIndex}."
      },
      "totalReleased()": {
        "details": "Getter for the total amount of Ether already released."
      },
      "totalShares()": {
        "details": "Getter for the total shares held by payees."
      },
      "totalSupply()": {
        "details": "See {IERC721Enumerable-totalSupply}."
      },
      "transferFrom(address,address,uint256)": {
        "details": "See {IERC721-transferFrom}."
      }
    },
    "version": 1
  },
  "userdoc": {
    "kind": "user",
    "methods": {
      "camp(uint256,uint8)": {
        "notice": "See {JungleInterface-camp}"
      },
      "close(uint256)": {
        "notice": "See {MetaJungleInterface-close}."
      },
      "endVote()": {
        "notice": "See {JungleInterface-endVote}"
      },
      "gank(uint256)": {
        "notice": "See {MetaJungleInterface-gank}."
      },
      "generation()": {
        "notice": "Current generation"
      },
      "getAddrOfJGR()": {
        "notice": "Return address of JGR contract"
      },
      "getAllProposals()": {
        "notice": "Return all proposals' contents"
      },
      "getJunglerData(uint256)": {
        "notice": "Return jungler data given jungler ID"
      },
      "getJunglerOnBush(uint8)": {
        "notice": "Return jungler ID given bush ID"
      },
      "getJunglerProfile(uint256)": {
        "notice": "Get ceratin jungler profile"
      },
      "getOwnerJunglerList(address)": {
        "notice": "Get all profile of junlers of given owner"
      },
      "open(uint256,bytes32,int8)": {
        "notice": "See {MetaJungleInterface-open}."
      },
      "propose(string,uint8)": {
        "notice": "See {JungleInterface-propose}"
      },
      "stage()": {
        "notice": "Stage of proposing or voting"
      },
      "startVote()": {
        "notice": "See {JungleInterface-startVote}"
      },
      "summon()": {
        "notice": "see {MetaJungleInterface-summon}"
      },
      "tokenURI(uint256)": {
        "notice": "Customized {ERC721-tokenURI}"
      },
      "vote(uint256,uint8[])": {
        "notice": "See {JungleInterface-vote}"
      }
    },
    "version": 1
  },
  "storageLayout": {
    "storage": [
      {
        "astId": 1072,
        "contract": "contracts/MetaJungle.sol:MetaJungle",
        "label": "_name",
        "offset": 0,
        "slot": "0",
        "type": "t_string_storage"
      },
      {
        "astId": 1074,
        "contract": "contracts/MetaJungle.sol:MetaJungle",
        "label": "_symbol",
        "offset": 0,
        "slot": "1",
        "type": "t_string_storage"
      },
      {
        "astId": 1078,
        "contract": "contracts/MetaJungle.sol:MetaJungle",
        "label": "_owners",
        "offset": 0,
        "slot": "2",
        "type": "t_mapping(t_uint256,t_address)"
      },
      {
        "astId": 1082,
        "contract": "contracts/MetaJungle.sol:MetaJungle",
        "label": "_balances",
        "offset": 0,
        "slot": "3",
        "type": "t_mapping(t_address,t_uint256)"
      },
      {
        "astId": 1086,
        "contract": "contracts/MetaJungle.sol:MetaJungle",
        "label": "_tokenApprovals",
        "offset": 0,
        "slot": "4",
        "type": "t_mapping(t_uint256,t_address)"
      },
      {
        "astId": 1092,
        "contract": "contracts/MetaJungle.sol:MetaJungle",
        "label": "_operatorApprovals",
        "offset": 0,
        "slot": "5",
        "type": "t_mapping(t_address,t_mapping(t_address,t_bool))"
      },
      {
        "astId": 2011,
        "contract": "contracts/MetaJungle.sol:MetaJungle",
        "label": "_ownedTokens",
        "offset": 0,
        "slot": "6",
        "type": "t_mapping(t_address,t_mapping(t_uint256,t_uint256))"
      },
      {
        "astId": 2015,
        "contract": "contracts/MetaJungle.sol:MetaJungle",
        "label": "_ownedTokensIndex",
        "offset": 0,
        "slot": "7",
        "type": "t_mapping(t_uint256,t_uint256)"
      },
      {
        "astId": 2018,
        "contract": "contracts/MetaJungle.sol:MetaJungle",
        "label": "_allTokens",
        "offset": 0,
        "slot": "8",
        "type": "t_array(t_uint256)dyn_storage"
      },
      {
        "astId": 2022,
        "contract": "contracts/MetaJungle.sol:MetaJungle",
        "label": "_allTokensIndex",
        "offset": 0,
        "slot": "9",
        "type": "t_mapping(t_uint256,t_uint256)"
      },
      {
        "astId": 3894,
        "contract": "contracts/MetaJungle.sol:MetaJungle",
        "label": "generation",
        "offset": 0,
        "slot": "10",
        "type": "t_uint32"
      },
      {
        "astId": 3898,
        "contract": "contracts/MetaJungle.sol:MetaJungle",
        "label": "_ens",
        "offset": 4,
        "slot": "10",
        "type": "t_contract(ENS)3877"
      },
      {
        "astId": 3902,
        "contract": "contracts/MetaJungle.sol:MetaJungle",
        "label": "_jgrContract",
        "offset": 0,
        "slot": "11",
        "type": "t_contract(IERC20)1021"
      },
      {
        "astId": 3908,
        "contract": "contracts/MetaJungle.sol:MetaJungle",
        "label": "_junglerData",
        "offset": 0,
        "slot": "12",
        "type": "t_mapping(t_uint256,t_struct(JunglerData)3923_storage)"
      },
      {
        "astId": 3277,
        "contract": "contracts/MetaJungle.sol:MetaJungle",
        "label": "_hideOnBush",
        "offset": 0,
        "slot": "13",
        "type": "t_mapping(t_uint8,t_uint256)"
      },
      {
        "astId": 3281,
        "contract": "contracts/MetaJungle.sol:MetaJungle",
        "label": "stage",
        "offset": 0,
        "slot": "14",
        "type": "t_enum(Stage)3284"
      },
      {
        "astId": 3458,
        "contract": "contracts/MetaJungle.sol:MetaJungle",
        "label": "_fieldGeneration",
        "offset": 0,
        "slot": "15",
        "type": "t_mapping(t_uint8,t_uint32)"
      },
      {
        "astId": 3461,
        "contract": "contracts/MetaJungle.sol:MetaJungle",
        "label": "_latestUpdateTime",
        "offset": 0,
        "slot": "16",
        "type": "t_uint256"
      },
      {
        "astId": 3475,
        "contract": "contracts/MetaJungle.sol:MetaJungle",
        "label": "_proposals",
        "offset": 0,
        "slot": "17",
        "type": "t_array(t_struct(Proposal)3470_storage)dyn_storage"
      },
      {
        "astId": 3480,
        "contract": "contracts/MetaJungle.sol:MetaJungle",
        "label": "_baseURIofGeneration",
        "offset": 0,
        "slot": "18",
        "type": "t_mapping(t_uint32,t_string_storage)"
      },
      {
        "astId": 130,
        "contract": "contracts/MetaJungle.sol:MetaJungle",
        "label": "_totalShares",
        "offset": 0,
        "slot": "19",
        "type": "t_uint256"
      },
      {
        "astId": 132,
        "contract": "contracts/MetaJungle.sol:MetaJungle",
        "label": "_totalReleased",
        "offset": 0,
        "slot": "20",
        "type": "t_uint256"
      },
      {
        "astId": 136,
        "contract": "contracts/MetaJungle.sol:MetaJungle",
        "label": "_shares",
        "offset": 0,
        "slot": "21",
        "type": "t_mapping(t_address,t_uint256)"
      },
      {
        "astId": 140,
        "contract": "contracts/MetaJungle.sol:MetaJungle",
        "label": "_released",
        "offset": 0,
        "slot": "22",
        "type": "t_mapping(t_address,t_uint256)"
      },
      {
        "astId": 143,
        "contract": "contracts/MetaJungle.sol:MetaJungle",
        "label": "_payees",
        "offset": 0,
        "slot": "23",
        "type": "t_array(t_address)dyn_storage"
      }
    ],
    "types": {
      "t_address": {
        "encoding": "inplace",
        "label": "address",
        "numberOfBytes": "20"
      },
      "t_array(t_address)dyn_storage": {
        "base": "t_address",
        "encoding": "dynamic_array",
        "label": "address[]",
        "numberOfBytes": "32"
      },
      "t_array(t_struct(Proposal)3470_storage)dyn_storage": {
        "base": "t_struct(Proposal)3470_storage",
        "encoding": "dynamic_array",
        "label": "struct JungleGovernance.Proposal[]",
        "numberOfBytes": "32"
      },
      "t_array(t_uint256)dyn_storage": {
        "base": "t_uint256",
        "encoding": "dynamic_array",
        "label": "uint256[]",
        "numberOfBytes": "32"
      },
      "t_bool": {
        "encoding": "inplace",
        "label": "bool",
        "numberOfBytes": "1"
      },
      "t_contract(ENS)3877": {
        "encoding": "inplace",
        "label": "contract ENS",
        "numberOfBytes": "20"
      },
      "t_contract(IERC20)1021": {
        "encoding": "inplace",
        "label": "contract IERC20",
        "numberOfBytes": "20"
      },
      "t_enum(Stage)3284": {
        "encoding": "inplace",
        "label": "enum JungleBush.Stage",
        "numberOfBytes": "1"
      },
      "t_int256": {
        "encoding": "inplace",
        "label": "int256",
        "numberOfBytes": "32"
      },
      "t_int40": {
        "encoding": "inplace",
        "label": "int40",
        "numberOfBytes": "5"
      },
      "t_int8": {
        "encoding": "inplace",
        "label": "int8",
        "numberOfBytes": "1"
      },
      "t_mapping(t_address,t_bool)": {
        "encoding": "mapping",
        "key": "t_address",
        "label": "mapping(address => bool)",
        "numberOfBytes": "32",
        "value": "t_bool"
      },
      "t_mapping(t_address,t_mapping(t_address,t_bool))": {
        "encoding": "mapping",
        "key": "t_address",
        "label": "mapping(address => mapping(address => bool))",
        "numberOfBytes": "32",
        "value": "t_mapping(t_address,t_bool)"
      },
      "t_mapping(t_address,t_mapping(t_uint256,t_uint256))": {
        "encoding": "mapping",
        "key": "t_address",
        "label": "mapping(address => mapping(uint256 => uint256))",
        "numberOfBytes": "32",
        "value": "t_mapping(t_uint256,t_uint256)"
      },
      "t_mapping(t_address,t_uint256)": {
        "encoding": "mapping",
        "key": "t_address",
        "label": "mapping(address => uint256)",
        "numberOfBytes": "32",
        "value": "t_uint256"
      },
      "t_mapping(t_uint256,t_address)": {
        "encoding": "mapping",
        "key": "t_uint256",
        "label": "mapping(uint256 => address)",
        "numberOfBytes": "32",
        "value": "t_address"
      },
      "t_mapping(t_uint256,t_struct(JunglerData)3923_storage)": {
        "encoding": "mapping",
        "key": "t_uint256",
        "label": "mapping(uint256 => struct Jungler.JunglerData)",
        "numberOfBytes": "32",
        "value": "t_struct(JunglerData)3923_storage"
      },
      "t_mapping(t_uint256,t_uint256)": {
        "encoding": "mapping",
        "key": "t_uint256",
        "label": "mapping(uint256 => uint256)",
        "numberOfBytes": "32",
        "value": "t_uint256"
      },
      "t_mapping(t_uint32,t_string_storage)": {
        "encoding": "mapping",
        "key": "t_uint32",
        "label": "mapping(uint32 => string)",
        "numberOfBytes": "32",
        "value": "t_string_storage"
      },
      "t_mapping(t_uint8,t_uint256)": {
        "encoding": "mapping",
        "key": "t_uint8",
        "label": "mapping(uint8 => uint256)",
        "numberOfBytes": "32",
        "value": "t_uint256"
      },
      "t_mapping(t_uint8,t_uint32)": {
        "encoding": "mapping",
        "key": "t_uint8",
        "label": "mapping(uint8 => uint32)",
        "numberOfBytes": "32",
        "value": "t_uint32"
      },
      "t_string_storage": {
        "encoding": "bytes",
        "label": "string",
        "numberOfBytes": "32"
      },
      "t_struct(JunglerData)3923_storage": {
        "encoding": "inplace",
        "label": "struct Jungler.JunglerData",
        "members": [
          {
            "astId": 3910,
            "contract": "contracts/MetaJungle.sol:MetaJungle",
            "label": "generation",
            "offset": 0,
            "slot": "0",
            "type": "t_uint32"
          },
          {
            "astId": 3912,
            "contract": "contracts/MetaJungle.sol:MetaJungle",
            "label": "isOpen",
            "offset": 4,
            "slot": "0",
            "type": "t_bool"
          },
          {
            "astId": 3914,
            "contract": "contracts/MetaJungle.sol:MetaJungle",
            "label": "isCampping",
            "offset": 5,
            "slot": "0",
            "type": "t_bool"
          },
          {
            "astId": 3916,
            "contract": "contracts/MetaJungle.sol:MetaJungle",
            "label": "power",
            "offset": 6,
            "slot": "0",
            "type": "t_int40"
          },
          {
            "astId": 3918,
            "contract": "contracts/MetaJungle.sol:MetaJungle",
            "label": "proxy",
            "offset": 11,
            "slot": "0",
            "type": "t_address"
          },
          {
            "astId": 3920,
            "contract": "contracts/MetaJungle.sol:MetaJungle",
            "label": "openPrice",
            "offset": 0,
            "slot": "1",
            "type": "t_int256"
          },
          {
            "astId": 3922,
            "contract": "contracts/MetaJungle.sol:MetaJungle",
            "label": "leverage",
            "offset": 0,
            "slot": "2",
            "type": "t_int8"
          }
        ],
        "numberOfBytes": "96"
      },
      "t_struct(Proposal)3470_storage": {
        "encoding": "inplace",
        "label": "struct JungleGovernance.Proposal",
        "members": [
          {
            "astId": 3463,
            "contract": "contracts/MetaJungle.sol:MetaJungle",
            "label": "proposer",
            "offset": 0,
            "slot": "0",
            "type": "t_address"
          },
          {
            "astId": 3465,
            "contract": "contracts/MetaJungle.sol:MetaJungle",
            "label": "baseURI",
            "offset": 0,
            "slot": "1",
            "type": "t_string_storage"
          },
          {
            "astId": 3467,
            "contract": "contracts/MetaJungle.sol:MetaJungle",
            "label": "bid",
            "offset": 0,
            "slot": "2",
            "type": "t_uint88"
          },
          {
            "astId": 3469,
            "contract": "contracts/MetaJungle.sol:MetaJungle",
            "label": "voteCount",
            "offset": 11,
            "slot": "2",
            "type": "t_uint8"
          }
        ],
        "numberOfBytes": "96"
      },
      "t_uint256": {
        "encoding": "inplace",
        "label": "uint256",
        "numberOfBytes": "32"
      },
      "t_uint32": {
        "encoding": "inplace",
        "label": "uint32",
        "numberOfBytes": "4"
      },
      "t_uint8": {
        "encoding": "inplace",
        "label": "uint8",
        "numberOfBytes": "1"
      },
      "t_uint88": {
        "encoding": "inplace",
        "label": "uint88",
        "numberOfBytes": "11"
      }
    }
  }
}