{
  "address": "0x0CA3Cb2d6D0627DcDCC0017a86f1187D261642f7",
  "abi": [
    {
      "inputs": [
        {
          "internalType": "address",
          "name": "ensRegistryAddr",
          "type": "address"
        },
        {
          "internalType": "string",
          "name": "baseURI",
          "type": "string"
        },
        {
          "internalType": "address[]",
          "name": "payees",
          "type": "address[]"
        },
        {
          "internalType": "uint256[]",
          "name": "shares",
          "type": "uint256[]"
        }
      ],
      "stateMutability": "nonpayable",
      "type": "constructor"
    },
    {
      "anonymous": false,
      "inputs": [
        {
          "indexed": true,
          "internalType": "address",
          "name": "owner",
          "type": "address"
        },
        {
          "indexed": true,
          "internalType": "address",
          "name": "approved",
          "type": "address"
        },
        {
          "indexed": true,
          "internalType": "uint256",
          "name": "tokenId",
          "type": "uint256"
        }
      ],
      "name": "Approval",
      "type": "event"
    },
    {
      "anonymous": false,
      "inputs": [
        {
          "indexed": true,
          "internalType": "address",
          "name": "owner",
          "type": "address"
        },
        {
          "indexed": true,
          "internalType": "address",
          "name": "operator",
          "type": "address"
        },
        {
          "indexed": false,
          "internalType": "bool",
          "name": "approved",
          "type": "bool"
        }
      ],
      "name": "ApprovalForAll",
      "type": "event"
    },
    {
      "anonymous": false,
      "inputs": [
        {
          "indexed": true,
          "internalType": "uint256",
          "name": "id",
          "type": "uint256"
        },
        {
          "components": [
            {
              "internalType": "uint32",
              "name": "generation",
              "type": "uint32"
            },
            {
              "internalType": "bool",
              "name": "closed",
              "type": "bool"
            },
            {
              "internalType": "bool",
              "name": "onField",
              "type": "bool"
            },
            {
              "internalType": "int256",
              "name": "power",
              "type": "int256"
            },
            {
              "internalType": "address",
              "name": "proxy",
              "type": "address"
            },
            {
              "internalType": "int256",
              "name": "openPrice",
              "type": "int256"
            },
            {
              "internalType": "int8",
              "name": "leverage",
              "type": "int8"
            }
          ],
          "indexed": false,
          "internalType": "struct Jungler.JunglerData",
          "name": "data",
          "type": "tuple"
        }
      ],
      "name": "CurrentJunglerState",
      "type": "event"
    },
    {
      "anonymous": false,
      "inputs": [
        {
          "indexed": false,
          "internalType": "address",
          "name": "account",
          "type": "address"
        },
        {
          "indexed": false,
          "internalType": "uint256",
          "name": "shares",
          "type": "uint256"
        }
      ],
      "name": "PayeeAdded",
      "type": "event"
    },
    {
      "anonymous": false,
      "inputs": [
        {
          "indexed": false,
          "internalType": "address",
          "name": "from",
          "type": "address"
        },
        {
          "indexed": false,
          "internalType": "uint256",
          "name": "amount",
          "type": "uint256"
        }
      ],
      "name": "PaymentReceived",
      "type": "event"
    },
    {
      "anonymous": false,
      "inputs": [
        {
          "indexed": false,
          "internalType": "address",
          "name": "to",
          "type": "address"
        },
        {
          "indexed": false,
          "internalType": "uint256",
          "name": "amount",
          "type": "uint256"
        }
      ],
      "name": "PaymentReleased",
      "type": "event"
    },
    {
      "anonymous": false,
      "inputs": [
        {
          "indexed": true,
          "internalType": "address",
          "name": "from",
          "type": "address"
        },
        {
          "indexed": true,
          "internalType": "address",
          "name": "to",
          "type": "address"
        },
        {
          "indexed": true,
          "internalType": "uint256",
          "name": "tokenId",
          "type": "uint256"
        }
      ],
      "name": "Transfer",
      "type": "event"
    },
    {
      "inputs": [
        {
          "internalType": "address",
          "name": "to",
          "type": "address"
        },
        {
          "internalType": "uint256",
          "name": "tokenId",
          "type": "uint256"
        }
      ],
      "name": "approve",
      "outputs": [],
      "stateMutability": "nonpayable",
      "type": "function"
    },
    {
      "inputs": [
        {
          "internalType": "address",
          "name": "owner",
          "type": "address"
        }
      ],
      "name": "balanceOf",
      "outputs": [
        {
          "internalType": "uint256",
          "name": "",
          "type": "uint256"
        }
      ],
      "stateMutability": "view",
      "type": "function"
    },
    {
      "inputs": [
        {
          "internalType": "uint256",
          "name": "junglerId",
          "type": "uint256"
        },
        {
          "internalType": "uint8",
          "name": "fieldId",
          "type": "uint8"
        }
      ],
      "name": "camp",
      "outputs": [],
      "stateMutability": "nonpayable",
      "type": "function"
    },
    {
      "inputs": [
        {
          "internalType": "uint256",
          "name": "junglerId",
          "type": "uint256"
        }
      ],
      "name": "close",
      "outputs": [],
      "stateMutability": "nonpayable",
      "type": "function"
    },
    {
      "inputs": [],
      "name": "endVote",
      "outputs": [],
      "stateMutability": "nonpayable",
      "type": "function"
    },
    {
      "inputs": [
        {
          "internalType": "uint256",
          "name": "junglerId",
          "type": "uint256"
        }
      ],
      "name": "gank",
      "outputs": [],
      "stateMutability": "nonpayable",
      "type": "function"
    },
    {
      "inputs": [],
      "name": "generation",
      "outputs": [
        {
          "internalType": "uint32",
          "name": "",
          "type": "uint32"
        }
      ],
      "stateMutability": "view",
      "type": "function"
    },
    {
      "inputs": [],
      "name": "getAddrOfJGR",
      "outputs": [
        {
          "internalType": "address",
          "name": "",
          "type": "address"
        }
      ],
      "stateMutability": "view",
      "type": "function"
    },
    {
      "inputs": [],
      "name": "getAllProposals",
      "outputs": [
        {
          "components": [
            {
              "internalType": "address",
              "name": "proposer",
              "type": "address"
            },
            {
              "internalType": "string",
              "name": "baseURI",
              "type": "string"
            },
            {
              "internalType": "uint88",
              "name": "bid",
              "type": "uint88"
            },
            {
              "internalType": "uint8",
              "name": "voteCount",
              "type": "uint8"
            }
          ],
          "internalType": "struct JungleGovernance.Proposal[]",
          "name": "",
          "type": "tuple[]"
        }
      ],
      "stateMutability": "view",
      "type": "function"
    },
    {
      "inputs": [
        {
          "internalType": "uint256",
          "name": "tokenId",
          "type": "uint256"
        }
      ],
      "name": "getApproved",
      "outputs": [
        {
          "internalType": "address",
          "name": "",
          "type": "address"
        }
      ],
      "stateMutability": "view",
      "type": "function"
    },
    {
      "inputs": [
        {
          "internalType": "uint256",
          "name": "junglerId",
          "type": "uint256"
        }
      ],
      "name": "getJunglerData",
      "outputs": [
        {
          "components": [
            {
              "internalType": "uint32",
              "name": "generation",
              "type": "uint32"
            },
            {
              "internalType": "bool",
              "name": "closed",
              "type": "bool"
            },
            {
              "internalType": "bool",
              "name": "onField",
              "type": "bool"
            },
            {
              "internalType": "int256",
              "name": "power",
              "type": "int256"
            },
            {
              "internalType": "address",
              "name": "proxy",
              "type": "address"
            },
            {
              "internalType": "int256",
              "name": "openPrice",
              "type": "int256"
            },
            {
              "internalType": "int8",
              "name": "leverage",
              "type": "int8"
            }
          ],
          "internalType": "struct Jungler.JunglerData",
          "name": "",
          "type": "tuple"
        }
      ],
      "stateMutability": "view",
      "type": "function"
    },
    {
      "inputs": [
        {
          "internalType": "uint8",
          "name": "fieldId",
          "type": "uint8"
        }
      ],
      "name": "getJunglerOnField",
      "outputs": [
        {
          "internalType": "uint256",
          "name": "",
          "type": "uint256"
        }
      ],
      "stateMutability": "view",
      "type": "function"
    },
    {
      "inputs": [
        {
          "internalType": "uint256",
          "name": "junglerId",
          "type": "uint256"
        }
      ],
      "name": "getJunglerProfile",
      "outputs": [
        {
          "components": [
            {
              "internalType": "uint256",
              "name": "id",
              "type": "uint256"
            },
            {
              "internalType": "uint32",
              "name": "generation",
              "type": "uint32"
            },
            {
              "internalType": "bool",
              "name": "closed",
              "type": "bool"
            },
            {
              "internalType": "bool",
              "name": "onField",
              "type": "bool"
            },
            {
              "internalType": "int256",
              "name": "power",
              "type": "int256"
            },
            {
              "internalType": "address",
              "name": "proxy",
              "type": "address"
            },
            {
              "internalType": "int256",
              "name": "openPrice",
              "type": "int256"
            },
            {
              "internalType": "int8",
              "name": "leverage",
              "type": "int8"
            },
            {
              "internalType": "string",
              "name": "tokenURI",
              "type": "string"
            }
          ],
          "internalType": "struct MetaJungle.JunglerProfile",
          "name": "",
          "type": "tuple"
        }
      ],
      "stateMutability": "view",
      "type": "function"
    },
    {
      "inputs": [
        {
          "internalType": "address",
          "name": "owner",
          "type": "address"
        }
      ],
      "name": "getOwnerJunglerList",
      "outputs": [
        {
          "components": [
            {
              "internalType": "uint256",
              "name": "id",
              "type": "uint256"
            },
            {
              "internalType": "uint32",
              "name": "generation",
              "type": "uint32"
            },
            {
              "internalType": "bool",
              "name": "closed",
              "type": "bool"
            },
            {
              "internalType": "bool",
              "name": "onField",
              "type": "bool"
            },
            {
              "internalType": "int256",
              "name": "power",
              "type": "int256"
            },
            {
              "internalType": "address",
              "name": "proxy",
              "type": "address"
            },
            {
              "internalType": "int256",
              "name": "openPrice",
              "type": "int256"
            },
            {
              "internalType": "int8",
              "name": "leverage",
              "type": "int8"
            },
            {
              "internalType": "string",
              "name": "tokenURI",
              "type": "string"
            }
          ],
          "internalType": "struct MetaJungle.JunglerProfile[]",
          "name": "junglerList",
          "type": "tuple[]"
        }
      ],
      "stateMutability": "view",
      "type": "function"
    },
    {
      "inputs": [
        {
          "internalType": "address",
          "name": "owner",
          "type": "address"
        },
        {
          "internalType": "address",
          "name": "operator",
          "type": "address"
        }
      ],
      "name": "isApprovedForAll",
      "outputs": [
        {
          "internalType": "bool",
          "name": "",
          "type": "bool"
        }
      ],
      "stateMutability": "view",
      "type": "function"
    },
    {
      "inputs": [],
      "name": "name",
      "outputs": [
        {
          "internalType": "string",
          "name": "",
          "type": "string"
        }
      ],
      "stateMutability": "view",
      "type": "function"
    },
    {
      "inputs": [
        {
          "internalType": "uint256",
          "name": "junglerId",
          "type": "uint256"
        },
        {
          "internalType": "bytes32",
          "name": "namehash",
          "type": "bytes32"
        },
        {
          "internalType": "int8",
          "name": "leverage",
          "type": "int8"
        }
      ],
      "name": "open",
      "outputs": [],
      "stateMutability": "nonpayable",
      "type": "function"
    },
    {
      "inputs": [
        {
          "internalType": "uint256",
          "name": "tokenId",
          "type": "uint256"
        }
      ],
      "name": "ownerOf",
      "outputs": [
        {
          "internalType": "address",
          "name": "",
          "type": "address"
        }
      ],
      "stateMutability": "view",
      "type": "function"
    },
    {
      "inputs": [
        {
          "internalType": "uint256",
          "name": "index",
          "type": "uint256"
        }
      ],
      "name": "payee",
      "outputs": [
        {
          "internalType": "address",
          "name": "",
          "type": "address"
        }
      ],
      "stateMutability": "view",
      "type": "function"
    },
    {
      "inputs": [
        {
          "internalType": "string",
          "name": "newBaseURI",
          "type": "string"
        },
        {
          "internalType": "uint8",
          "name": "slotId",
          "type": "uint8"
        }
      ],
      "name": "propose",
      "outputs": [],
      "stateMutability": "payable",
      "type": "function"
    },
    {
      "inputs": [
        {
          "internalType": "address payable",
          "name": "account",
          "type": "address"
        }
      ],
      "name": "release",
      "outputs": [],
      "stateMutability": "nonpayable",
      "type": "function"
    },
    {
      "inputs": [
        {
          "internalType": "address",
          "name": "account",
          "type": "address"
        }
      ],
      "name": "released",
      "outputs": [
        {
          "internalType": "uint256",
          "name": "",
          "type": "uint256"
        }
      ],
      "stateMutability": "view",
      "type": "function"
    },
    {
      "inputs": [
        {
          "internalType": "address",
          "name": "from",
          "type": "address"
        },
        {
          "internalType": "address",
          "name": "to",
          "type": "address"
        },
        {
          "internalType": "uint256",
          "name": "tokenId",
          "type": "uint256"
        }
      ],
      "name": "safeTransferFrom",
      "outputs": [],
      "stateMutability": "nonpayable",
      "type": "function"
    },
    {
      "inputs": [
        {
          "internalType": "address",
          "name": "from",
          "type": "address"
        },
        {
          "internalType": "address",
          "name": "to",
          "type": "address"
        },
        {
          "internalType": "uint256",
          "name": "tokenId",
          "type": "uint256"
        },
        {
          "internalType": "bytes",
          "name": "_data",
          "type": "bytes"
        }
      ],
      "name": "safeTransferFrom",
      "outputs": [],
      "stateMutability": "nonpayable",
      "type": "function"
    },
    {
      "inputs": [
        {
          "internalType": "address",
          "name": "operator",
          "type": "address"
        },
        {
          "internalType": "bool",
          "name": "approved",
          "type": "bool"
        }
      ],
      "name": "setApprovalForAll",
      "outputs": [],
      "stateMutability": "nonpayable",
      "type": "function"
    },
    {
      "inputs": [
        {
          "internalType": "address",
          "name": "account",
          "type": "address"
        }
      ],
      "name": "shares",
      "outputs": [
        {
          "internalType": "uint256",
          "name": "",
          "type": "uint256"
        }
      ],
      "stateMutability": "view",
      "type": "function"
    },
    {
      "inputs": [],
      "name": "stage",
      "outputs": [
        {
          "internalType": "enum JungleFields.Stage",
          "name": "",
          "type": "uint8"
        }
      ],
      "stateMutability": "view",
      "type": "function"
    },
    {
      "inputs": [],
      "name": "startVote",
      "outputs": [],
      "stateMutability": "nonpayable",
      "type": "function"
    },
    {
      "inputs": [],
      "name": "summon",
      "outputs": [],
      "stateMutability": "nonpayable",
      "type": "function"
    },
    {
      "inputs": [
        {
          "internalType": "bytes4",
          "name": "interfaceId",
          "type": "bytes4"
        }
      ],
      "name": "supportsInterface",
      "outputs": [
        {
          "internalType": "bool",
          "name": "",
          "type": "bool"
        }
      ],
      "stateMutability": "view",
      "type": "function"
    },
    {
      "inputs": [],
      "name": "symbol",
      "outputs": [
        {
          "internalType": "string",
          "name": "",
          "type": "string"
        }
      ],
      "stateMutability": "view",
      "type": "function"
    },
    {
      "inputs": [
        {
          "internalType": "uint256",
          "name": "index",
          "type": "uint256"
        }
      ],
      "name": "tokenByIndex",
      "outputs": [
        {
          "internalType": "uint256",
          "name": "",
          "type": "uint256"
        }
      ],
      "stateMutability": "view",
      "type": "function"
    },
    {
      "inputs": [
        {
          "internalType": "address",
          "name": "owner",
          "type": "address"
        },
        {
          "internalType": "uint256",
          "name": "index",
          "type": "uint256"
        }
      ],
      "name": "tokenOfOwnerByIndex",
      "outputs": [
        {
          "internalType": "uint256",
          "name": "",
          "type": "uint256"
        }
      ],
      "stateMutability": "view",
      "type": "function"
    },
    {
      "inputs": [
        {
          "internalType": "uint256",
          "name": "tokenId",
          "type": "uint256"
        }
      ],
      "name": "tokenURI",
      "outputs": [
        {
          "internalType": "string",
          "name": "",
          "type": "string"
        }
      ],
      "stateMutability": "view",
      "type": "function"
    },
    {
      "inputs": [],
      "name": "totalReleased",
      "outputs": [
        {
          "internalType": "uint256",
          "name": "",
          "type": "uint256"
        }
      ],
      "stateMutability": "view",
      "type": "function"
    },
    {
      "inputs": [],
      "name": "totalShares",
      "outputs": [
        {
          "internalType": "uint256",
          "name": "",
          "type": "uint256"
        }
      ],
      "stateMutability": "view",
      "type": "function"
    },
    {
      "inputs": [],
      "name": "totalSupply",
      "outputs": [
        {
          "internalType": "uint256",
          "name": "",
          "type": "uint256"
        }
      ],
      "stateMutability": "view",
      "type": "function"
    },
    {
      "inputs": [
        {
          "internalType": "address",
          "name": "from",
          "type": "address"
        },
        {
          "internalType": "address",
          "name": "to",
          "type": "address"
        },
        {
          "internalType": "uint256",
          "name": "tokenId",
          "type": "uint256"
        }
      ],
      "name": "transferFrom",
      "outputs": [],
      "stateMutability": "nonpayable",
      "type": "function"
    },
    {
      "inputs": [
        {
          "internalType": "uint256",
          "name": "proposalId",
          "type": "uint256"
        },
        {
          "internalType": "uint8[]",
          "name": "fieldIdList",
          "type": "uint8[]"
        }
      ],
      "name": "vote",
      "outputs": [],
      "stateMutability": "nonpayable",
      "type": "function"
    },
    {
      "stateMutability": "payable",
      "type": "receive"
    }
  ],
  "transactionHash": "0x1c751babd2f61b4c8db350da5e9a05b50ed1b9348a552c9fceafa9ef52bf8879",
  "args": [
    "0x00000000000C2E074eC69A0dFb2997BA6C7d2e1e",
    "ipfs://QmeSjSinHpPnmXmspMjwiXyN6zS4E9zccariGR3jxcaWtq/",
    [
      "0x12E97be717B334f04A868CeF9Ac0208FF5C7c32c"
    ],
    [
      1
    ]
  ],
  "solcInputHash": "8b871793af1652e778b6c311d424b702",
  "bytecode": "0x60806040523480156200001157600080fd5b5060405162005b2a38038062005b2a83398101604081905262000034916200053e565b818184866040518060400160405280600b81526020016a26b2ba30a53ab733b632b960a91b815250604051806040016040528060038152602001624d4a4760e81b8152508160009080519060200190620000909291906200038f565b508051620000a69060019060208401906200038f565b5050600a8054600163ffffffff1990911617600160201b600160c01b0319166401000000006001600160a01b0385160217905550620000e462000259565b604051620000f2906200041e565b620000fe919062000658565b604051809103906000f0801580156200011b573d6000803e3d6000fd5b50600b80546001600160a01b0319166001600160a01b039290921691909117905550600e805460ff1916905542601055600a5463ffffffff166000908152601260209081526040909120825162000175928401906200038f565b50508051825114620001a45760405162461bcd60e51b81526004016200019b90620006d1565b60405180910390fd5b6000825111620001c85760405162461bcd60e51b81526004016200019b906200076e565b60005b82518110156200024c5762000237838281518110620001fa57634e487b7160e01b600052603260045260246000fd5b60200260200101518383815181106200022357634e487b7160e01b600052603260045260246000fd5b60200260200101516200025d60201b60201c565b80620002438162000886565b915050620001cb565b50505050505050620008d0565b3390565b6001600160a01b038216620002865760405162461bcd60e51b81526004016200019b9062000685565b60008111620002a95760405162461bcd60e51b81526004016200019b90620007a5565b6001600160a01b03821660009081526015602052604090205415620002e25760405162461bcd60e51b81526004016200019b9062000723565b60178054600181019091557fc624b66cc0138b8fabc209247f72d758e1cf3343756d543badbf24212bed8c150180546001600160a01b0319166001600160a01b03841690811790915560009081526015602052604090208190556013546200034c9082906200082e565b6013556040517f40c340f65e17194d14ddddb073d3c9f888e3cb52b5aae0c6c7706b4fbc905fac906200038390849084906200066c565b60405180910390a15050565b8280546200039d9062000849565b90600052602060002090601f016020900481019282620003c157600085556200040c565b82601f10620003dc57805160ff19168380011785556200040c565b828001600101855582156200040c579182015b828111156200040c578251825591602001919060010190620003ef565b506200041a9291506200042c565b5090565b610d0a8062004e2083390190565b5b808211156200041a57600081556001016200042d565b80516001600160a01b03811681146200045b57600080fd5b919050565b600082601f83011262000471578081fd5b815160206200048a620004848362000808565b620007dc565b8281528181019085830183850287018401881015620004a7578586fd5b855b85811015620004d057620004bd8262000443565b84529284019290840190600101620004a9565b5090979650505050505050565b600082601f830112620004ee578081fd5b8151602062000501620004848362000808565b82815281810190858301838502870184018810156200051e578586fd5b855b85811015620004d05781518452928401929084019060010162000520565b6000806000806080858703121562000554578384fd5b6200055f8562000443565b602086810151919550906001600160401b03808211156200057e578586fd5b818801915088601f83011262000592578586fd5b815181811115620005a757620005a7620008ba565b620005bb601f8201601f19168501620007dc565b8181528a85838601011115620005cf578788fd5b875b82811015620005ee578481018601518282018701528501620005d1565b82811115620005ff57888684840101525b5060408a01519097509350508083111562000618578485fd5b6200062689848a0162000460565b945060608801519250808311156200063c578384fd5b50506200064c87828801620004dd565b91505092959194509250565b6001600160a01b0391909116815260200190565b6001600160a01b03929092168252602082015260400190565b6020808252602c908201527f5061796d656e7453706c69747465723a206163636f756e74206973207468652060408201526b7a65726f206164647265737360a01b606082015260800190565b60208082526032908201527f5061796d656e7453706c69747465723a2070617965657320616e6420736861726040820152710cae640d8cadccee8d040dad2e6dac2e8c6d60731b606082015260800190565b6020808252602b908201527f5061796d656e7453706c69747465723a206163636f756e7420616c726561647960408201526a206861732073686172657360a81b606082015260800190565b6020808252601a908201527f5061796d656e7453706c69747465723a206e6f20706179656573000000000000604082015260600190565b6020808252601d908201527f5061796d656e7453706c69747465723a20736861726573206172652030000000604082015260600190565b6040518181016001600160401b0381118282101715620008005762000800620008ba565b604052919050565b60006001600160401b03821115620008245762000824620008ba565b5060209081020190565b60008219821115620008445762000844620008a4565b500190565b6002810460018216806200085e57607f821691505b602082108114156200088057634e487b7160e01b600052602260045260246000fd5b50919050565b60006000198214156200089d576200089d620008a4565b5060010190565b634e487b7160e01b600052601160045260246000fd5b634e487b7160e01b600052604160045260246000fd5b61454080620008e06000396000f3fe6080604052600436106101f45760003560e01c806352ef8a7f1161010e578063b88d4fde1161009b578063b88d4fde146105ec578063b92239461461060c578063c040e6b814610621578063c87b56dd14610643578063cceb68f514610663578063cd355bff14610685578063ce7c2ac21461069a578063e2c73cb7146106ba578063e33b7de3146106e7578063e985e9c5146106fc5761023b565b806352ef8a7f1461049d5780635c8a0676146104ca5780636352211e146104ea57806370a082311461050a5780638b83209b1461052a57806395d89b411461054a5780639852595c1461055f578063a22cb4651461057f578063a706bb101461059f578063ac1ac96b146105cc5761023b565b8063191655871161018c578063191655871461038b57806323b872dd146103ab5780632570eb7d146103cb5780632f745c59146103eb578063313dc99a1461040b578063363dd19e1461041e5780633a98ef391461043357806342842e0e146104485780634c0a6af0146104685780634f6ccce71461047d5761023b565b806301ffc9a71461024057806306fdde0314610276578063081812fc14610298578063095ea7b3146102c55780630aebeb4e146102e75780631300cc3814610307578063172195221461032757806317a2f0f91461034957806318160ddd146103765761023b565b3661023b577f6ef95f06320e7a25a04a175ca677b7052bdd97131872c2192525a629f51be77061022261071c565b34604051610231929190613684565b60405180910390a1005b600080fd5b34801561024c57600080fd5b5061026061025b3660046132de565b610720565b60405161026d91906137f3565b60405180910390f35b34801561028257600080fd5b5061028b61074d565b60405161026d919061382f565b3480156102a457600080fd5b506102b86102b3366004613391565b6107df565b60405161026d9190613670565b3480156102d157600080fd5b506102e56102e0366004613297565b61082b565b005b3480156102f357600080fd5b506102e5610302366004613391565b6108c3565b34801561031357600080fd5b506102e56103223660046133a9565b610a80565b34801561033357600080fd5b5061033c610c99565b60405161026d919061419b565b34801561035557600080fd5b50610369610364366004613488565b610ca5565b60405161026d91906137fe565b34801561038257600080fd5b50610369610ce0565b34801561039757600080fd5b506102e56103a63660046130eb565b610ce6565b3480156103b757600080fd5b506102e56103c636600461315b565b610e2b565b3480156103d757600080fd5b506102e56103e6366004613391565b610e63565b3480156103f757600080fd5b50610369610406366004613297565b61101c565b6102e5610419366004613316565b611071565b34801561042a57600080fd5b506102e5611444565b34801561043f57600080fd5b5061036961160e565b34801561045457600080fd5b506102e561046336600461315b565b611614565b34801561047457600080fd5b506102e561162f565b34801561048957600080fd5b50610369610498366004613391565b6116d5565b3480156104a957600080fd5b506104bd6104b8366004613391565b611730565b60405161026d9190614188565b3480156104d657600080fd5b506102e56104e5366004613421565b611896565b3480156104f657600080fd5b506102b8610505366004613391565b611a47565b34801561051657600080fd5b506103696105253660046130eb565b611a7c565b34801561053657600080fd5b506102b8610545366004613391565b611ac0565b34801561055657600080fd5b5061028b611afe565b34801561056b57600080fd5b5061036961057a3660046130eb565b611b0d565b34801561058b57600080fd5b506102e561059a36600461326a565b611b28565b3480156105ab57600080fd5b506105bf6105ba3660046130eb565b611bf6565b60405161026d91906136f4565b3480156105d857600080fd5b506102e56105e736600461345d565b611cce565b3480156105f857600080fd5b506102e561060736600461319b565b611e60565b34801561061857600080fd5b506102e5611e9f565b34801561062d57600080fd5b506106366121e3565b60405161026d9190613807565b34801561064f57600080fd5b5061028b61065e366004613391565b6121ec565b34801561066f57600080fd5b506106786122dc565b60405161026d9190613754565b34801561069157600080fd5b506102b8612411565b3480156106a657600080fd5b506103696106b53660046130eb565b612420565b3480156106c657600080fd5b506106da6106d5366004613391565b61243b565b60405161026d919061411b565b3480156106f357600080fd5b506103696124ee565b34801561070857600080fd5b50610260610717366004613123565b6124f4565b3390565b60006001600160e01b0319821663780e9d6360e01b1480610745575061074582612522565b90505b919050565b60606000805461075c906143be565b80601f0160208091040260200160405190810160405280929190818152602001828054610788906143be565b80156107d55780601f106107aa576101008083540402835291602001916107d5565b820191906000526020600020905b8154815290600101906020018083116107b857829003601f168201915b5050505050905090565b60006107ea82612562565b61080f5760405162461bcd60e51b815260040161080690613d48565b60405180910390fd5b506000908152600460205260409020546001600160a01b031690565b600061083682611a47565b9050806001600160a01b0316836001600160a01b0316141561086a5760405162461bcd60e51b815260040161080690613ee9565b806001600160a01b031661087c61071c565b6001600160a01b0316148061089857506108988161071761071c565b6108b45760405162461bcd60e51b815260040161080690613bcf565b6108be838361257f565b505050565b806108ce33826125ed565b6108ea5760405162461bcd60e51b8152600401610806906140ce565b6000828152600c602052604090208054600160201b900460ff16156109215760405162461bcd60e51b8152600401610806906140a6565b600281015460408051633fabe5a360e21b815290516001600160a01b0390921691600091839163feaf968c9160048082019260a092909190829003018186803b15801561096d57600080fd5b505afa158015610981573d6000803e3d6000fd5b505050506040513d601f19601f820116820180604052508101906109a591906134a2565b5050855460ff60201b1916600160201b178655506003850154600186015460048701549294506103e893509091600090810b900b6109e38386614330565b6109ed919061428e565b6109f890606461428e565b610a02919061428e565b610a0c919061424c565b610a16919061424c565b836001016000828254610a2991906141ac565b9091555050600183015460001315610a535760405162461bcd60e51b815260040161080690613995565b846000805160206144eb83398151915284604051610a71919061417a565b60405180910390a25050505050565b60118054829160009186908110610aa757634e487b7160e01b600052603260045260246000fd5b9060005260206000209060030201905060005b8260ff168160ff161015610b91576000610ad382610ca5565b9050610add61071c565b6001600160a01b0316610aef82611a47565b6001600160a01b031614610b155760405162461bcd60e51b8152600401610806906140ce565b600a5460ff83166000908152600f602052604090205463ffffffff918216911610610b525760405162461bcd60e51b815260040161080690613945565b50600a5460ff82166000908152600f60205260409020805463ffffffff191663ffffffff90921691909117905580610b8981614438565b915050610aba565b508181600201600b8282829054906101000a900460ff16610bb29190614205565b825460ff9182166101009390930a928302919092021990911617905550600b546001600160a01b031663a9059cbb610be861071c565b6064600a60ff8716610bf930611a7c565b610c039190614311565b610c0e906008614311565b610c18919061427a565b610c22919061427a565b6040518363ffffffff1660e01b8152600401610c3f929190613684565b602060405180830381600087803b158015610c5957600080fd5b505af1158015610c6d573d6000803e3d6000fd5b505050506040513d601f19601f82011682018060405250810190610c9191906132c2565b505050505050565b600a5463ffffffff1681565b6000606460ff831610610cca5760405162461bcd60e51b815260040161080690613e1f565b5060ff166000908152600d602052604090205490565b60085490565b6001600160a01b038116600090815260156020526040902054610d1b5760405162461bcd60e51b8152600401610806906139c0565b600060145447610d2b91906141ed565b6001600160a01b0383166000908152601660209081526040808320546013546015909352908320549394509192610d629085614311565b610d6c919061427a565b610d76919061436f565b905080610d955760405162461bcd60e51b815260040161080690613b84565b6001600160a01b038316600090815260166020526040902054610db99082906141ed565b6001600160a01b038416600090815260166020526040902055601454610de09082906141ed565b601455610ded8382612672565b7fdf20fd1e76bc69d672e4814fafb2c449bba3a5369d8359adf9e05e6fde87b0568382604051610e1e929190613684565b60405180910390a1505050565b610e3c610e3661071c565b826125ed565b610e585760405162461bcd60e51b815260040161080690613faa565b6108be83838361270e565b6000818152600c602052604090208054600160201b900460ff1615610e9a5760405162461bcd60e51b815260040161080690613e49565b600281015460408051633fabe5a360e21b815290516001600160a01b0390921691600091839163feaf968c9160048082019260a092909190829003018186803b158015610ee657600080fd5b505afa158015610efa573d6000803e3d6000fd5b505050506040513d601f19601f82011682018060405250810190610f1e91906134a2565b505050600385015460018601546004870154929450600093506103e892840b840b610f498387614330565b610f53919061428e565b610f5e90606461428e565b610f68919061428e565b610f72919061424c565b610f7c919061424c565b8460010154610f8b91906141ac565b905060008112610fad5760405162461bcd60e51b815260040161080690613f2a565b6000600185015560405185906000805160206144eb83398151915290610fd490879061417a565b60405180910390a2600b546001600160a01b031663a9059cbb610ff561071c565b68056bc75e2d631000006040518363ffffffff1660e01b8152600401610c3f929190613684565b600061102783611a7c565b82106110455760405162461bcd60e51b815260040161080690613871565b506001600160a01b03821660009081526006602090815260408083208484529091529020545b92915050565b601154600a111561118f576011604051806080016040528061109161071c565b6001600160a01b0316815260200185858080601f0160208091040260200160405190810160405280939291908181526020018383808284376000920182905250938552505050346001600160581b0316602080840191909152604090920181905283546001808201865594825290829020835160039092020180546001600160a01b0319166001600160a01b039092169190911781558282015180519394919361114393928501929190910190612f8a565b5060408201516002909101805460609093015160ff16600160581b0260ff60581b196001600160581b039093166001600160581b031990941693909317919091169190911790556108be565b600a60ff8216106111b25760405162461bcd60e51b815260040161080690613c27565b600060118260ff16815481106111d857634e487b7160e01b600052603260045260246000fd5b6000918252602091829020604080516080810190915260039092020180546001600160a01b031682526001810180549293919291840191611218906143be565b80601f0160208091040260200160405190810160405280929190818152602001828054611244906143be565b80156112915780601f1061126657610100808354040283529160200191611291565b820191906000526020600020905b81548152906001019060200180831161127457829003601f168201915b5050509183525050600291909101546001600160581b0381166020830152600160581b900460ff166040918201528101519091506112d690662386f26fc1000061422a565b6001600160581b03163410156112fe5760405162461bcd60e51b815260040161080690613f82565b611319816000015182604001516001600160581b0316612672565b604051806080016040528061132c61071c565b6001600160a01b0316815260200185858080601f01602080910402602001604051908101604052809392919081815260200183838082843760009201829052509385525050506001600160581b03341660208301526040909101526011805460ff85169081106113ac57634e487b7160e01b600052603260045260246000fd5b600091825260209182902083516003929092020180546001600160a01b0319166001600160a01b0390921691909117815582820151805191926113f792600185019290910190612f8a565b5060408201516002909101805460609093015160ff16600160581b0260ff60581b196001600160581b039093166001600160581b0319909416939093179190911691909117905550505050565b600b546001600160a01b03166323b872dd61145d61071c565b30670de0b6b3a76400006040518463ffffffff1660e01b81526004016114859392919061369d565b602060405180830381600087803b15801561149f57600080fd5b505af11580156114b3573d6000803e3d6000fd5b505050506040513d601f19601f820116820180604052508101906114d791906132c2565b5060006114e2610ce0565b6114ed9060016141ed565b90506115006114fa61071c565b8261283b565b6040805160e081018252600a5463ffffffff90811682526001602080840182815260008587018181526103e8606088019081526080880183815260a0890184815260c08a018581528c8652600c9097528a852099518a54965194511515600160281b0260ff60281b19951515600160201b0260ff60201b1992909b1663ffffffff1990981697909717169890981792909216939093178755915193860193909355516002850180546001600160a01b03929092166001600160a01b03199092169190911790559151600384015590516004830180549190920b60ff1660ff19909116179055905182916000805160206144eb83398151915291611603919061417a565b60405180910390a250565b60135490565b6108be83838360405180602001604052806000815250611e60565b6000600e5460ff16600181111561165657634e487b7160e01b600052602160045260246000fd5b146116735760405162461bcd60e51b815260040161080690613def565b6220f58060105461168491906141ed565b4210156116a35760405162461bcd60e51b815260040161080690613842565b6011546116c25760405162461bcd60e51b815260040161080690613ebc565b600e805460ff1916600117905542601055565b60006116df610ce0565b82106116fd5760405162461bcd60e51b815260040161080690613ffb565b6008828154811061171e57634e487b7160e01b600052603260045260246000fd5b90600052602060002001549050919050565b61173861300e565b6000600c60008481526020019081526020016000206040518060e00160405290816000820160009054906101000a900463ffffffff1663ffffffff1663ffffffff1681526020016000820160049054906101000a900460ff161515151581526020016000820160059054906101000a900460ff16151515158152602001600182015481526020016002820160009054906101000a90046001600160a01b03166001600160a01b03166001600160a01b03168152602001600382015481526020016004820160009054906101000a900460000b60000b60000b815250509050604051806101200160405280848152602001826000015163ffffffff1681526020018260200151151581526020018260400151151581526020018260600151815260200182608001516001600160a01b031681526020018260a0015181526020018260c0015160000b815260200161188d856121ec565b90529392505050565b826118a133826125ed565b6118bd5760405162461bcd60e51b8152600401610806906140ce565b6000848152600c60205260409020600a54815463ffffffff9081169116146118f75760405162461bcd60e51b815260040161080690613dc5565b8054600160201b900460ff1661191f5760405162461bcd60e51b815260040161080690614047565b600061192a85612859565b90506001600160a01b0381166119525760405162461bcd60e51b815260040161080690613a7d565b60008190506000816001600160a01b031663feaf968c6040518163ffffffff1660e01b815260040160a06040518083038186803b15801561199257600080fd5b505afa1580156119a6573d6000803e3d6000fd5b505050506040513d601f19601f820116820180604052508101906119ca91906134a2565b5050865460ff60201b19168755506002860180546001600160a01b0319166001600160a01b0387161790556003860181905560048601805460ff191660ff60008b900b161790556040519092508991506000805160206144eb83398151915290611a3590879061417a565b60405180910390a25050505050505050565b6000818152600260205260408120546001600160a01b0316806107455760405162461bcd60e51b815260040161080690613c9d565b60006001600160a01b038216611aa45760405162461bcd60e51b815260040161080690613c53565b506001600160a01b031660009081526003602052604090205490565b600060178281548110611ae357634e487b7160e01b600052603260045260246000fd5b6000918252602090912001546001600160a01b031692915050565b60606001805461075c906143be565b6001600160a01b031660009081526016602052604090205490565b611b3061071c565b6001600160a01b0316826001600160a01b03161415611b615760405162461bcd60e51b815260040161080690613a4a565b8060056000611b6e61071c565b6001600160a01b03908116825260208083019390935260409182016000908120918716808252919093529120805460ff191692151592909217909155611bb261071c565b6001600160a01b03167f17307eab39ab6107e8899845ad3d59bd9653f200f220920489ca2b5937696c3183604051611bea91906137f3565b60405180910390a35050565b60606000611c0383611a7c565b9050806001600160401b03811115611c2b57634e487b7160e01b600052604160045260246000fd5b604051908082528060200260200182016040528015611c6457816020015b611c5161300e565b815260200190600190039081611c495790505b5091506000805b82811015611cc657611c7d858261101c565b9150611c8882611730565b848281518110611ca857634e487b7160e01b600052603260045260246000fd5b60200260200101819052508080611cbe906143f9565b915050611c6b565b505050919050565b81611cd933826125ed565b611cf55760405162461bcd60e51b8152600401610806906140ce565b6000600e5460ff166001811115611d1c57634e487b7160e01b600052602160045260246000fd5b14611d395760405162461bcd60e51b815260040161080690613def565b606460ff831610611d5c5760405162461bcd60e51b815260040161080690613e1f565b6000838152600c602052604090208054600160281b900460ff1615611d935760405162461bcd60e51b8152600401610806906140f1565b60ff83166000908152600d6020908152604080832054808452600c909252909120600a54835463ffffffff908116911614611de05760405162461bcd60e51b81526004016108069061396c565b8054600160201b900460ff168015611e045750600a54815463ffffffff9081169116145b15611e30578060010154836001015413611e305760405162461bcd60e51b815260040161080690613d94565b805460ff60281b19908116909155825416600160281b17909155505060ff166000908152600d6020526040902055565b611e71611e6b61071c565b836125ed565b611e8d5760405162461bcd60e51b815260040161080690613faa565b611e998484848461296a565b50505050565b6001600e5460ff166001811115611ec657634e487b7160e01b600052602160045260246000fd5b14611ee35760405162461bcd60e51b815260040161080690613f55565b6203f480601054611ef491906141ed565b421015611f135760405162461bcd60e51b815260040161080690613ce6565b600e805460ff1916905542601055600080805b60115460ff82161015611fda578260ff1660118260ff1681548110611f5b57634e487b7160e01b600052603260045260246000fd5b6000918252602090912060039091020160020154600160581b900460ff161115611fc85760118160ff1681548110611fa357634e487b7160e01b600052603260045260246000fd5b9060005260206000209060030201600201600b9054906101000a900460ff1692508091505b80611fd281614438565b915050611f26565b50600060118260ff168154811061200157634e487b7160e01b600052603260045260246000fd5b6000918252602091829020604080516080810190915260039092020180546001600160a01b031682526001810180549293919291840191612041906143be565b80601f016020809104026020016040519081016040528092919081815260200182805461206d906143be565b80156120ba5780601f1061208f576101008083540402835291602001916120ba565b820191906000526020600020905b81548152906001019060200180831161209d57829003601f168201915b5050509183525050600291909101546001600160581b0381166020830152600160581b900460ff16604090910152600b5481519192506001600160a01b03169063a9059cbb90600a61210b30611a7c565b612115919061427a565b6040518363ffffffff1660e01b8152600401612132929190613684565b602060405180830381600087803b15801561214c57600080fd5b505af1158015612160573d6000803e3d6000fd5b505050506040513d601f19601f8201168201806040525081019061218491906132c2565b50600a805463ffffffff1690600061219b83614414565b82546101009290920a63ffffffff818102199093169183160217909155602083810151600a54909216600090815260128252604090208251611e999450909290910190612f8a565b600e5460ff1681565b6000818152600c60209081526040808320805460019091015463ffffffff909116808552601290935290832080546060949190612228906143be565b80601f0160208091040260200160405190810160405280929190818152602001828054612254906143be565b80156122a15780601f10612276576101008083540402835291602001916122a1565b820191906000526020600020905b81548152906001019060200180831161228457829003601f168201915b50505050509050806122b28361299d565b6040516020016122c392919061363e565b6040516020818303038152906040529350505050919050565b60606011805480602002602001604051908101604052809291908181526020016000905b8282101561240857600084815260209081902060408051608081019091526003850290910180546001600160a01b031682526001810180549293919291840191612349906143be565b80601f0160208091040260200160405190810160405280929190818152602001828054612375906143be565b80156123c25780601f10612397576101008083540402835291602001916123c2565b820191906000526020600020905b8154815290600101906020018083116123a557829003601f168201915b5050509183525050600291909101546001600160581b038116602080840191909152600160581b90910460ff166040909201919091529082526001929092019101612300565b50505050905090565b600b546001600160a01b031690565b6001600160a01b031660009081526015602052604090205490565b61244361306f565b61244c82612562565b6124685760405162461bcd60e51b81526004016108069061406f565b506000908152600c60209081526040808320815160e081018352815463ffffffff8116825260ff600160201b82048116151595830195909552600160281b90049093161515918301919091526001810154606083015260028101546001600160a01b03166080830152600381015460a083015260040154820b820b90910b60c082015290565b60145490565b6001600160a01b03918216600090815260056020908152604080832093909416825291909152205460ff1690565b60006001600160e01b031982166380ac58cd60e01b148061255357506001600160e01b03198216635b5e139f60e01b145b80610745575061074582612ab7565b6000908152600260205260409020546001600160a01b0316151590565b600081815260046020526040902080546001600160a01b0319166001600160a01b03841690811790915581906125b482611a47565b6001600160a01b03167f8c5be1e5ebec7d5bd14f71427d1e84f3dd0314c0f7b2291e5b200ac8c7c3b92560405160405180910390a45050565b60006125f882612562565b6126145760405162461bcd60e51b815260040161080690613b38565b600061261f83611a47565b9050806001600160a01b0316846001600160a01b0316148061265a5750836001600160a01b031661264f846107df565b6001600160a01b0316145b8061266a575061266a81856124f4565b949350505050565b804710156126925760405162461bcd60e51b815260040161080690613b01565b6000826001600160a01b0316826040516126ab9061366d565b60006040518083038185875af1925050503d80600081146126e8576040519150601f19603f3d011682016040523d82523d6000602084013e6126ed565b606091505b50509050806108be5760405162461bcd60e51b815260040161080690613aa7565b826001600160a01b031661272182611a47565b6001600160a01b0316146127475760405162461bcd60e51b815260040161080690613e73565b6001600160a01b03821661276d5760405162461bcd60e51b815260040161080690613a06565b612778838383612ad0565b61278360008261257f565b6001600160a01b03831660009081526003602052604081208054600192906127ac90849061436f565b90915550506001600160a01b03821660009081526003602052604081208054600192906127da9084906141ed565b909155505060008181526002602052604080822080546001600160a01b0319166001600160a01b0386811691821790925591518493918716917fddf252ad1be2c89b69c2b068fc378daa952ba7f163c4a11628f55a4df523b3ef91a4505050565b612855828260405180602001604052806000815250612b59565b5050565b600a54604051630178b8bf60e01b81526000918291600160201b9091046001600160a01b031690630178b8bf906128949086906004016137fe565b60206040518083038186803b1580156128ac57600080fd5b505afa1580156128c0573d6000803e3d6000fd5b505050506040513d601f19601f820116820180604052508101906128e49190613107565b604051631d9dabef60e11b81529091506001600160a01b03821690633b3b57de906129139086906004016137fe565b60206040518083038186803b15801561292b57600080fd5b505afa15801561293f573d6000803e3d6000fd5b505050506040513d601f19601f820116820180604052508101906129639190613107565b9392505050565b61297584848461270e565b61298184848484612b8c565b611e995760405162461bcd60e51b8152600401610806906138bc565b6060816129c257506040805180820190915260018152600360fc1b6020820152610748565b8160005b81156129ec57806129d6816143f9565b91506129e59050600a8361427a565b91506129c6565b6000816001600160401b03811115612a1457634e487b7160e01b600052604160045260246000fd5b6040519080825280601f01601f191660200182016040528015612a3e576020820181803683370190505b5090505b841561266a57612a5360018361436f565b9150612a60600a86614458565b612a6b9060306141ed565b60f81b818381518110612a8e57634e487b7160e01b600052603260045260246000fd5b60200101906001600160f81b031916908160001a905350612ab0600a8661427a565b9450612a42565b6001600160e01b031981166301ffc9a760e01b14919050565b612adb8383836108be565b6001600160a01b038316612af757612af281612ca7565b612b1a565b816001600160a01b0316836001600160a01b031614612b1a57612b1a8382612ceb565b6001600160a01b038216612b3657612b3181612d88565b6108be565b826001600160a01b0316826001600160a01b0316146108be576108be8282612e61565b612b638383612ea5565b612b706000848484612b8c565b6108be5760405162461bcd60e51b8152600401610806906138bc565b6000612ba0846001600160a01b0316612f84565b15612c9c57836001600160a01b031663150b7a02612bbc61071c565b8786866040518563ffffffff1660e01b8152600401612bde94939291906136c1565b602060405180830381600087803b158015612bf857600080fd5b505af1925050508015612c28575060408051601f3d908101601f19168201909252612c25918101906132fa565b60015b612c82573d808015612c56576040519150601f19603f3d011682016040523d82523d6000602084013e612c5b565b606091505b508051612c7a5760405162461bcd60e51b8152600401610806906138bc565b805181602001fd5b6001600160e01b031916630a85bd0160e11b14905061266a565b506001949350505050565b600880546000838152600960205260408120829055600182018355919091527ff3f7a9fe364faab93b216da50a3214154f22a0a2b415b23a84c8169e8b636ee30155565b60006001612cf884611a7c565b612d02919061436f565b600083815260076020526040902054909150808214612d55576001600160a01b03841660009081526006602090815260408083208584528252808320548484528184208190558352600790915290208190555b5060009182526007602090815260408084208490556001600160a01b039094168352600681528383209183525290812055565b600854600090612d9a9060019061436f565b60008381526009602052604081205460088054939450909284908110612dd057634e487b7160e01b600052603260045260246000fd5b906000526020600020015490508060088381548110612dff57634e487b7160e01b600052603260045260246000fd5b6000918252602080832090910192909255828152600990915260408082208490558582528120556008805480612e4557634e487b7160e01b600052603160045260246000fd5b6001900381819060005260206000200160009055905550505050565b6000612e6c83611a7c565b6001600160a01b039093166000908152600660209081526040808320868452825280832085905593825260079052919091209190915550565b6001600160a01b038216612ecb5760405162461bcd60e51b815260040161080690613d13565b612ed481612562565b15612ef15760405162461bcd60e51b81526004016108069061390e565b612efd60008383612ad0565b6001600160a01b0382166000908152600360205260408120805460019290612f269084906141ed565b909155505060008181526002602052604080822080546001600160a01b0319166001600160a01b03861690811790915590518392907fddf252ad1be2c89b69c2b068fc378daa952ba7f163c4a11628f55a4df523b3ef908290a45050565b3b151590565b828054612f96906143be565b90600052602060002090601f016020900481019282612fb85760008555612ffe565b82601f10612fd157805160ff1916838001178555612ffe565b82800160010185558215612ffe579182015b82811115612ffe578251825591602001919060010190612fe3565b5061300a9291506130ab565b5090565b60405180610120016040528060008152602001600063ffffffff1681526020016000151581526020016000151581526020016000815260200160006001600160a01b03168152602001600081526020016000800b8152602001606081525090565b6040805160e081018252600080825260208201819052918101829052606081018290526080810182905260a0810182905260c081019190915290565b5b8082111561300a57600081556001016130ac565b803560ff8116811461074857600080fd5b805169ffffffffffffffffffff8116811461074857600080fd5b6000602082840312156130fc578081fd5b8135612963816144ae565b600060208284031215613118578081fd5b8151612963816144ae565b60008060408385031215613135578081fd5b8235613140816144ae565b91506020830135613150816144ae565b809150509250929050565b60008060006060848603121561316f578081fd5b833561317a816144ae565b9250602084013561318a816144ae565b929592945050506040919091013590565b600080600080608085870312156131b0578081fd5b84356131bb816144ae565b93506020858101356131cc816144ae565b93506040860135925060608601356001600160401b03808211156131ee578384fd5b818801915088601f830112613201578384fd5b81358181111561321357613213614498565b604051601f8201601f191681018501838111828210171561323657613236614498565b60405281815283820185018b101561324c578586fd5b81858501868301379081019093019390935250939692955090935050565b6000806040838503121561327c578182fd5b8235613287816144ae565b91506020830135613150816144c6565b600080604083850312156132a9578182fd5b82356132b4816144ae565b946020939093013593505050565b6000602082840312156132d3578081fd5b8151612963816144c6565b6000602082840312156132ef578081fd5b8135612963816144d4565b60006020828403121561330b578081fd5b8151612963816144d4565b60008060006040848603121561332a578081fd5b83356001600160401b0380821115613340578283fd5b818601915086601f830112613353578283fd5b813581811115613361578384fd5b876020828501011115613372578384fd5b60209283019550935061338891860190506130c0565b90509250925092565b6000602082840312156133a2578081fd5b5035919050565b6000806000604084860312156133bd578081fd5b8335925060208401356001600160401b03808211156133da578283fd5b818601915086601f8301126133ed578283fd5b8135818111156133fb578384fd5b876020808302850101111561340e578384fd5b6020830194508093505050509250925092565b600080600060608486031215613435578081fd5b8335925060208401359150604084013580820b8114613452578182fd5b809150509250925092565b6000806040838503121561346f578182fd5b8235915061347f602084016130c0565b90509250929050565b600060208284031215613499578081fd5b612963826130c0565b600080600080600060a086880312156134b9578283fd5b6134c2866130d1565b94506020860151935060408601519250606086015191506134e5608087016130d1565b90509295509295909350565b6001600160a01b03169052565b15159052565b6000815180845261351c816020860160208601614392565b601f01601f19169290920160200192915050565b60000b9052565b805463ffffffff8116835260ff8160201c161515602084015260ff8160281c161515604084015250600181015460608301526135766002820154614386565b61358360808401826134f1565b50600381015460a0830152600481015460000b6108be60c0840182613530565b60006101208251845263ffffffff602084015116602085015260408301516135ce60408601826134fe565b5060608301516135e160608601826134fe565b506080830151608085015260a08301516135fe60a08601826134f1565b5060c083015160c085015260e083015161361b60e0860182613530565b5061010080840151828287015261363483870182613504565b9695505050505050565b60008351613650818460208801614392565b835190830190613664818360208801614392565b01949350505050565b90565b6001600160a01b0391909116815260200190565b6001600160a01b03929092168252602082015260400190565b6001600160a01b039384168152919092166020820152604081019190915260600190565b6001600160a01b038581168252841660208201526040810183905260806060820181905260009061363490830184613504565b6000602080830181845280855180835260408601915060408482028701019250838701855b8281101561374757603f198886030184526137358583516135a3565b94509285019290850190600101613719565b5092979650505050505050565b60208082528251828201819052600091906040908185019080840286018301878501865b838110156137e557888303603f19018552815180516001600160a01b03168452878101516080898601819052906137b182870182613504565b838a01516001600160581b0316878b015260609384015160ff16939096019290925250509386019390860190600101613778565b509098975050505050505050565b901515815260200190565b90815260200190565b602081016002831061382957634e487b7160e01b600052602160045260246000fd5b91905290565b6000602082526129636020830184613504565b6020808252601590820152746e6f742079657420746f20737461727420766f746560581b604082015260600190565b6020808252602b908201527f455243373231456e756d657261626c653a206f776e657220696e646578206f7560408201526a74206f6620626f756e647360a81b606082015260800190565b60208082526032908201527f4552433732313a207472616e7366657220746f206e6f6e20455243373231526560408201527131b2b4bb32b91034b6b83632b6b2b73a32b960711b606082015260800190565b6020808252601c908201527f4552433732313a20746f6b656e20616c7265616479206d696e74656400000000604082015260600190565b6020808252600d908201526c185b1c9958591e481d9bdd1959609a1b604082015260600190565b6020808252600f908201526e1a9d5b99db195c881d1bdbc81bdb19608a1b604082015260600190565b602080825260119082015270393ab71037baba1037b31036b0b933b4b760791b604082015260600190565b60208082526026908201527f5061796d656e7453706c69747465723a206163636f756e7420686173206e6f2060408201526573686172657360d01b606082015260800190565b60208082526024908201527f4552433732313a207472616e7366657220746f20746865207a65726f206164646040820152637265737360e01b606082015260800190565b60208082526019908201527822a9219b99189d1030b8383937bb32903a379031b0b63632b960391b604082015260600190565b60208082526010908201526f0d2dcecc2d8d2c840dcc2dacad0c2e6d60831b604082015260600190565b6020808252603a908201527f416464726573733a20756e61626c6520746f2073656e642076616c75652c20726040820152791958da5c1a595b9d081b585e481a185d99481c995d995c9d195960321b606082015260800190565b6020808252601d908201527f416464726573733a20696e73756666696369656e742062616c616e6365000000604082015260600190565b6020808252602c908201527f4552433732313a206f70657261746f7220717565727920666f72206e6f6e657860408201526b34b9ba32b73a103a37b5b2b760a11b606082015260800190565b6020808252602b908201527f5061796d656e7453706c69747465723a206163636f756e74206973206e6f742060408201526a191d59481c185e5b595b9d60aa1b606082015260800190565b60208082526038908201527f4552433732313a20617070726f76652063616c6c6572206973206e6f74206f776040820152771b995c881b9bdc88185c1c1c9bdd995908199bdc88185b1b60421b606082015260800190565b602080825260129082015271696e646578206f7574206f662072616e676560701b604082015260600190565b6020808252602a908201527f4552433732313a2062616c616e636520717565727920666f7220746865207a65604082015269726f206164647265737360b01b606082015260800190565b60208082526029908201527f4552433732313a206f776e657220717565727920666f72206e6f6e657869737460408201526832b73a103a37b5b2b760b91b606082015260800190565b6020808252601390820152726e6f742079657420746f20656e6420766f746560681b604082015260600190565b6020808252818101527f4552433732313a206d696e7420746f20746865207a65726f2061646472657373604082015260600190565b6020808252602c908201527f4552433732313a20617070726f76656420717565727920666f72206e6f6e657860408201526b34b9ba32b73a103a37b5b2b760a11b606082015260800190565b60208082526017908201527661747461636b65722063616e2774206f76657274616b6560481b604082015260600190565b60208082526010908201526f33b2b732b930ba34b7b71032b93937b960811b604082015260600190565b6020808252601690820152756e6f7420696e2070726f706f73696e6720737461676560501b604082015260600190565b60208082526010908201526f1bdd5d081bd98819dc985cdcdb185b9960821b604082015260600190565b60208082526010908201526f1cda1bdd5b19081899481bdc195b995960821b604082015260600190565b60208082526029908201527f4552433732313a207472616e73666572206f6620746f6b656e2074686174206960408201526839903737ba1037bbb760b91b606082015260800190565b6020808252601390820152726e6f2070726f706f73616c20746f20766f746560681b604082015260600190565b60208082526021908201527f4552433732313a20617070726f76616c20746f2063757272656e74206f776e656040820152603960f91b606082015260800190565b6020808252601190820152703737ba1037baba1037b31036b0b933b4b760791b604082015260600190565b6020808252601390820152726e6f7420696e20766f74696e6720737461676560681b604082015260600190565b6020808252600e908201526d1b9bdd08195b9bdd59da08189a5960921b604082015260600190565b60208082526031908201527f4552433732313a207472616e736665722063616c6c6572206973206e6f74206f6040820152701ddb995c881b9bdc88185c1c1c9bdd9959607a1b606082015260800190565b6020808252602c908201527f455243373231456e756d657261626c653a20676c6f62616c20696e646578206f60408201526b7574206f6620626f756e647360a01b606082015260800190565b6020808252600e908201526d185b1c9958591e481bdc195b995960921b604082015260600190565b6020808252601d908201527f717565727920666f72206e6f6e6578697374656e74206a756e676c6572000000604082015260600190565b6020808252600e908201526d185b1c9958591e4818db1bdcd95960921b604082015260600190565b6020808252600990820152683737ba1037bbb732b960b91b604082015260600190565b60208082526010908201526f185b1c9958591e481bdb88199a595b1960821b604082015260600190565b815163ffffffff168152602080830151151590820152604080830151151590820152606080830151908201526080808301516001600160a01b03169082015260a0808301519082015260c09182015160000b9181019190915260e00190565b60e0810161106b8284613537565b60006020825261296360208301846135a3565b63ffffffff91909116815260200190565b600080821280156001600160ff1b03849003851316156141ce576141ce61446c565b600160ff1b83900384128116156141e7576141e761446c565b50500190565b600082198211156142005761420061446c565b500190565b600060ff821660ff84168060ff038211156142225761422261446c565b019392505050565b60006001600160581b038281168482168083038211156136645761366461446c565b60008261425b5761425b614482565b600160ff1b8214600019841416156142755761427561446c565b500590565b60008261428957614289614482565b500490565b60006001600160ff1b03818413828413808216868404861116156142b4576142b461446c565b600160ff1b848712828116878305891216156142d2576142d261446c565b8587129250878205871284841616156142ed576142ed61446c565b878505871281841616156143035761430361446c565b505050929093029392505050565b600081600019048311821515161561432b5761432b61446c565b500290565b60008083128015600160ff1b85018412161561434e5761434e61446c565b6001600160ff1b03840183138116156143695761436961446c565b50500390565b6000828210156143815761438161446c565b500390565b6001600160a01b031690565b60005b838110156143ad578181015183820152602001614395565b83811115611e995750506000910152565b6002810460018216806143d257607f821691505b602082108114156143f357634e487b7160e01b600052602260045260246000fd5b50919050565b600060001982141561440d5761440d61446c565b5060010190565b600063ffffffff8083168181141561442e5761442e61446c565b6001019392505050565b600060ff821660ff81141561444f5761444f61446c565b60010192915050565b60008261446757614467614482565b500690565b634e487b7160e01b600052601160045260246000fd5b634e487b7160e01b600052601260045260246000fd5b634e487b7160e01b600052604160045260246000fd5b6001600160a01b03811681146144c357600080fd5b50565b80151581146144c357600080fd5b6001600160e01b0319811681146144c357600080fdfeff5c2b2eb99fd86cd5a2c44906926905cb82721b9b020f611d52765bf9382098a264697066735822122077d83533dcffa90f64706150c2056e7b9ed2feba1cdf881741a349332f40889964736f6c6343000800003360806040523480156200001157600080fd5b5060405162000d0a38038062000d0a83398101604081905262000034916200027b565b6040518060400160405280600e81526020016d4a756e676c655265736f7572636560901b815250604051806040016040528060038152602001622523a960e91b81525081600390805190602001906200008f929190620001d5565b508051620000a5906004906020840190620001d5565b505050620000cd620000bc620000ea60201b60201c565b6969e10de76676d0800000620000ee565b620000e3816969e10de76676d0800000620000ee565b506200034d565b3390565b6001600160a01b038216620001205760405162461bcd60e51b81526004016200011790620002ab565b60405180910390fd5b6200012e60008383620001d0565b8060026000828254620001429190620002eb565b90915550506001600160a01b0382166000908152602081905260408120805483929062000171908490620002eb565b90915550506040516001600160a01b038316906000907fddf252ad1be2c89b69c2b068fc378daa952ba7f163c4a11628f55a4df523b3ef90620001b6908590620002e2565b60405180910390a3620001cc60008383620001d0565b5050565b505050565b828054620001e39062000310565b90600052602060002090601f01602090048101928262000207576000855562000252565b82601f106200022257805160ff191683800117855562000252565b8280016001018555821562000252579182015b828111156200025257825182559160200191906001019062000235565b506200026092915062000264565b5090565b5b8082111562000260576000815560010162000265565b6000602082840312156200028d578081fd5b81516001600160a01b0381168114620002a4578182fd5b9392505050565b6020808252601f908201527f45524332303a206d696e7420746f20746865207a65726f206164647265737300604082015260600190565b90815260200190565b600082198211156200030b57634e487b7160e01b81526011600452602481fd5b500190565b6002810460018216806200032557607f821691505b602082108114156200034757634e487b7160e01b600052602260045260246000fd5b50919050565b6109ad806200035d6000396000f3fe608060405234801561001057600080fd5b50600436106100995760003560e01c806306fdde031461009e578063095ea7b3146100bc57806318160ddd146100dc57806323b872dd146100f1578063313ce56714610104578063395093511461011957806370a082311461012c57806395d89b411461013f578063a457c2d714610147578063a9059cbb1461015a578063dd62ed3e1461016d575b600080fd5b6100a6610180565b6040516100b391906106cd565b60405180910390f35b6100cf6100ca366004610699565b610212565b6040516100b391906106c2565b6100e461022f565b6040516100b39190610901565b6100cf6100ff36600461065e565b610235565b61010c6102ce565b6040516100b3919061090a565b6100cf610127366004610699565b6102d3565b6100e461013a36600461060b565b610327565b6100a6610346565b6100cf610155366004610699565b610355565b6100cf610168366004610699565b6103ce565b6100e461017b36600461062c565b6103e2565b60606003805461018f9061093c565b80601f01602080910402602001604051908101604052809291908181526020018280546101bb9061093c565b80156102085780601f106101dd57610100808354040283529160200191610208565b820191906000526020600020905b8154815290600101906020018083116101eb57829003601f168201915b5050505050905090565b600061022661021f61040d565b8484610411565b50600192915050565b60025490565b60006102428484846104c5565b6001600160a01b03841660009081526001602052604081208161026361040d565b6001600160a01b03166001600160a01b03168152602001908152602001600020549050828110156102af5760405162461bcd60e51b81526004016102a6906107eb565b60405180910390fd5b6102c3856102bb61040d565b858403610411565b506001949350505050565b601290565b60006102266102e061040d565b8484600160006102ee61040d565b6001600160a01b03908116825260208083019390935260409182016000908120918b16815292529020546103229190610918565b610411565b6001600160a01b0381166000908152602081905260409020545b919050565b60606004805461018f9061093c565b6000806001600061036461040d565b6001600160a01b03908116825260208083019390935260409182016000908120918816815292529020549050828110156103b05760405162461bcd60e51b81526004016102a6906108bc565b6103c46103bb61040d565b85858403610411565b5060019392505050565b60006102266103db61040d565b84846104c5565b6001600160a01b03918216600090815260016020908152604080832093909416825291909152205490565b3390565b6001600160a01b0383166104375760405162461bcd60e51b81526004016102a690610878565b6001600160a01b03821661045d5760405162461bcd60e51b81526004016102a690610763565b6001600160a01b0380841660008181526001602090815260408083209487168084529490915290819020849055517f8c5be1e5ebec7d5bd14f71427d1e84f3dd0314c0f7b2291e5b200ac8c7c3b925906104b8908590610901565b60405180910390a3505050565b6001600160a01b0383166104eb5760405162461bcd60e51b81526004016102a690610833565b6001600160a01b0382166105115760405162461bcd60e51b81526004016102a690610720565b61051c8383836105ef565b6001600160a01b038316600090815260208190526040902054818110156105555760405162461bcd60e51b81526004016102a6906107a5565b6001600160a01b0380851660009081526020819052604080822085850390559185168152908120805484929061058c908490610918565b92505081905550826001600160a01b0316846001600160a01b03167fddf252ad1be2c89b69c2b068fc378daa952ba7f163c4a11628f55a4df523b3ef846040516105d69190610901565b60405180910390a36105e98484846105ef565b50505050565b505050565b80356001600160a01b038116811461034157600080fd5b60006020828403121561061c578081fd5b610625826105f4565b9392505050565b6000806040838503121561063e578081fd5b610647836105f4565b9150610655602084016105f4565b90509250929050565b600080600060608486031215610672578081fd5b61067b846105f4565b9250610689602085016105f4565b9150604084013590509250925092565b600080604083850312156106ab578182fd5b6106b4836105f4565b946020939093013593505050565b901515815260200190565b6000602080835283518082850152825b818110156106f9578581018301518582016040015282016106dd565b8181111561070a5783604083870101525b50601f01601f1916929092016040019392505050565b60208082526023908201527f45524332303a207472616e7366657220746f20746865207a65726f206164647260408201526265737360e81b606082015260800190565b60208082526022908201527f45524332303a20617070726f766520746f20746865207a65726f206164647265604082015261737360f01b606082015260800190565b60208082526026908201527f45524332303a207472616e7366657220616d6f756e7420657863656564732062604082015265616c616e636560d01b606082015260800190565b60208082526028908201527f45524332303a207472616e7366657220616d6f756e74206578636565647320616040820152676c6c6f77616e636560c01b606082015260800190565b60208082526025908201527f45524332303a207472616e736665722066726f6d20746865207a65726f206164604082015264647265737360d81b606082015260800190565b60208082526024908201527f45524332303a20617070726f76652066726f6d20746865207a65726f206164646040820152637265737360e01b606082015260800190565b60208082526025908201527f45524332303a2064656372656173656420616c6c6f77616e63652062656c6f77604082015264207a65726f60d81b606082015260800190565b90815260200190565b60ff91909116815260200190565b6000821982111561093757634e487b7160e01b81526011600452602481fd5b500190565b60028104600182168061095057607f821691505b6020821081141561097157634e487b7160e01b600052602260045260246000fd5b5091905056fea2646970667358221220f17db4d0512a267d750e98075e3946a377dbb7dcc6291c840ade766c8b2c852f64736f6c63430008000033",
  "devdoc": {
    "kind": "dev",
    "methods": {
      "approve(address,uint256)": {
        "details": "See {IERC721-approve}."
      },
      "balanceOf(address)": {
        "details": "See {IERC721-balanceOf}."
      },
      "constructor": {
        "details": "Setup PaymentSplitter"
      },
      "getApproved(uint256)": {
        "details": "See {IERC721-getApproved}."
      },
      "isApprovedForAll(address,address)": {
        "details": "See {IERC721-isApprovedForAll}."
      },
      "name()": {
        "details": "See {IERC721Metadata-name}."
      },
      "ownerOf(uint256)": {
        "details": "See {IERC721-ownerOf}."
      },
      "payee(uint256)": {
        "details": "Getter for the address of the payee number `index`."
      },
      "release(address)": {
        "details": "Triggers a transfer to `account` of the amount of Ether they are owed, according to their percentage of the total shares and their previous withdrawals."
      },
      "released(address)": {
        "details": "Getter for the amount of Ether already released to a payee."
      },
      "safeTransferFrom(address,address,uint256)": {
        "details": "See {IERC721-safeTransferFrom}."
      },
      "safeTransferFrom(address,address,uint256,bytes)": {
        "details": "See {IERC721-safeTransferFrom}."
      },
      "setApprovalForAll(address,bool)": {
        "details": "See {IERC721-setApprovalForAll}."
      },
      "shares(address)": {
        "details": "Getter for the amount of shares held by an account."
      },
      "supportsInterface(bytes4)": {
        "details": "See {IERC165-supportsInterface}."
      },
      "symbol()": {
        "details": "See {IERC721Metadata-symbol}."
      },
      "tokenByIndex(uint256)": {
        "details": "See {IERC721Enumerable-tokenByIndex}."
      },
      "tokenOfOwnerByIndex(address,uint256)": {
        "details": "See {IERC721Enumerable-tokenOfOwnerByIndex}."
      },
      "totalReleased()": {
        "details": "Getter for the total amount of Ether already released."
      },
      "totalShares()": {
        "details": "Getter for the total shares held by payees."
      },
      "totalSupply()": {
        "details": "See {IERC721Enumerable-totalSupply}."
      },
      "transferFrom(address,address,uint256)": {
        "details": "See {IERC721-transferFrom}."
      }
    },
    "version": 1
  },
  "userdoc": {
    "kind": "user",
    "methods": {
      "camp(uint256,uint8)": {
        "notice": "See {JungleInterface-camp}"
      },
      "close(uint256)": {
        "notice": "See {MetaJungleInterface-close}."
      },
      "endVote()": {
        "notice": "See {JungleInterface-endVote}"
      },
      "gank(uint256)": {
        "notice": "See {MetaJungleInterface-gank}."
      },
      "generation()": {
        "notice": "Current generation"
      },
      "getAddrOfJGR()": {
        "notice": "Return address of JGR contract"
      },
      "getAllProposals()": {
        "notice": "Return all proposals' contents"
      },
      "getJunglerData(uint256)": {
        "notice": "Return jungler data given jungler ID"
      },
      "getJunglerOnField(uint8)": {
        "notice": "Return jungler ID given field ID"
      },
      "getJunglerProfile(uint256)": {
        "notice": "Get ceratin jungler profile"
      },
      "getOwnerJunglerList(address)": {
        "notice": "Get all profile of junlers of given owner"
      },
      "open(uint256,bytes32,int8)": {
        "notice": "See {MetaJungleInterface-open}."
      },
      "propose(string,uint8)": {
        "notice": "See {JungleInterface-propose}"
      },
      "stage()": {
        "notice": "Stage of proposing or voting"
      },
      "startVote()": {
        "notice": "See {JungleInterface-startVote}"
      },
      "summon()": {
        "notice": "see {MetaJungleInterface-summon}"
      },
      "tokenURI(uint256)": {
        "notice": "Customized {ERC721-tokenURI}"
      },
      "vote(uint256,uint8[])": {
        "notice": "See {JungleInterface-vote}"
      }
    },
    "version": 1
  },
  "storageLayout": {
    "storage": [
      {
        "astId": 1072,
        "contract": "contracts/MetaJungle.sol:MetaJungle",
        "label": "_name",
        "offset": 0,
        "slot": "0",
        "type": "t_string_storage"
      },
      {
        "astId": 1074,
        "contract": "contracts/MetaJungle.sol:MetaJungle",
        "label": "_symbol",
        "offset": 0,
        "slot": "1",
        "type": "t_string_storage"
      },
      {
        "astId": 1078,
        "contract": "contracts/MetaJungle.sol:MetaJungle",
        "label": "_owners",
        "offset": 0,
        "slot": "2",
        "type": "t_mapping(t_uint256,t_address)"
      },
      {
        "astId": 1082,
        "contract": "contracts/MetaJungle.sol:MetaJungle",
        "label": "_balances",
        "offset": 0,
        "slot": "3",
        "type": "t_mapping(t_address,t_uint256)"
      },
      {
        "astId": 1086,
        "contract": "contracts/MetaJungle.sol:MetaJungle",
        "label": "_tokenApprovals",
        "offset": 0,
        "slot": "4",
        "type": "t_mapping(t_uint256,t_address)"
      },
      {
        "astId": 1092,
        "contract": "contracts/MetaJungle.sol:MetaJungle",
        "label": "_operatorApprovals",
        "offset": 0,
        "slot": "5",
        "type": "t_mapping(t_address,t_mapping(t_address,t_bool))"
      },
      {
        "astId": 2011,
        "contract": "contracts/MetaJungle.sol:MetaJungle",
        "label": "_ownedTokens",
        "offset": 0,
        "slot": "6",
        "type": "t_mapping(t_address,t_mapping(t_uint256,t_uint256))"
      },
      {
        "astId": 2015,
        "contract": "contracts/MetaJungle.sol:MetaJungle",
        "label": "_ownedTokensIndex",
        "offset": 0,
        "slot": "7",
        "type": "t_mapping(t_uint256,t_uint256)"
      },
      {
        "astId": 2018,
        "contract": "contracts/MetaJungle.sol:MetaJungle",
        "label": "_allTokens",
        "offset": 0,
        "slot": "8",
        "type": "t_array(t_uint256)dyn_storage"
      },
      {
        "astId": 2022,
        "contract": "contracts/MetaJungle.sol:MetaJungle",
        "label": "_allTokensIndex",
        "offset": 0,
        "slot": "9",
        "type": "t_mapping(t_uint256,t_uint256)"
      },
      {
        "astId": 3893,
        "contract": "contracts/MetaJungle.sol:MetaJungle",
        "label": "generation",
        "offset": 0,
        "slot": "10",
        "type": "t_uint32"
      },
      {
        "astId": 3897,
        "contract": "contracts/MetaJungle.sol:MetaJungle",
        "label": "_ens",
        "offset": 4,
        "slot": "10",
        "type": "t_contract(ENS)3876"
      },
      {
        "astId": 3901,
        "contract": "contracts/MetaJungle.sol:MetaJungle",
        "label": "_jgrContract",
        "offset": 0,
        "slot": "11",
        "type": "t_contract(IERC20)1021"
      },
      {
        "astId": 3907,
        "contract": "contracts/MetaJungle.sol:MetaJungle",
        "label": "_junglerData",
        "offset": 0,
        "slot": "12",
        "type": "t_mapping(t_uint256,t_struct(JunglerData)3922_storage)"
      },
      {
        "astId": 3277,
        "contract": "contracts/MetaJungle.sol:MetaJungle",
        "label": "_junglerIdOnField",
        "offset": 0,
        "slot": "13",
        "type": "t_mapping(t_uint8,t_uint256)"
      },
      {
        "astId": 3281,
        "contract": "contracts/MetaJungle.sol:MetaJungle",
        "label": "stage",
        "offset": 0,
        "slot": "14",
        "type": "t_enum(Stage)3284"
      },
      {
        "astId": 3457,
        "contract": "contracts/MetaJungle.sol:MetaJungle",
        "label": "_fieldGeneration",
        "offset": 0,
        "slot": "15",
        "type": "t_mapping(t_uint8,t_uint32)"
      },
      {
        "astId": 3460,
        "contract": "contracts/MetaJungle.sol:MetaJungle",
        "label": "_latestUpdateTime",
        "offset": 0,
        "slot": "16",
        "type": "t_uint256"
      },
      {
        "astId": 3474,
        "contract": "contracts/MetaJungle.sol:MetaJungle",
        "label": "_proposals",
        "offset": 0,
        "slot": "17",
        "type": "t_array(t_struct(Proposal)3469_storage)dyn_storage"
      },
      {
        "astId": 3479,
        "contract": "contracts/MetaJungle.sol:MetaJungle",
        "label": "_baseURIofGeneration",
        "offset": 0,
        "slot": "18",
        "type": "t_mapping(t_uint32,t_string_storage)"
      },
      {
        "astId": 130,
        "contract": "contracts/MetaJungle.sol:MetaJungle",
        "label": "_totalShares",
        "offset": 0,
        "slot": "19",
        "type": "t_uint256"
      },
      {
        "astId": 132,
        "contract": "contracts/MetaJungle.sol:MetaJungle",
        "label": "_totalReleased",
        "offset": 0,
        "slot": "20",
        "type": "t_uint256"
      },
      {
        "astId": 136,
        "contract": "contracts/MetaJungle.sol:MetaJungle",
        "label": "_shares",
        "offset": 0,
        "slot": "21",
        "type": "t_mapping(t_address,t_uint256)"
      },
      {
        "astId": 140,
        "contract": "contracts/MetaJungle.sol:MetaJungle",
        "label": "_released",
        "offset": 0,
        "slot": "22",
        "type": "t_mapping(t_address,t_uint256)"
      },
      {
        "astId": 143,
        "contract": "contracts/MetaJungle.sol:MetaJungle",
        "label": "_payees",
        "offset": 0,
        "slot": "23",
        "type": "t_array(t_address)dyn_storage"
      }
    ],
    "types": {
      "t_address": {
        "encoding": "inplace",
        "label": "address",
        "numberOfBytes": "20"
      },
      "t_array(t_address)dyn_storage": {
        "base": "t_address",
        "encoding": "dynamic_array",
        "label": "address[]",
        "numberOfBytes": "32"
      },
      "t_array(t_struct(Proposal)3469_storage)dyn_storage": {
        "base": "t_struct(Proposal)3469_storage",
        "encoding": "dynamic_array",
        "label": "struct JungleGovernance.Proposal[]",
        "numberOfBytes": "32"
      },
      "t_array(t_uint256)dyn_storage": {
        "base": "t_uint256",
        "encoding": "dynamic_array",
        "label": "uint256[]",
        "numberOfBytes": "32"
      },
      "t_bool": {
        "encoding": "inplace",
        "label": "bool",
        "numberOfBytes": "1"
      },
      "t_contract(ENS)3876": {
        "encoding": "inplace",
        "label": "contract ENS",
        "numberOfBytes": "20"
      },
      "t_contract(IERC20)1021": {
        "encoding": "inplace",
        "label": "contract IERC20",
        "numberOfBytes": "20"
      },
      "t_enum(Stage)3284": {
        "encoding": "inplace",
        "label": "enum JungleFields.Stage",
        "numberOfBytes": "1"
      },
      "t_int256": {
        "encoding": "inplace",
        "label": "int256",
        "numberOfBytes": "32"
      },
      "t_int8": {
        "encoding": "inplace",
        "label": "int8",
        "numberOfBytes": "1"
      },
      "t_mapping(t_address,t_bool)": {
        "encoding": "mapping",
        "key": "t_address",
        "label": "mapping(address => bool)",
        "numberOfBytes": "32",
        "value": "t_bool"
      },
      "t_mapping(t_address,t_mapping(t_address,t_bool))": {
        "encoding": "mapping",
        "key": "t_address",
        "label": "mapping(address => mapping(address => bool))",
        "numberOfBytes": "32",
        "value": "t_mapping(t_address,t_bool)"
      },
      "t_mapping(t_address,t_mapping(t_uint256,t_uint256))": {
        "encoding": "mapping",
        "key": "t_address",
        "label": "mapping(address => mapping(uint256 => uint256))",
        "numberOfBytes": "32",
        "value": "t_mapping(t_uint256,t_uint256)"
      },
      "t_mapping(t_address,t_uint256)": {
        "encoding": "mapping",
        "key": "t_address",
        "label": "mapping(address => uint256)",
        "numberOfBytes": "32",
        "value": "t_uint256"
      },
      "t_mapping(t_uint256,t_address)": {
        "encoding": "mapping",
        "key": "t_uint256",
        "label": "mapping(uint256 => address)",
        "numberOfBytes": "32",
        "value": "t_address"
      },
      "t_mapping(t_uint256,t_struct(JunglerData)3922_storage)": {
        "encoding": "mapping",
        "key": "t_uint256",
        "label": "mapping(uint256 => struct Jungler.JunglerData)",
        "numberOfBytes": "32",
        "value": "t_struct(JunglerData)3922_storage"
      },
      "t_mapping(t_uint256,t_uint256)": {
        "encoding": "mapping",
        "key": "t_uint256",
        "label": "mapping(uint256 => uint256)",
        "numberOfBytes": "32",
        "value": "t_uint256"
      },
      "t_mapping(t_uint32,t_string_storage)": {
        "encoding": "mapping",
        "key": "t_uint32",
        "label": "mapping(uint32 => string)",
        "numberOfBytes": "32",
        "value": "t_string_storage"
      },
      "t_mapping(t_uint8,t_uint256)": {
        "encoding": "mapping",
        "key": "t_uint8",
        "label": "mapping(uint8 => uint256)",
        "numberOfBytes": "32",
        "value": "t_uint256"
      },
      "t_mapping(t_uint8,t_uint32)": {
        "encoding": "mapping",
        "key": "t_uint8",
        "label": "mapping(uint8 => uint32)",
        "numberOfBytes": "32",
        "value": "t_uint32"
      },
      "t_string_storage": {
        "encoding": "bytes",
        "label": "string",
        "numberOfBytes": "32"
      },
      "t_struct(JunglerData)3922_storage": {
        "encoding": "inplace",
        "label": "struct Jungler.JunglerData",
        "members": [
          {
            "astId": 3909,
            "contract": "contracts/MetaJungle.sol:MetaJungle",
            "label": "generation",
            "offset": 0,
            "slot": "0",
            "type": "t_uint32"
          },
          {
            "astId": 3911,
            "contract": "contracts/MetaJungle.sol:MetaJungle",
            "label": "closed",
            "offset": 4,
            "slot": "0",
            "type": "t_bool"
          },
          {
            "astId": 3913,
            "contract": "contracts/MetaJungle.sol:MetaJungle",
            "label": "onField",
            "offset": 5,
            "slot": "0",
            "type": "t_bool"
          },
          {
            "astId": 3915,
            "contract": "contracts/MetaJungle.sol:MetaJungle",
            "label": "power",
            "offset": 0,
            "slot": "1",
            "type": "t_int256"
          },
          {
            "astId": 3917,
            "contract": "contracts/MetaJungle.sol:MetaJungle",
            "label": "proxy",
            "offset": 0,
            "slot": "2",
            "type": "t_address"
          },
          {
            "astId": 3919,
            "contract": "contracts/MetaJungle.sol:MetaJungle",
            "label": "openPrice",
            "offset": 0,
            "slot": "3",
            "type": "t_int256"
          },
          {
            "astId": 3921,
            "contract": "contracts/MetaJungle.sol:MetaJungle",
            "label": "leverage",
            "offset": 0,
            "slot": "4",
            "type": "t_int8"
          }
        ],
        "numberOfBytes": "160"
      },
      "t_struct(Proposal)3469_storage": {
        "encoding": "inplace",
        "label": "struct JungleGovernance.Proposal",
        "members": [
          {
            "astId": 3462,
            "contract": "contracts/MetaJungle.sol:MetaJungle",
            "label": "proposer",
            "offset": 0,
            "slot": "0",
            "type": "t_address"
          },
          {
            "astId": 3464,
            "contract": "contracts/MetaJungle.sol:MetaJungle",
            "label": "baseURI",
            "offset": 0,
            "slot": "1",
            "type": "t_string_storage"
          },
          {
            "astId": 3466,
            "contract": "contracts/MetaJungle.sol:MetaJungle",
            "label": "bid",
            "offset": 0,
            "slot": "2",
            "type": "t_uint88"
          },
          {
            "astId": 3468,
            "contract": "contracts/MetaJungle.sol:MetaJungle",
            "label": "voteCount",
            "offset": 11,
            "slot": "2",
            "type": "t_uint8"
          }
        ],
        "numberOfBytes": "96"
      },
      "t_uint256": {
        "encoding": "inplace",
        "label": "uint256",
        "numberOfBytes": "32"
      },
      "t_uint32": {
        "encoding": "inplace",
        "label": "uint32",
        "numberOfBytes": "4"
      },
      "t_uint8": {
        "encoding": "inplace",
        "label": "uint8",
        "numberOfBytes": "1"
      },
      "t_uint88": {
        "encoding": "inplace",
        "label": "uint88",
        "numberOfBytes": "11"
      }
    }
  }
}